:100000000C9421020C943E020C943E020C943E028D
:100010000C943E020C943E020C943E020C943E0260
:100020000C943E020C943E020C94862A0C945A2B9B
:100030000C9497240C943E020C943E020C943E02C5
:100040000C943E020C943E020C943E020C943E0230
:100050000C943E020C943A250C943E020C943E0201
:100060000C943E020C943E020C943E020C943E0210
:100070000C943E020C943E020C943E020C943E0200
:100080000C943E020C943E020C943E020C943E02F0
:100090000C943E020C943E020C943E020C943E02E0
:1000A0000C943E020C943E020C943E021E001F0073
:1000B000200021002200230024002500015104001B
:1000C000050006000700080009000A000B000051A7
:1000D00000000000000000002A2B280000000000A3
:1000E00000000000000000000000002900000000E7
:1000F0002C1E3420212224342627252E362D373855
:10010000271E1F202122232425263333362E37385D
:100110001F0405060708090A0B0C0D0E0F1011121B
:10012000131415161718191A1B1C1D2F3130232DE7
:10013000350405060708090A0B0C0D0E0F101112E5
:10014000131415161718191A1B1C1D2F3130354C96
:10015000000000000000000000000000000000009F
:10016000000000000000000000000000000000008F
:10017000000000007E0F00D4FFFFFFC700000078E2
:10018000FD377A585A000004E6D6B4460200210131
:1001900016000000742FE5A3E000D7009C5D003D31
:1001A0008889C65436C3174FE4D56CEE8D9FD9713C
:1001B000A4DCF18EA59975DACA2715A131F262D8AF
:1001C00061F92B93C094EC77D9160FFD6C5263261E
:1001D000AF87DD72467362FD44FC9CAEBEF2919B1C
:1001E0008F38F8EEFCA85550EAAD54924127F7A09D
:1001F000260598A00C127E874BB39ABCDBDB7DFFF3
:100200003737798ADC5D7FE72A6380081EA55AF8B4
:10021000F142A5F6089BF6D3BBCBF47BA4BF9ADCD6
:10022000B4415A398253FEDFBCBDCC4CD1F7F8152E
:100230006DFEBA761431F09CB607650048D088048C
:10024000292D23C00001B801D801000034978EEA9F
:10025000B1C467FB020000000004595A1C03760079
:10026000690061006C003A006600360034006300EB
:1002700032006200330063000000160338006200A1
:1002800074006E00730077006900740063006800FA
:1002900000001E034B0061007400690065007300DC
:1002A000200047006100640067006500740073006F
:1002B00000000403090409025B00030100A0FA091D
:1002C0000400000103010100092111010001224085
:1002D0000007058103080001090401000203000072
:1002E00000092111010001222200070582032000DC
:1002F00001070503032000010904020001030000B7
:100300000009211101000122BC000705840320001F
:10031000011201000200000008EEEE22200100019F
:100320000203010660FF0961A1010962150026FFB1
:10033000009520750881020963150026FF009520AD
:1003400075089102C005010902A10185020901A1F8
:10035000000509190129051500250195057501817B
:1003600002950175038101050109300931158125C7
:100370007F95027508810609381581257F950175DD
:10038000088106050C0A38021581257F950175083C
:100390008106C0C005010980A101850319012AB7A2
:1003A00000150126B700950175108100C0050C09E4
:1003B00001A101850419012AA002150126A00295B8
:1003C0000175108100C005010906A1018506050718
:1003D00019E029E715002501950875018102050737
:1003E000190029EF1500250195F075018102050816
:1003F0001901290595057501910295017503910172
:10040000C005010906A101050719E029E715002526
:10041000019508750181029501750881010507198B
:100420000029FF150026FF009506750881000508C4
:100430001901290595057501910295017503910131
:10044000C00011241FBECFEFDAE0DEBFCDBF11E048
:10045000A0E0B1E0E4E1FCE502C005900D92A03A15
:10046000B107D9F723E0A0EAB1E001C01D92AA3F8D
:10047000B207E1F70E946E120C94E42D0C94000078
:100480009C013A9521153F4150F5FC01EE27F17092
:10049000BC0166277270AC01442754709C0122276E
:1004A000387094FF0EC080E1EF2B09F480E0672BD9
:1004B00009F08062452B09F08064232B89F0806865
:1004C000089581E0EF2B09F480E0672B09F082604A
:1004D000452B09F08460232B19F08860089580E093
:1004E0000895CF93DF93EB010E944002FE0109952E
:1004F000DF91CF910895CF93DF93EC01805E910956
:10050000089720F06EE078E0209711F466E975E036
:10051000CE010E9471028C2F0E94F704DF91CF91CF
:100520000895CF93DF93EC010E944305CE01805ED6
:100530009109089720F065E178E0209711F46DE9C2
:1005400075E0CE010E947102DF91CF91089581E0A4
:10055000089581E008950E94A902089508950E94D7
:10056000AE020895A5E0B0E0E8EBF2E00C94312D86
:1005700049835A833091A30189819A81311119C02D
:10058000662399F0222389F00E945009182F682FC2
:1005900089819A810E94350969817A81812F0E941F
:1005A000C81B2596E3E00C944D2D0E944209182F9C
:1005B000F3CF0E94500969817A81F1CFFC01262F87
:1005C000408151816281738184810E94B2020895C9
:1005D00081E00895CF93DF93EC0160E00E94DE029A
:1005E000BE010E94AF02DF91CF910895E1E0F0E0FB
:1005F000DF0102C0AA0FBB1F6A95E2F7BD01DF0150
:1006000002C0AA0FBB1F4A95E2F76A2B01C0EE0F8A
:100610002A95EAF7962F9823961302C08E2B0895F9
:10062000E0958E230895242F462F682F8091AA01EC
:100630000E94F6020E94950808950E94581108959C
:100640000E945C11089508950E9432080E942303BD
:100650002FEF84E39CE0215080409040E1F700C000
:10066000000008950E9424030E945E2508950E94C0
:1006700024030E946F2508950F931F93CF93DF9358
:10068000EC018B010E943D22B801CE010E947D1534
:10069000811106C080E0DF91CF911F910F910895E5
:1006A000B801CE010E94111A8823A1F3B801CE012E
:1006B0000E94AB02882371F3B801CE010E94791F1A
:1006C000882341F3B801CE010E947F22882311F3D1
:1006D000B801CE010E948C218823E1F2B801CE013D
:1006E0000E94F71C8823B1F2B801CE010E94341E8B
:1006F000882381F2F8018281882361F0CA35FDE503
:10070000DF0701F158F4C115ECE5DE0791F0CE3DAD
:10071000DC4591F0C8010E94A702BDCFCC358DE524
:10072000D80769F090F0C73ADD45A1F70E9437037A
:10073000B1CF0E943203AECF0E94800EF7CF0E944D
:10074000BA0DE8CF0E94C40DE5CF0E94C80DE2CFDC
:10075000CF93DF93EC0161E00E94DE02BE010E94B4
:100760003C03DF91CF9108950E9479240E94980460
:1007700008950E949C040E947E240895B0E0A0E0A9
:10078000E4ECF3E00C942D2DE82FF0E0E053FF4F64
:10079000D490282F26952695269530E0F901E0592A
:1007A000FE4F0491877010E0082E02C01595079542
:1007B0000A94E2F701701127F901E05AFE4FE49024
:1007C000F12C082E02C0F594E7940A94E2F791E028
:1007D000E922FF24F901E05BFE4FC491D0E002C0A2
:1007E000D595C7958A95E2F7C170DD2701151105EA
:1007F00019F081EE0E94F704E114F10419F086EE7D
:100800000E94F7048D2D0E948D05E114F10419F06A
:1008100086EE0E9443050115110519F081EE0E9434
:100820004305CD2B19F08CE20E948D05CDB7DEB7C4
:10083000E7E00C94492DEF92FF920F931F93CF9313
:10084000DF93EC01162F0AE08881882309F454C055
:10085000813009F04EC08981813099F47E0122E017
:10086000E20EF11C8A810E948D05E7012196812FFD
:10087000815050F3EFE9FFE03197F1F700C000003D
:10088000F7CF823041F47E0182E0E80EF11C8A81CC
:100890000E94F704EACF833041F47E01E2E0EE0EDD
:1008A000F11C8A810E944305E0CF843011F021962B
:1008B000DDCF2A81229690E080E0AE014F5F5F4F4E
:1008C0002053330B2A30310548F0019778F2EFE9D5
:1008D000FFE03197F1F700C00000F7CF089FB001AB
:1008E000099F700D1124C901860F971F2981EA0104
:1008F000E4CF0E94BE03BACFCDB7DEB7E6E00C94DA
:100900004A2D60E00E941B04089508950E9485040A
:10091000089581E008950E94890408950895CF9371
:10092000C82F0E9486048C2F0E948B04CF910895BB
:1009300080E00E948F0408950E942A230E948F0461
:1009400008950E942A239091A201981721F0809384
:10095000A2010E948F040895ABE0B0E0E2EBF4E066
:100960000C94322D4F83588769877A878B87611162
:100970000E94B90C1E821D8285E0FE013796DE01C1
:10098000119601900D928A95E1F78091E20382FF22
:100990000CC00E94790C882319F082E00E94890D16
:1009A0000E94600C81110E94F30C8C819D81892B27
:1009B00061F449815A816B817C818D819E810E9485
:1009C000B70B2B96E2E00C944E2D89819A818923F6
:1009D0008F3F79F3CE0101960E94E8028111E9CFA1
:1009E000F0CFFC01808191810E947D090895CF9311
:1009F000C82F8823B9F08CEF8C0F813AA8F46C2FA4
:100A000080910001909101010E949F23882329F089
:100A10008C2F0E944E0C0E94010D8C2F0E94460CC0
:100A20000E94010DCF91089580E28C0F883048F428
:100A3000C77081E001C0880FCA95EAF70E94990C3F
:100A4000EFCFEBE5EC0FE33040F4F0E0EC5AFE4F73
:100A5000808190E00E945F23E5CFE8E5EC0FE7316D
:100A600050F4F0E0EE0FFF1FEA5DFE4F80819181B0
:100A70000E947523D7CFC03FA8F28C2F0E94F2129C
:100A80000E94DD13CFCF882379F19CEF980F913A24
:100A900028F40E944E0C0E94010D089590E2980FD8
:100AA000983050F4877091E001C0990F8A95EAF769
:100AB000892F0E949F0CEFCF9BE5980F933028F46D
:100AC00090E080E00E945F23089598E5980F9731A9
:100AD00028F490E080E00E9475230895803F20F084
:100AE0000E945A130E94DD1308951F93CF93DF9342
:100AF000182FEB010E94F704209739F4812F0E94F0
:100B00004305DF91CF911F9108958FE99FE00197F1
:100B1000F1F700C000002197EFCF70E060E089336B
:100B200011F460E570E00E9475050895882321F0B6
:100B30000E94990C0E94010D0895882321F00E94C3
:100B40009F0C0E94010D0895B0E0A0E0EAEAF5E0F4
:100B50000C942B2D6C01D62FC72FFC010281F58040
:100B6000F2949FE0F9220E948F0CE82E8823B9F0BE
:100B7000E02E0023A1F08C2F807F803421F080E2D2
:100B80008D0F8830D0F08091E20382FF16C082E0A2
:100B90000E94890D0E948F0C91E0E82EE926BC2E60
:100BA000B2948FE0B822FBE0FB1508F468C0EB2D8F
:100BB000F0E0EA51F24D0C94152DE12CF0CF1C2FF2
:100BC0001F70C07F11F01295107F002399F0112340
:100BD00059F080E28D0F883010F0D11107C0812FBD
:100BE0000E94990C0E94010D8D2F41C0812F0E94FF
:100BF000AC0CF8CF8D2F0E944305112309F43FC0A0
:100C000080E28D0F883010F0D11104C0812F0E9436
:100C10009F0C03C0812F0E94B20C0E94010D2FC0B7
:100C20001C2F1F70C07FC03211F01295107FDD2382
:100C300081F0D13009F482C0002309F48BC0FF2079
:100C400009F45BC0F601858180FFCECF8F7085836C
:100C500054C08091E20382FD33C0002359F0112378
:100C600029F0812F0E94990C0E94010D80E00E94C2
:100C7000F70405C080E00E9443051111C7CFEB2D9A
:100C8000E850FF0B349720F40E942A230E948F041F
:100C9000EE2089F00E94750C80FD0DC0F6011282D5
:100CA0000E946F0C0E94A908C6010E94E4070E94DE
:100CB0006F0C0E94B508CDB7DEB7E9E00C94472D64
:100CC0000023E9F0F11006C00E94C80C812B0E949D
:100CD0009605D5CF21E0F21206C00E94C80C812BE8
:100CE0000E94DC0CCCCF35E0F312EECF0E94F30C67
:100CF0000E945D0C812B0E94CF0C812FE8CFF11058
:100D000003C00E94F30C11C081E0F81212C00E94CF
:100D1000960C812309F4B3CF0E94F30C0E945D0C62
:100D2000912F909589230E94CF0C812F0E949D05C1
:100D3000A6CF95E0F91609F4A2CFE3CF002329F05E
:100D4000E5E0EF1508F49BCFD8CFF4E0FF1508F4E9
:100D500096CFEBCFFF2049F3D93349F4FFEF27EECD
:100D600033E0F15020403040E1F700C000008D2F0B
:100D70000E94430584CF8C2F86958695837069F0F9
:100D8000813009F07CCF8D2F9C2F9370011102C010
:100D900090E080E00E94752372CF8D2F9C2F93707E
:100DA000011102C090E080E00E945F2368CF8D2F88
:100DB000002329F00E94F2120E94DD1360CF0E94EE
:100DC0005A13FACF8C2F837079F5011158CF4D2F1C
:100DD000429546954770440F440F8D2F8F70042E17
:100DE00001C0880F0A94EAF72D2F2071D4FF07C0A5
:100DF0002FE030E001C0220F4A95EAF72095C69512
:100E0000C695C370822BC23049F058F4C13019F036
:100E10000E94830834CF0E947D0831CF0E94890848
:100E20002ECF0E947A082BCF8695002311F08C2FAD
:100E30008170882309F423CF4D2F42954695477042
:100E4000440F440F8D2F8F70042E01C0880F0A9419
:100E5000EAF72D2F2071D4FF07C02FE030E001C04A
:100E6000220F4A95EAF72095C695C695C370822B46
:100E7000C23049F058F4C13019F00E94D408FFCEB6
:100E80000E94CE08FCCE0E94DA08F9CE0E94950896
:100E9000F6CECF70002329F08C2F0E94A9088D2F49
:100EA00016CF8D2F0E949D058C2F0E94B508E7CE8E
:100EB000D23F51F160F4D03FB9F0D13F81F000232F
:100EC00009F45AC0F11090CE8C2F8F7121C0D33FFE
:100ED00011F1D43FA1F78091E20382FD26C08C2F4F
:100EE0008F71002311F314C0002349F084E08F15A3
:100EF00008F4C5CE8C2F8F710E94C208C0CE95E039
:100F00009F1508F4BCCEF6CF8C2F8F710111CDCF79
:100F10000E94A908B4CE002329F08C2F8F710E9463
:100F2000A008ADCE0E949C08AACE0023C1F00E946A
:100F3000750C843041F40E947F0D8C2F8F710E94BC
:100F4000B508E12C9CCEE4E0EF15D8F3CF718C2FDF
:100F50000E94A90863E08C2F0E94610DF2CFF4E09B
:100F6000FF1530F40E947F0D64E08C2F8F71F4CF59
:100F700081E00E94890DE5CFFF2059F0D93309F0B7
:100F8000F6CE2FEF37EE83E0215030408040E1F77E
:100F9000ECCE8C2F8F7189CF0F931F93CF93DF935C
:100FA000EC01688179818A810E9488098C010E9404
:100FB000E0080E947908B801CE010E94A405DF91E3
:100FC000CF911F910F910895CF93DF93EC018B8107
:100FD0009C81892B29F08881998189238F3F51F445
:100FE000DF91CF910895CE010E94CC07CE010E94DF
:100FF000EA02F6CFCE010E94A8038111F4CF0E942D
:101000008F0C882369F38A81882351F38091E2034E
:1010100082FFE6CF82E00E94890DE2CF882321F093
:101020000E94AC0C0E94010D0895882321F00E94BB
:10103000B20C0E94010D089590E080E00E945F23B1
:1010400090E080E00E9475230E94B90C0E94010D7F
:101050000E94F9130E94DD1308950E94560C0E940D
:101060001C0808950E94A60C0E942D0808959295D0
:101070009F70963091F058F4925F9F70923058F4C0
:10108000803F19F030F4883E30F481E008959A5F93
:10109000F4CF843FD1F380E00895883EB0F3813FE0
:1010A000D1F7F3CFFC01808191810E947D090E94DC
:1010B00037080895A5E0B0E0E0E6F8E00C94322DA2
:1010C0002596E2E00C944E2DA6E0B0E0EAE6F8E0CA
:1010D0000C94322D2696E2E00C944E2D08950E9439
:1010E0006E0808950E946F088093AB010E941C084F
:1010F000089508950E94720808959091AB01892B7C
:101100000E94720808959091AB0189230E94720891
:1011100008959091AB0189270E94720808950E945A
:101120006E0808950E948F0808950E949208809387
:10113000AA010E941C08089580E00E949508089565
:1011400091E001C0990F8A95EAF7892F0E949508CE
:10115000089521E030E001C0220F8A95EAF78091DE
:10116000AA01822B0E949508089521E030E001C079
:10117000220F8A95EAF720958091AA0182230E9486
:101180009508089521E030E001C0220F8A95EAF722
:101190008091AA0182270E94950808959091AA0142
:1011A000892B0E94950808959091AA0189230E9495
:1011B000950808959091AA0189270E94950808959D
:1011C0000895262F277091E001C0990F2A95EAF71C
:1011D00023E0769567952A95E1F7FB01EE0FFF1F57
:1011E000E60FF71FE40FF51F50E040E0682F70E0B6
:1011F0008191DF0111979B01042E02C0369527953E
:101200000A94E2F7217021952827292328272C9377
:101210004F5F5F4F4330510559F70895A82FA770CE
:1012200023E0969587952A95E1F7FC01EE0FFF1FC5
:10123000E80FF91FE60FF71F50E040E080E0219132
:1012400030E00A2E02C0369527950A94E2F7217005
:101250003327042E01C0220F0A94EAF7822B4F5F36
:101260005F4F4330510559F70895262F911109C05A
:10127000893038F4682F70E044EA51E0822F0E94F0
:10128000E108089591110AC0893030F464EA71E0F0
:1012900090E00E940E09982F892F089590E0FCCFCE
:1012A000CF92DF92FF920F931F93CF93DF936C0146
:1012B0000091AA018091AB01082BC7E0D0E010E0BB
:1012C000FC2EC8010C2E02C0959587950A94E2F772
:1012D00080FD0CC02197A0F7F12C8F2DDF91CF91CD
:1012E0001F910F91FF90DF90CF900895B6018C2F42
:1012F0000E943E10019771F3F0CFCF93DF93EC0182
:101300000E945009BE010E943E10DF91CF910895C6
:101310001F93CF93DF93EB019091A301992339F0B1
:10132000CB010E947D09DF91CF911F910895882301
:1013300069F0CB010E945009182F682FCE010E943E
:101340003509BE01812F0E943E10EDCFCB010E94D6
:101350004209182FF6CF1F93CF93DF93C091AC01B2
:1013600016E08091AD018C1304C0DF91CF911F91E5
:101370000895D0E01C9FF0011D9FF00D1124E2554F
:10138000FE4F4081518162817381848195810E94E9
:1013900064082196C770E5CF4091DE015091DF01CE
:1013A0006091E0017091E1018091E2019091E3018F
:1013B0000E94640808951F93CF93DF938091E30107
:1013C000807F09F049C08091E001882309F444C07E
:1013D0008091AC01C091AD016091DE017091DF019F
:1013E000A091E101B091E201D62FD72316E0C817F2
:1013F00099F190E0109711F0DF3F19F40196877092
:10140000F6CF189F9001199F300D1124F901E25574
:10141000FE4F41814713F2CF40814613EFCF428107
:101420004111ECCF438154814A1B5B0B483C510571
:1014300028F78091E3018F7080618093E301F901C7
:10144000ED54FE4F80818F70806180838EED91E03E
:101450000E94E4070E94AB09DF91CF911F9108958C
:10146000A1E1B0E0E6E3FAE00C942A2D8C0185E0DE
:10147000F801DE011D9601900D928A95E1F7F801C1
:10148000E2808EEDC82E81E0D82E6091E10170914E
:10149000E2016115710509F44EC19091DE012091C0
:1014A000DF01892F82238F3F09F445C1408151819B
:1014B000A380B480F090E001F501E61BF70BFF205C
:1014C00009F4EAC08091E301382F307FE83CF10550
:1014D00008F0A3C031116DC0FE2C251316C0941363
:1014E00014C0E11012C08F7080618093E3010E94EC
:1014F000CC09C6010E94E4078091E301F8018583CD
:101500008F2D6196EAE00C94462DA114B10429F0C8
:10151000842F85238F3F09F027C180E0F82FF170D9
:10152000DF2E80FF3CC08091AC012091AD0136E000
:10153000821315C04D875E878D859E850E947D092B
:10154000292F22952F702230F0F0243018F59F704B
:10155000F1F0F8019581907FD1F4D12C1EC090E07C
:10156000389FF001399FF00D1124E255FE4F618143
:10157000651306C06081641303C06281E6120FC068
:1015800001968770D5CF9F7011F0882331F3805E6C
:10159000883018F3C8010E94E407FD2CB1CFEE207B
:1015A00009F4AECF8091E30181608093E301F12CD7
:1015B000A7CF251306C0941304C0F801EE2009F448
:1015C00087C0C8010E945208882319F1EE2009F152
:1015D0008091E301803270F02091DE013091DF01D3
:1015E00038872F831986BB86AA868C87CE010796FB
:1015F0000E94E40786E0F801AEEDB1E001900D92A3
:101600008A95E1F70E94DB090E94CC09FF24F3943C
:1016100077CFC8010E94E407F9CF311113C07A2DAA
:10162000B98AA88A6E2D89890E945A088EED91E0A8
:101630000E94E40786E0F60111928A95E9F70E947C
:10164000CC09B5CF25130FC094130DC0E1100BC00A
:10165000F8018583C8010E94E40786E0F601119233
:101660008A95E9F74DCFC8010E945208882389F274
:10167000EE2079F28091E301803208F4BBCF209113
:10168000DE013091DF013A8329831B82BD82AC8267
:101690008E83CE010196ACCFE83CF10508F03EC048
:1016A000FE2CEE2009F4B5CF25132AC0941328C0D0
:1016B0008091E30180FD1BC0982F907FC1F0F8015D
:1016C0008583903F31F0982F907F905F8F70892BAA
:1016D0008583C8010E94E40786E0F801AEEDB1E021
:1016E00001900D928A95E1F70E94CC0909CF86E01E
:1016F000F801AEEDB1E001900D928A95E1F700CFCF
:10170000C8010E945208811175CF8091E301816068
:101710008093E301C8010E94E407F2CE7A2DB98AD2
:10172000A88A6E2D89890E945A0886E0F6011192D6
:101730008A95E9F7D9CFEE2009F46BCFC8010E9452
:101740005208F82E882309F464CF86E0F801AEED44
:10175000B1E001900D928A95E1F78EED91E00E9443
:10176000F1040E94DB09C0CF81E08E25D7CEACE02A
:10177000B0E0EDEBFBE00C94312D4F835887698787
:101780007A878B879C87CE0107960E94300A882330
:1017900069F08A859B85892B39F04F815885842F84
:1017A00085238F3F09F06BC016E05FC086E0FE0125
:1017B0003796DE01119601900D928A95E1F78A85A0
:1017C0009B85892B89F38F81988589238F3F61F3CE
:1017D0002091AD0130E0C9010196877099274091B1
:1017E000AC014817190671F40E9432081092AD013D
:1017F0001092AC0186E0EEEDF1E0DF011D928A95DA
:10180000E9F7D2CF96E0929FD001939FB00D1124BB
:10181000A255BE4FFE01319601900D929A95E1F7C7
:101820008093AD010E94AB09BFCF819FC0011124FD
:1018300082559E4F0E94300A8823E9F0E091AC0166
:101840001E9FF0011124E255FE4F408151816281BB
:101850007381848195810E9464088091AC0190E03D
:101860000196877099278093AC018091AC0190918B
:10187000AD018913DACF2C96E3E00C944D2D6985E8
:101880007A858B859C850E9464088ECF682F809115
:101890000001909101010E941F240895682F8091FA
:1018A0000001909101010E942D2408958091000172
:1018B000909101010E943B240895809109020895AE
:1018C0000E94F7242091070230910802821B930B9B
:1018D0009C0181E02838334108F480E0089580912C
:1018E00006028595859585950895809106028770F5
:1018F00008950E94F7242091040230910502821B72
:10190000930B8838934148F08091060282FB882728
:1019100080F991E089278170089580E0FCCF909153
:101920000602977081E009F480E0089580912E020C
:10193000089590912E02892B80932E020895809510
:1019400090912E02982390932E02089510922E02C9
:10195000089580912D02089590912D02892B8093F6
:101960002D020895809590912D02982390932D0239
:10197000089510922D02089580932C0208951092DC
:101980002C02089580932B02089510922B02089543
:1019900080910A02089508950E94CB0C08959091B9
:1019A0000902981721F0809309020E94CC0C089537
:1019B00008950E94D80C0895CF93C82F8091E20318
:1019C00082FF0FC080910A028C1759F00E94F72401
:1019D0009093080280930702C0930A028C2F0E9402
:1019E000D90CCF91089580910A02882349F0109272
:1019F0000A02109208021092070280E00E94D90C9D
:101A00000895CF93DF93E0910001F091010180915F
:101A10002E028083E0910001F0910101808190917C
:101A20002D02892B808380910A028823B9F00E94BD
:101A3000600C81110E94F30CE0910001F091010112
:101A4000808190910A02892B80838091000190917E
:101A500001010E948B2381110E94F30CE09100018F
:101A6000F091010180912B02982F9095808189231C
:101A70008083E0910001F0910101808190912C021E
:101A8000892B8083C0910001D091010140E250E098
:101A900064EE71E0CE010E94762D892B59F080E230
:101AA000FE01A4EEB1E001900D928A95E1F7CE011E
:101AB0000E943723DF91CF91089508950E945D0D14
:101AC00008959091E20392FF17C098E0899F9001DA
:101AD0001124622B609306020E94A9080E94F72439
:101AE0009093050280930402809106028595859566
:101AF00085950E945E0D08950E94A9080895109290
:101B00000602109205021092040280E00E945E0D0F
:101B10000895909106028095892380930602282FCC
:101B2000277091F4282F082E000C330B9217130600
:101B300059F09091E20392FF07C0859585958595B0
:101B40000E94B5080E947F0D08959091E20392FBD8
:101B5000222720F9281769F080FB92F99093E2037D
:101B60008091E1039091E2030E94F70D82E00E94D0
:101B7000890D08958091E20382FB882780F991E026
:101B800089270E94A50D089581E00E94A50D089562
:101B900080E00E94A50D08956FEF7FEF90E080E058
:101BA0000E94C62D089590E080E00E94A22D883EFC
:101BB0009E4F19F40E941715089580E0089582E061
:101BC00090E00E949A2D089583E090E00E949A2D63
:101BD0000895CF9384E090E00E949A2DC82F82E26E
:101BE00090E00E949A2D982F8C2FCF910895CF933B
:101BF000C92F682F84E090E00E94A82D6C2F82E20C
:101C000090E00E94A82DCF910895AB01BC018FE018
:101C100090E00E94BA2D0895AB01BC0183E190E0F1
:101C20000E94BA2D089560E070E0CB010E940C0E76
:101C3000089560E070E0CB010E94050E0E94130E33
:101C4000089568EE7EEF90E080E00E94C62D60E08F
:101C500082E090E00E94A82D60E083E090E00E9486
:101C6000A82D1092AB0160E084E090E00E94A82DC6
:101C700064E082E290E00E94A82D60E085E090E0C0
:101C80000E94A82D60E086E090E00E94A82D6FEFF2
:101C900087E090E00E94A82D40E050E0BA0188E083
:101CA00090E00E94BA2D60E08DE090E00E94A82DA7
:101CB00040E050E0BA0188E190E00E94BA2D60E077
:101CC00087E190E00E94A82D40E050E0BA018CE14D
:101CD00090E00E94BA2D70E060E080E290E00E9407
:101CE000C62D40E050E0BA0188E190E00E94BA2D94
:101CF00080E00E9430150E9460150E94190E089520
:101D00000E94210E0895682F8EE090E00E94A82D79
:101D100008950E94032560933502709336028093E4
:101D200037029093380260933102709332028093AD
:101D30003302909334020895089508950E949D0EF1
:101D4000089508950E94A10E08958DE191E10E94E9
:101D500020230E9481170E949C0E0E949E0E0895CF
:101D600081E008950E94B00E0895089508950E949C
:101D7000B50E0E94B60E08950E943C110E948E047A
:101D800008950E94EE240E9470150E94E6110E94A0
:101D9000BC0E0E94A20E0895AAE0B0E0E2EDFEE0C3
:101DA0000C942A2D0E94F611C82E81110E94890ED2
:101DB00080E00E945F118C0180912F02909130028F
:101DC0005C01A026B1268017910709F440C08091DC
:101DD000390281FD0E946811D12CEE24E394F12C8C
:101DE000C5018E219F21892B61F10E94B20E8823AB
:101DF000B1F0DE821F820E211F2181E00115110545
:101E000009F480E088870E94F7248160782F9A8700
:101E100089874E815F8168858A850E94AC048091A4
:101E20002F0290913002E826F926F0923002E092DB
:101E30002F0281E0C11001C080E02A96EAE00C94F4
:101E4000462DD394EE0CFF1C89E0D812C9CF8FEF3A
:101E500089838A831B820E94F7248160782F9D8367
:101E60008C8349815A816B818D810E94AC04E1CFC2
:101E70000E943D1F0E94D82208950E94CC0E0E940D
:101E8000380F0E941B140E94A1040895CF93DF9382
:101E90000E944310EC01811521E5920708F042C031
:101EA000811530E5930708F09DC0883E910530F517
:101EB000803E910508F092C0883A910588F4853AF1
:101EC000910508F084C08130910509F487C000971E
:101ED00009F484C0049708F081C0D0E0C0E07EC05F
:101EE0008F3B9105D0F7C85AD0E0CC0FDD1FC95AFF
:101EF000DE4F0990D881C02DD46470C08115904206
:101F000050F4C11581E0D80708F068C0C03FD10582
:101F100020F3D06563C0C11590E4D907F0F2DF70FB
:101F2000D06A5CC0811525E5920700F5811534E57E
:101F3000930708F08BC0811543E5940708F073C040
:101F4000C11582E5D80708F469C0CE0183709927CE
:101F500021E030E002C0220F331F8A95E2F7C695D8
:101F6000C69580E2C89FE001112454C0C11599E5CF
:101F7000D907A8F4C11528E5D20708F06CC0C1152F
:101F800036E5D30708F0A9CF8C2F0E94DA10C82FAE
:101F9000D0E0DC2FCC27CC27DF71D0621FC0C11569
:101FA0004AE5D40708F45CC0CE01905681159042F2
:101FB00008F093CF8D2F8F710E94DA1090E0982F48
:101FC000882788279F719C012C2BE901E6CFC55AF1
:101FD000D0E0CB57DE4FC881D0E0D064CE01DF9196
:101FE000CF910895E4E096958795EA95E1F783709F
:101FF0002C2F26952695237040E2249F90011124D2
:10200000382B8C2F8370C1E0D0E002C0CC0FDD1FD5
:102010008A95E2F7C22BD32BDC68E0CFDC2FCC27EC
:10202000C16FD06ADBCF8370992721E030E002C016
:10203000220F331F8A95E2F7C695C69590E2C99F95
:10204000E0011124C22BD32BDA68C8CFD82FCC27BC
:10205000C46FD06AC3CFDC2FCC27C06FD06ABECF8D
:102060008C2F8F700E94DA1034E0D695C7953A9580
:10207000E1F7CF709C2FEC01D069B0CF0E94C81B54
:102080000E94460F089582389105B1F1B0F4813372
:10209000910509F475C048F48932910509F469C0C5
:1020A0008A32910509F473C008958533910509F4C6
:1020B00059C08933910501F10895833E9105A9F135
:1020C00038F4803E9105F9F0823E910549F108957A
:1020D000863E9105A9F1873E9105C9F1843E91059F
:1020E00019F52091E20321FF1FC08091E10384FDD7
:1020F00014C087EE90E008952091E1032370A1F0D1
:1021000080EE90E008952091E10320FD47C03091DA
:10211000E20330FF09C024FF44C090E080E004C027
:102120002091E10322FDF7CF08952091E10322FDE4
:102130003BC03091E20330FDE3CF24FFF5CFEDCF7C
:102140002091E10323FFF0CF24FDE7CFD2CF2091F0
:10215000E10323FD2CC03091E20331FFEECF84EE8A
:1021600090E008952091E10325FFDECF89E290E021
:1021700008952091E10325FFD7CF85E390E00895EE
:102180002091E10326FFD0CF8AE290E008952091CC
:10219000E10326FFC9CF81E390E0089589E390E051
:1021A000089583EE90E0089582EE90E0089586EE23
:1021B00090E008959091E10392FF06C0282F2871C6
:1021C0002830F9F4877F846093FF06C0282F287198
:1021D0002831F1F4877E84612091E20320FF06C05C
:1021E000382F38713830D9F4877F816021FF06C0DD
:1021F000282F28712831D1F4877E816194FD877E54
:102200000895282F24712430F9F68B7F8860DCCF65
:10221000282F2471243101F78B7E8861DDCF382F80
:102220003171313019F78E7F8860E0CF282F21710E
:10223000213121F78E7E8861E1CF80E008950E94F0
:10224000CC0D08950E94F6112FEF89EF90E02150F8
:1022500080409040E1F700C000000E94F61180E04D
:102260000E945F1180FF04C00E941F110E945E2522
:1022700008950E94221108950E94D30D811102C079
:102280000E94800E0E94DF0D809339020E94E90DAA
:102290009093E2038093E1030E9439110E94E40DC0
:1022A0000E947A088091AA010E94920808950895D8
:1022B0000E945711089508950E945B110895E82F18
:1022C000F0E0EE0FFF1FEB51FC4F808191810895EC
:1022D000089580EA8A95F1F7089500C008950E9454
:1022E00069110895F894E82FE295EF70F0E031A1BC
:1022F000282F2F7081E090E001C0880F2A95EAF71F
:10230000982F9095932391A392A1892B82A37894DF
:102310000895CF93DF9380E30E947211C8E8D1E063
:1023200089918F3F11F00E94721181E0C139D80765
:10233000B9F7DF91CF910895EF92FF920F931F931A
:10234000CF937C01C62FF894209A289878940E9405
:102350006D11E8E8F1E041E050E010E000E081912B
:102360008F3F81F0A82FA295AF70B0E090962C918E
:1023700030E08F7002C0359527958A95E2F7CA0143
:1023800020FF02C090E080E0082B192B440F551F5E
:1023900081E0E139F80719F780E30E94721161E0EA
:1023A0000115110509F460E08C2F0E946F118C2F2C
:1023B00090E0880F991F8E0D9F1DFC0111830083F3
:1023C000CF911F910F91FF90EF9008950E94891176
:1023D0001092E6031092E5031092E4031092E303D7
:1023E00081E00E9427120E941D030895A2E0B0E040
:1023F000ECEFF1E10C94312D1A82198260E0CE01EC
:1024000001960E949C1142E050E0BE016F5F7F4F39
:1024100083EE93E00E94762D11E0009709F410E01E
:10242000892B31F089819A819093E4038093E303AF
:10243000212F41E065EE73E083EE93E00E942812C5
:102440000E942003812F2296E3E00C944D2D0895E5
:10245000FF920F931F93CF93DF93F82E092F162F20
:10246000D72FC42F222349F081E080933C020E94A1
:10247000F72490933B0280933A0280913C02882398
:10248000A1F080913A0290913B020E940F250A9799
:1024900060F0EF2DF02FA12FBD2F90E080E0D0E075
:1024A0008C179D073CF010923C02CDB7DEB7E5E0FB
:1024B0000C944B2D219131912D933D930196F0CFAA
:1024C0000E945A270E94C10E0E94672708950E9409
:1024D0006C270E943D0F0E94862708950E94902439
:1024E0000E9440270E94A50E0E9460120E9467125F
:1024F0000E94B70EFBCF8091430280FF0DC0609118
:10250000070170E0660F771F6038710570F561157F
:10251000710569F1862F089581FF07C06091070159
:1025200084E0689FB0011124EFCF6091070182FD24
:102530000AC0809142028823A9F02091060160918F
:102540000701821710F088E0ECCF869FC0011124AC
:1025500033E0880F991F3A95E1F7622F70E00E94EF
:10256000012DD2CF68E070E0D5CF8FE7089581E0EC
:1025700008958091430280FF0CC06091030170E0D8
:1025800075956795759567956115710549F1862F64
:10259000089581FF06C06091030170E0759567950D
:1025A000F3CF6091030182FD0BC09091410299230A
:1025B000A1F06091020180910301961738F0682F15
:1025C00070E06038710500F38FE70895899FC001BE
:1025D000112470E00E94012DF4CF61E070E0D7CFAC
:1025E00081E00895803F31F40E947B1281958093B1
:1025F00047020895813F19F40E947B12F8CF823F71
:1026000031F40E947B128195809346020895833FA6
:1026100019F40E947B12F8CF893F29F40E94B91265
:102620008093480208958A3F21F40E94B91281954F
:10263000F7CF8B3F31F40E94B91281958093490204
:1026400008958C3F19F40E94B912F8CF843F31F4F9
:10265000809145028160809345020895853F21F471
:10266000809145028260F7CF863F21F48091450238
:102670008460F1CF873F21F4809145028860EBCFE1
:10268000883F21F4809145028061E5CF8D3F31F490
:102690008091430281608093430208958E3F21F42C
:1026A000809143028260F7CF8F3FB9F78091430258
:1026B0008460F1CF90914602803F59F480914702A7
:1026C00087FF0DC01092470291110BC01092420279
:1026D00008C0813F81F48091470218169CF399232A
:1026E00081F08091480290914902892B09F064C0E1
:1026F000109241020895823F49F497FFF0CF109263
:102700004602809147028111ECCFE0CF833F19F45C
:102710001916ACF3E4CF20914802893F29F4121630
:10272000F4F610924802DBCF8A3F19F427FFD7CF87
:10273000F8CF209149028B3F29F427FFD0CF109288
:102740004902CDCF8C3F19F41216CCF3C8CF843F89
:1027500031F4809145028E7F80934502C0CF853F42
:1027600021F4809145028D7FF7CF863F21F480913F
:1027700045028B7FF1CF873F21F480914502877F0F
:10278000EBCF883F21F4809145028F7EE5CF8D3FCE
:1027900031F4809143028E7F80934302A0CF8E3F1D
:1027A00021F4809143028D7FF7CF8F3F09F097CFBF
:1027B000809143028B7FF0CF08950E94F7249C0103
:1027C0009091460280914702982B21F0309340026D
:1027D00020933F029091480280914902982B21F06A
:1027E00030933E0220933D0284E492E00E94512304
:1027F000089586E0E4E4F2E0DF011D928A95E9F7AE
:102800001092420210924102109243020895FC017C
:10281000828181110EC0838181110BC0848181115D
:1028200008C091E08581811101C090E0892F8170FD
:10283000089581E0FCCFA6E0B0E0E1E2F4E10C9481
:10284000312D86E0E4E4F2E0DE01119601900D9274
:102850008A95E1F7109246021092470210924802C0
:10286000109249028B819C81892B89F080913F02D3
:10287000909140020E940F25AC0190914202992351
:10288000C9F1809108018417150608F440C08D81B4
:102890009E81892B91F080913D0290913E020E9491
:1028A0000F25AC0190914102992309F471C08091E8
:1028B00004018417150608F479C0BE016F5F7F4FCD
:1028C00084E492E00E944D24811105C084E492E0EA
:1028D0000E94071481110E94DD1386E0FE013196EB
:1028E000A4E4B2E001900D928A95E1F72696E3E028
:1028F0000C944D2D209109018AE0289F900111240C
:102900002417350720F69F5F9093420202C09F3F35
:10291000D1F71B81112359F00E947B129FEF1116F2
:102920000CF491E0899F802D1124809346021C8134
:10293000112359F00E947B129FEF11160CF491E0C5
:10294000899F802D112480934702309146023323C2
:1029500009F49DCF20914702222309F498CF45EB3B
:102960003403C0011124992359F09093460245EB9A
:10297000240390011124332339F03093470287CF89
:1029800081E080934602F3CF81E0809347027FCFBE
:10299000209105018AE0289F900111242417350712
:1029A00008F08BCF9F5F9093410202C09F3FD1F709
:1029B0001D81112359F00E94B9129FEF11160CF4DA
:1029C00091E0899F802D1124809348021E8111235C
:1029D00059F00E94B9129FEF11160CF491E0899FF3
:1029E000802D11248093490230914802332309F449
:1029F00064CF20914902222309F45FCF45EB3403D1
:102A0000C0011124992359F09093480245EB240307
:102A100090011124332339F0309349024ECF81E0E5
:102A200080934802F3CF81E08093490246CF83E24E
:102A300090E00E949A2D853C89F484E290E00E9407
:102A40009A2D853C59F485E290E00E949A2D91E000
:102A5000833B09F090E0892F8170089580E0FCCFDE
:102A6000CF93DF93D82FCFEF8111C5EC6C2F83E28A
:102A700090E00E94A82D6C2F84E290E00E94A82D87
:102A80006FEFD11163EB85E290E00E94A82DDF91FA
:102A9000CF910895089586E290E00E949A2D682FC4
:102AA00070E090E080E008950895CF93C62F0E94D3
:102AB00054156C2F86E290E00E94A82DCF910895C6
:102AC00080E00E94301560E070E0CB010E94551557
:102AD0000E94FD1A0E94341C81E00E943015089566
:102AE0000E944A150E944B150E9454150E9417150A
:102AF000811102C00E9460150895CF93FB01C2812D
:102B0000CC2309F19C0122513F452031310520F5AC
:102B100082510E94441CC0E08C2FCF91089581E027
:102B20000E94A90843E062E081E00E941303F3CF12
:102B300081E00E94B50843E062E081E00E94130357
:102B4000EBCF82E0F6CF8031FFE59F0789F381313B
:102B50009F45B9F3C1E0E0CF8031EFE59E07F9F280
:102B600081319F45C9F682E0DBCF2FEFFC01208346
:102B700008951F93CF93DF93EC01162F8881209146
:102B8000990330919A03232B79F08E3F09F057C0B7
:102B90008981833020F08550833008F050C0612F48
:102BA000CE010E9486174BC08C3009F499C0D0F436
:102BB000843009F47CC060F4823009F448C008F025
:102BC00069C08130C9F1612FCE010E94B51537C0AF
:102BD000863009F482C008F475C08A30A0F78FEF00
:102BE00088832DC0803109F498C0D8F48E3009F460
:102BF00083C008F479C080910C0190910D01892B5C
:102C0000F1F06B8170E06D317105C8F489819A81B2
:102C1000AE014C5F5F4F9827892798270E940F1CB1
:102C20000EC0823109F47FC008F47AC0833109F400
:102C30008BC08E3F41F6B3CF198289E08A83612F22
:102C4000CE010E941326DF91CF911F9108958981B3
:102C5000823071F0833079F0813009F0B4CF0E9476
:102C600003250E941B2D6A837B838C839D83E7CF82
:102C70000E944B15F6CF80910C0190910D01892B8C
:102C8000F1F280E00E945F119827892798279B83A3
:102C90008A83D5CF8981823009F095CF6A817B8183
:102CA0008C819D810E941B2D0E945515C8CF4B81A0
:102CB0006A8189810E94621A9827892798279D83B3
:102CC0008C83BDCF2C813D813227232732274B8136
:102CD0006A8189810E948C1AB2CF0E94FD1AAFCFFF
:102CE0000E94E51B8983ABCF0E94E71B98278927A9
:102CF00098279A838983A3CF6B8170E06D3171052A
:102D000008F09DCF89819A81AE014C5F5F4F982773
:102D1000892798270E94EA1B92CF0E94341C8FCFEC
:102D20000E94601ADFCF6B8170E06D31710508F091
:102D300086CF89819A81AE014C5F5F4F98278927A2
:102D400098270E94791B7BCF6B8170E06D317105F4
:102D500008F075CF89819A81AE014C5F5F4F98274B
:102D6000892798270E949C1B6ACF81152CE5920722
:102D700041F420910C0130910D01232B11F490E0CE
:102D800080E00895AAE0B0E0E8ECF6E10C94282D8C
:102D900005ED12E0F12CE12C8AEEC82E89E1D82E47
:102DA00091E7A92E99E1B92E28E1822E29E1922EF0
:102DB000F801D182C082B382A28295828482F58A90
:102DC000E48ABE016F5F7F4F8E2D0E94AD1A892B62
:102DD00029F489859A85F801938B828BFFEFEF1A8E
:102DE000FF0A0A5E1F4F88E0E816F10409F72A96E9
:102DF000ECE00C94442DAAE0B0E0E1E0F7E10C94A3
:102E0000292D0CE512E08AE4C82E82E0D82EF12CA0
:102E100097E0E92E9924939424EDA22E22E0B22E7D
:102E2000D6010D931D936D01BE016F5F7F4F8F2DF6
:102E30000E94D51A892B09F056C0F8013896DF0197
:102E40008E2D1D928A95E9F789819A81D801119674
:102E50009C938E938F8112968C9312978D811396EB
:102E60008C931397888514968C931497898515965F
:102E70008C9315978B819C8117969C938E931697B4
:102E800018961C9218978A8587FF37C01E961C9249
:102E90001E921D9780FF03C0D80118969C9281FF57
:102EA00004C0F80190859260908782FF07C0D80126
:102EB00018969C911897946018969C9383FF04C071
:102EC000F80190859860908784FF07C0D801189614
:102ED0009C911897906118969C9385FF04C0F80107
:102EE000808580628087015F1F4FF394F8E0FF12B6
:102EF00097CF2A96EBE00C94452DF801B686A5866F
:102F0000C9CF0E94C2160E94FB160895CF92DF928D
:102F1000FF920F931F93CF93DF93CDB7DEB72A971E
:102F20000FB6F894DEBF0FBECDBF8C01603269F5DD
:102F3000DC011196EC911197EE3038F5F0E0EE508F
:102F4000F24D0C94152D88E0EEE1F1E0DE011196D2
:102F500001900D928A95E1F780E2F80111928A952D
:102F6000E9F785E0D8018C9311961C92119712967F
:102F70001C92129713961C92139788E0FE013196CB
:102F8000149601900D928A95E1F72A960FB6F8945F
:102F9000DEBF0FBECDBFDF91CF911F910F91FF908C
:102FA000DF90CF9008958CEDF8018083118212821A
:102FB0001382EBCF13968C911397682F70E0762FC6
:102FC000662712968C91860F972F911D092E000C63
:102FD000AA0BBB0B45E0880F991FAA1FBB1F4A9580
:102FE000D1F7AC01BD01405E5F4F6F4F7F4F481777
:102FF00059076A077B0748F28C3D9105A105B10589
:1030000020F64D3D51056105710520F04CED50E075
:1030100060E070E0481B590BBC0160587E4FC8014E
:103020000E946D2DB2CF40E250E06FEF70E00E9441
:10303000832D80910C01F801808380919903818315
:10304000A4CF81E090E090939A038093990382E368
:1030500090E090939803809397030E94F72495CF74
:1030600080910C018C938091990311968C93119708
:103070008091970312968C9388CF40E250E06FEFD7
:1030800070E00E94832D81CFFC018281823009F49F
:1030900047C0E0F48823D9F1813009F076CF139648
:1030A0008C912AE0F22EFE0131966F01DF01EF2DA7
:1030B0001D92EA95E9F7B6010E94AD1AD8018D93E9
:1030C000F60101900D92FA94E1F75FCF853009F493
:1030D00054C0863009F059CF1396FC908AE034969C
:1030E000DE01119601900D928A95E1F78B819C810A
:1030F0000E94B5169C838B83BE016F5F7F4F8F2D1F
:103100000E94E91AF80180830E94FB163ECF80E2FC
:103110001D928A95E9F788E080831182828335CFFA
:103120001396FC908AE03496DE01119601900D9280
:103130008A95E1F789819A810E94B5169A838983DD
:103140008B819C810E94B5169C838B838D819E818F
:103150000E94B5169E838D838F8198850E94B51637
:1031600098878F83BE016F5F7F4F8F2D0E94C11A9A
:10317000F80180830E94C21608CF13968C919AE0C2
:10318000F92EFE0131966F01DF01EF2D1D92EA95B8
:10319000E9F7B6010E94D51A91CFA5E0B0E0E3EDC2
:1031A000F8E10C94322D9093E8038093E7038115A6
:1031B00020E2920730F40E947B022596E2E00C9414
:1031C0004E2D80EF89838A8381E08B830E94F724D0
:1031D0008160782F9D838C8349815A816B818D8199
:1031E0000E94AC04EACFA5E0B0E0E9EFF8E10C946E
:1031F000322D9093E8038093E703811520E2920734
:1032000030F40E9491022596E2E00C944E2D80EF5E
:1032100089838A831B820E94F7248160782F9D8393
:103220008C8349815A816B818D810E94AC04EBCFE4
:103230000F931F93CF93DF938C01EB0165E873E04D
:103240008C2F0E94AD1A892B71F4DD27C157DC4FFA
:103250008881F801108218828330F1F048F48130BF
:1032600059F0823081F0DF91CF911F910F91089535
:103270008430B9F08530B9F7809185039091860349
:10328000009789F306C08091870390918803009787
:1032900099F30E94F318E7CF8091890390918A03F4
:1032A000F6CF80918B0390918C03009791F720913A
:1032B00085033091860380918703909188032115BF
:1032C0003105F1F2009729F7C901E3CFCF93DF93DE
:1032D000EC010E94CD18CE010E94F318DF91CF912E
:1032E00008950F931F93CF93DF938C01EB0165E853
:1032F00073E08C2F0E94AD1A892B09F061C0FE018A
:10330000FF27D8018C91E157FC4F8130D9F41996F1
:103310009C911997992311F080830CC01A969C9167
:103320009923D1F382E08083809187039091880371
:103330000097D9F48091850390918603009709F452
:103340003FC013C08230D1F519968C911997811125
:103350002AC01A968C9181110BC083E080838091E2
:10336000890390918A03009701F10E94CD1828C02B
:1033700084E0808380918B0390918C030097A9F760
:1033800080918503909186030097F9F00E94661959
:103390008091870390918803009739F78091850386
:1033A00090918603E2CF85E08083809185039091A0
:1033B0008603009729F00E946619F0CF86E080838B
:1033C000DF91CF911F910F91089580918703909184
:1033D0008803B4CF0F931F93CF93DF938C01862F75
:1033E00065E873E00E94AD1A892BB1F4C0918503A2
:1033F000D0918603209781F0F8018081833051F4C9
:10340000CE010E946619CE010E946619CE010E946B
:10341000661902C08430D0F7DF91CF911F910F91D0
:103420000895CF93DF93FB012281211130C0EC017D
:10343000D755CF3FD10509F050F565E873E08C2FE3
:103440000E94AD1A892B19F586E18C9FF0018D9FA2
:10345000F00D1124EB52FD4F86818130E1F4809113
:10346000850390918603892B91F080918703909139
:103470008803892B61F08091890390918A032091C0
:103480008B0330918C03822B932B892B61F081E08D
:10349000DF91CF9108958230D1F780918903909187
:1034A0008A03892BA1F326E12C9FC0012D9F900D4B
:1034B00011248B529D4FFC01108A0E94DE21E7CF20
:1034C00082E008950F931F93CF93DF93823008F526
:1034D00061111FC04930E8F4042F10E0000F111FE4
:1034E00022E1829F000D111D1124C80187960E94C0
:1034F0009A2DC82FD0E0DC2FCC27C80188960E94D7
:103500009A2D9E01282BC901DF91CF911F910F9118
:10351000089590E080E0F8CF1F93CF93DF93122FB0
:103520008230B8F4611115C0493098F4C42FD0E04E
:10353000CC0FDD1F92E1899FC00DD11D1124632F97
:10354000CE0187960E94A82D612FCE0188960E94F9
:10355000A82DDF91CF911F9108959B01883070F4C1
:103560009AE0899FB0011124655B7F4F4AE050E0EB
:10357000C9010E948A2D90E080E008958FEF9FEFAF
:1035800008959B01883070F49AE0899FB00111245E
:10359000655B7F4F4AE050E0C9010E94CC2D90E06E
:1035A00080E008958FEF9FEF08959B01883070F4BD
:1035B0009AE0899FB001112465567F4F4AE050E0A0
:1035C000C9010E948A2D90E080E008958FEF9FEF5F
:1035D00008959B01883070F49AE0899FB00111240E
:1035E00065567F4F4AE050E0C9010E94CC2D90E023
:1035F00080E008958FEF9FEF0895CF92DF92EF92D2
:10360000FF921F93CF93DF93CDB7DEB764970FB6CA
:10361000F894DEBF0FBECDBFC0900C01D0900D015D
:1036200081E090E090930D0180930C019CEAE92EDB
:1036300090E0F92E10E0F70125913491412F60E0E0
:1036400080E00E948C1A82E0E80EF11C1F5F1930A6
:1036500091F78EEBE82E80E0F82E10E0F70125912F
:103660003491412F60E081E00E948C1A92E0E90ED3
:10367000F11C1F5F193091F71C861B861E861D8664
:10368000188A1F861A8A198A88EC90E09C8B8B8B8B
:1036900010E0BE01655F7F4F812F0E94C11A1F5F3E
:1036A0001830B9F7FE0131967F018AE011928A95B0
:1036B000E9F78FEF9FEF9E838D8387E08A8710E085
:1036C000B701812F0E94E91A1F5F1830C9F7D09205
:1036D0000D01C0920C0164960FB6F894DEBF0FBEC8
:1036E000CDBFDF91CF911F91FF90EF90DF90CF90F2
:1036F0000895EF92FF920F931F93CF93DF93EC0106
:103700008A017C01E60EF71ECE018796CE15DF05F5
:1037100029F4CDB7DEB7E6E00C944A2DC432D105CA
:1037200040F40E949A2DF80180830F5F1F4F21966D
:10373000EBCFF8011082F9CFB0E0A0E0E2EAFBE1C4
:103740000C942C2D8C016A01849780F484E290E023
:10375000801B910B8617970748F07801E60EF71E3D
:10376000E801CE018796CE15DF0529F4CDB7DEB787
:10377000E8E00C94482DC432D10540F4FE01E01B72
:10378000F10BEC0DFD1D60810E94A82D2196E9CF63
:10379000462F2091990330919A03232B99F4703F7F
:1037A00039F4603F79F48091E7039091E80308953C
:1037B000823040F4711106C0693020F460E00E944C
:1037C000621A089590E080E0089580E1089585E10F
:1037D00093E00895EF92FF920F931F93CF93DF939F
:1037E000EC018A017C01E60EF71ECE0185519F4F48
:1037F000CE15DF0529F4CDB7DEB7E6E00C944A2DEF
:10380000C53123E0D20740F40E949A2DF80180834D
:103810000F5F1F4F2196E9CFF8011082F9CFB0E07A
:10382000A0E0E5E1FCE10C942C2D7C016A018C0107
:10383000060F171FEC01CE0185519F4FC017D1070E
:1038400029F4CDB7DEB7E8E00C94482DC53123E06C
:10385000D20740F4FE01EE19FF09EC0DFD1D608159
:103860000E94A82D2196E7CFCF93DF93CBEED0E037
:1038700060E0CE010E94A82D2196C11584E0D807F2
:10388000B9F7DF91CF910895A4E0B0E0EAE4FCE15C
:103890000C942B2DF82E2FE0281708F4A4C08FEFDE
:1038A00093E00E949A2D81119EC00BEE10E0F11062
:1038B00036C019821A821B821C82BB24BA947801FA
:1038C0005FEFE51AF50AC8010E949A2D89831A82D2
:1038D000882309F488C0813009F07FC0680182E044
:1038E000C80ED11CC7010E949A2DE82E8A83882316
:1038F00009F479C0C6010E949A2DF82E8FEF8E0D23
:103900008330D8F46801E3E0CE0ED11CFB82FF20A7
:1039100021F0CE0101960E9481048601D0CF0115CD
:1039200044E0140709F45FC0C8010E949A2D811178
:1039300001C0FA940F5F1F4FBACF8BEF8E0D83300B
:1039400030F5C8010396FB826C01FF2031F368015A
:10395000F4E0CF0ED11C0E949A2D8C838823E9F2CB
:103960008B819C8181302FEF920710F0982F882750
:1039700046E0E41631F057E0E51631F00E94661992
:10398000CCCF0E94CD18C9CF0E94F318C6CF84E0D7
:10399000E812C3CF6801E4E0CE0ED11CC801039643
:1039A0000E949A2DFF20F9F08823E9F08150990BAD
:1039B000B89E9001B99E300D11244F2D4150550BEA
:1039C000CA01820F931F019708F4A7CFEFE9FFE028
:1039D0003197F1F700C00000F6CFCE0101960E94AA
:1039E000810467019ACF2496E9E00C94472DCF9388
:1039F000DF93EC01FB018281882309F433C1C330DA
:103A0000FDE5DF07C0F5CA3F9CE5D90730F49E010C
:103A100022503C4524313105B0F50E94E90D9093C8
:103A2000E2038093E103C1318CE5D80709F4EEC0CD
:103A300008F069C0C930ECE5DE0709F4D5C0C8F567
:103A4000C5308CE5D80709F4C7C000F5C330ECE5F4
:103A5000DE0709F4B9C008F0BBC0C230DC4509F488
:103A6000ADC08091E1039091E2030E94F70D0E94A6
:103A7000320880E008C0C136EDE5DE0771F2C53AD4
:103A8000FDE5DF0751F2DF91CF9108958091E103C9
:103A90008062C7309CE5D90709F493C08091E103A7
:103AA0008061C830DC4508F48CC08091E1038064FB
:103AB00088C08091E1038B7FCD30FCE5DF0709F4FE
:103AC00080C098F48091E1038E7FCB309CE5D907CC
:103AD00009F477C08091E1038C60CC30DC4508F4B8
:103AE00070C08091E1038D7F6CC08091E1038F7E77
:103AF000CF30FCE5DF0709F464C008F47BC0809197
:103B0000E1038F7D5EC0CD3F9CE5D90709F47AC003
:103B100050F5C531FCE5DF0709F486C098F48091C3
:103B2000E103837FC3319CE5D90709F44AC008F457
:103B300071C00E9432089091E103892F97FB87F9A9
:103B400080583FC0CB3FFCE5DF0709F449C008F0CF
:103B500055C08091E2038160CA3FDC4509F081CF06
:103B60008093E2037ECFC130EDE5DE0709F468C043
:103B7000A8F4CF3F8CE5D80709F452C08091E20346
:103B80008360C115DD4560F38091E203982F909525
:103B900091708E7F892B90FB81F9E2CFC136EDE5E4
:103BA000DE0709F451C0C53AFDE5DF0709F453C04B
:103BB000C230DD4509F055CF80E043C08091E1037C
:103BC00081608093E1034DCF8091E1038260F9CF62
:103BD0008091E1038460F5CF8091E1038860F1CFAB
:103BE0008091E2038260BCCF0E9432088091E103A1
:103BF0008068E7CF8091E103877FE3CF8091E20384
:103C00008E7FAECF8091E2038D7FAACF8091E103BA
:103C10008F7BD7CF0E9432088091E1038F77D1CF7D
:103C20008091E2038C7F9CCF8091E10382FB9927F6
:103C300090F921E0922790FB82F990FB83F9C1CFA4
:103C400081E00E94830E0DCF9091E103892F8F7E3A
:103C500094FF8061B6CF9091E103892F8E7F90FF12
:103C60008160AFCF81E00FCFCF93DF93EB0186313F
:103C70009C4511F50E94960C9A81992399F08A7AB5
:103C800091E009F490E090939B03811109C089E2CF
:103C90000E94460C0E94010D80E0DF91CF910895B3
:103CA00085E3F6CF80919B03811104C089E20E94D5
:103CB0004E0CF0CF85E3FBCF81E0EFCFFC01848198
:103CC000862351F492819923B9F06923808583FF7B
:103CD00005C081E061110FC080E00895892F8F70C9
:103CE00092959F70982B862F8F7062956F70682BBE
:103CF00081E09613F1CF089581E0FDCFCF93DF935C
:103D0000EC016091A6037091A7038091A8039091A4
:103D1000A9030E941E25643F71408105910518F595
:103D20008091A6039091A703A091A803B091A90345
:103D30008093A2039093A303A093A403B093A5033D
:103D400084EF91E0A0E0B0E080939E0390939F0306
:103D5000A093A003B093A103D0939D03C0939C03B1
:103D6000DF91CF9108950E9403256093A203709381
:103D7000A3038093A4039093A50382E390E0A0E0C3
:103D8000B0E0E2CFFF920F931F93CF93DF93F82E13
:103D90000091AD031091AE030115110509F44DC05A
:103DA00010929D0310929C030E94C50C0E94BF0CB0
:103DB0000091AD031091AE03D8011696CD91DC9120
:103DC0009E013A9521153F4108F4D07ED1E0C11102
:103DD00001C0D0E0D8011996ED91FC911A97309767
:103DE00031F01B966D917C9180E00995D823DD23FD
:103DF00039F08CEF8C0F813A30F58C2F0E944E0CED
:103E0000FF2099F0E091AD03F091AE03808584FD31
:103E10000CC08091AC03882341F0808191819C018A
:103E2000215031092C3A3D45A0F00E94010D10921D
:103E3000AE031092AD031092AC03C801CDB7DEB74C
:103E4000E5E00C944B2D0E94010D8C2F0E94430540
:103E5000D7CF0E947E1EE9CF10920E0180E00E9413
:103E6000C21E089580910E01882319F00E942C1F14
:103E7000089581E080930E0108950F931F93809120
:103E80009C0390919D03892B89F16091A20370910D
:103E9000A3038091A4039091A5030E941E25009185
:103EA0009E0310919F032091A0033091A1036017FE
:103EB000710782079307D0F080919C0390919D0336
:103EC0000E947B0210929D0310929C031092A20309
:103ED0001092A3031092A4031092A50310929E03C4
:103EE00010929F031092A0031092A1031F910F91B3
:103EF0000895A4E0B0E0EFE7FFE10C94222D8C01DF
:103F00007A836983DB0112965C905520B1F08F357E
:103F1000BDE59B0759F08036EDE59E0759F08E35DB
:103F20009D4559F40E94321F312C0DC081E08093D1
:103F30000E01FACF0E942C1FF7CF30900E013110E6
:103F400007C033243394832D2496E2E10C943E2D54
:103F5000680120EEC21AD1080E94960CF82E0E9429
:103F60005D0C482E0E94C80C482A4F2838E0C31622
:103F7000D10408F094C098012770332781E090E0C5
:103F800001C0880F2A95EAF7552009F485C0482A10
:103F9000A981BA818D919C910E94420980900A0169
:103FA00090900B018114910409F4E1C021E030E00C
:103FB000390102C0660C771C8A95E2F7E091AD03E7
:103FC000F091AE03FA83E983A090AA03B090AB030B
:103FD000212CE22DF0E0EE0FFF1FE80DF91D2081EE
:103FE00031813C832B832115310509F4C0C0411078
:103FF00005C0D90112968C9181118BC0EB81FC8197
:10400000838190E086219721892B09F482C08085E5
:10401000982F977009F487E0F8E0CF16D10408F0E4
:1040200058C0552009F451C086958170882309F441
:1040300070C0AB81BC81ED90FC900E151F0519F48A
:10404000552009F466C0EB81FC8129813A81E21791
:10405000F30709F45EC00584F685E02D309721F062
:104060008081882309F455C0642D8B819C810E9436
:104070005E1E882309F44DC00E151F0509F08BC084
:104080000115110509F48CC051108CC0EA14FB0411
:1040900009F03FC0512C86C08095482279CF552029
:1040A00009F44EC01093AB030093AA030E940325AA
:1040B0006093A6037093A7038093A8039093A9032A
:1040C00010929D0310929C0363CF82FB882780F996
:1040D000ADCF5520F1F08170A9CF0E94430583C078
:1040E0000497813A910548F4802F0E94460C552090
:1040F00009F427CF0E94010D17CF0E94010D8FE315
:104100009CE90197F1F700C00000802F0E94F7049E
:10411000EECF23945ECFFC0120813181201731073F
:1041200031F4511007C01092AC0380E031C055202B
:1041300009F407CFDC0118968C9185FD02CFF5CFED
:104140008091AA039091AB038017910781F410929C
:10415000AB031092AA031092A6031092A703109229
:10416000A8031092A90310929D0310929C038091C2
:10417000AD039091AE03009709F4E3CEA8E0CA1610
:10418000D10448F6642D0E945E1E8111DACE81E0D2
:104190000E94C21ED8CEE114F10409F077CF512C51
:1041A000F12CE12C80E00E94C21EEB81FC81F09397
:1041B000AE03E093AD0381E08093AC0385810E9460
:1041C000C20C511010C0E114F10469F0AB81BC8144
:1041D0008D919C919C0124503109213A310508F0C0
:1041E0007CCF0E944E0CEB81FC8106811781C801B7
:1041F0009A9581159F4108F4107EFF24F394C8011D
:1042000001978C3A9D4508F0F12CAB81BC81199641
:10421000ED91FC911A97309731F01B966D917C913E
:1042200081E00995F822FF2081F0EB81FC818681F5
:1042300097810E9440020E94BC0CC801F8E0CF1692
:10424000D10408F04DCF0E947E1E0E94010D4FCF79
:104250000F931F93CF93DF93C42FD22FFC01828142
:104260008823C9F04093B1030E94F7249093B003D0
:104270008093AF0380E28C0F883040F4C77081E0F8
:1042800001C0880FCA95EAF70E949605DF91CF9189
:104290001F910F9108951091B103141332C08091B2
:1042A000AF039091B0030E940F25883C910548F51B
:1042B000C0E2CD0F1D17B9F080E2810F883040F4C5
:1042C000177081E001C0880F1A95EAF70E949D05DA
:1042D000C83048F481E09D2F977001C0880F9A95EF
:1042E000EAF70E949605802F0E948D05C83070F66F
:1042F000D77081E001C0880FDA95EAF70E949D052A
:10430000C5CF80E28C0F883008F6C77081E001C00D
:10431000880FCA95EAF7F2CF0F939C01CB01233F98
:104320004CE5340759F1A8F4283DFCE53F0701F1BD
:10433000293D4CE53407D1F1273D3C4591F406E297
:1043400021EE41EE67ED7CE50E94282180E00F918F
:104350000895253FFCE53F07E9F0B0F0263F3C45D6
:10436000F9F0FC018281882339F11092B103EFCF7B
:1043700007E225EE45EE68ED7CE5E6CF06E221EEAC
:1043800040EE63EF7CE5E0CF07E225EE44EE64EF1C
:104390007CE5DACF06E221EE42EE65EF7CE5D4CF94
:1043A00007E225EE46EE66EF7CE5CECF08E221E09F
:1043B00045EE69ED7CE5C8CF81E0C9CFCF93DF93AF
:1043C000EC018989811113C081E0898B8F810E9462
:1043D000990C88850E94AC0C0E94010DEA81FB813A
:1043E000309729F06C897D89CE0106960995DF9179
:1043F000CF910895EF92FF920F931F93CF93DF9386
:10440000EC018A85811134C0EB80FC8087E5F81AC5
:1044100026E12E9DC0012F9D900D1124DC01AB5291
:10442000BD4F1496ED91FC911597309731F054964D
:104430006D917C9185529D4F099586E18E9D8001FD
:104440008F9D100D11240B521D4FF80187810E9482
:104450009F0CF80180850E94B20C0E94010D188209
:1044600019861B861E821D821092B3031092B2031E
:10447000CDB7DEB7E6E00C944A2DB0E0A0E0E3E46F
:10448000F2E20C942D2D7C01FB018281882399F0AE
:1044900080910F0190911001019669F0C5EDD2E075
:1044A00010E000E0DD24D39480910F019091100181
:1044B000801791072CF4CDB7DEB7E7E00C94492DB7
:1044C0008E818823C1F089859A858E159F0539F4E0
:1044D0008091B2039091B3038E159F0561F0DF8642
:1044E000FC86EB86CE010E94DE21CE0106960E945C
:1044F000FA210E94B90C0F5F1F4F6696D5CFEF923D
:10450000FF920F931F93CF93DF937C0197558F3FBB
:10451000910509F0E0F520910F0130911001281765
:10452000390724F49093100180930F01FB0122813D
:1045300036E1389F8001399F100D1124E801CB52DC
:10454000DD4F288B92818E81992339F1FA86E98695
:104550008F5F8E830E94F7249E878D870E94C80CF0
:104560008F830E94960C88870E94A90C9885892BBE
:104570008887E881F981309731F06C897D89C8019D
:1045800085529D4F0995F092B303E092B20381E00A
:10459000CDB7DEB7E6E00C944A2D8823C1F38989B4
:1045A0008823A9F3C80185529D4F0E94FA21EFCFBD
:1045B0000F931F93CF93DF9380910F019091100180
:1045C000C0E0D6E1019691F5DF91CF911F910F9157
:1045D0000895D89FF001D99FF00D1124EB52FD4FA3
:1045E000028913890115110511F408EC10E0D89F18
:1045F000F001D99FF00D1124EB52FD4F86818823E5
:10460000A1F0858596850E940F250817190768F483
:10461000CD9F80011124C8018B529D4F0E94DE2145
:10462000C80185529D4F0E94FA21CF5F8C2F90E0E8
:1046300020910F01309110012817390754F6C4CF8B
:104640009093A1018093A00108959093B903809362
:10465000B8030895E091B803F091B903309729F0B9
:104660000190F081E02D0995089580E00895E09192
:10467000B803F091B903309799F020911D012223DE
:1046800059F02091E10327FF07C0DC012C9111961E
:104690002C93119726E02C930280F381E02D09954D
:1046A0000895E091B803F091B903309739F022E012
:1046B000DC012C930480F581E02D0995089520916B
:1046C000B6033091B7032817390771F09093B703F9
:1046D0008093B603E091B803F091B903309721F0CD
:1046E0000680F781E02D099508952091B40330915B
:1046F000B5032817390771F09093B5038093B4037D
:10470000E091B803F091B903309721F00084F1856E
:10471000E02D09950895FC01329680911D018823B2
:1047200021F08091E1039EE187FF96E080E09150C7
:1047300008F4089521912223D1F38F5FF8CF6623E7
:1047400001F120911D012223F1F02091E10327FFC7
:104750001AC0462F4695469546954E3190F467709F
:1047600021E030E002C0220F331F6A95E2F7840F88
:10477000911DFC01828190E02823392381E0232BC5
:1047800069F480E00895FC0132960896219126177D
:1047900021F0E817F907D1F7F4CF81E008959C01E3
:1047A000FC0132969FEF80E04191461751F09F3F08
:1047B00019F4411101C0982F8F5F8630A9F79F3FF0
:1047C00009F40895290F311D97FD3A95F901628387
:1047D0000895FC01329608962191261303C0DF014B
:1047E00011971C92E817F907B9F70895E62FE69597
:1047F000E695E695EE3168F4E80FF92FF11D677044
:1048000021E030E001C0220F6A95EAF78281822B15
:1048100082830895E62FE695E695E695EE3170F4ED
:10482000E80FF92FF11D677021E030E001C0220F81
:104830006A95EAF7209582812823228308952091A2
:104840001D01222339F02091E10327FF03C00E94BC
:10485000F62308950E94CF23089520911D0122235D
:1048600039F02091E10327FF03C00E940A24089534
:104870000E94E9230895FC01329680911D0188234E
:1048800051F08091E10387FF06C08EE1DF011D92A8
:104890008A95E9F7089586E0F9CF46E050E00E9456
:1048A000762D21E0892B09F420E0822F08950895C8
:1048B0000E9457240895811106C081E08093BA03B5
:1048C0000E945824089582E0F9CF83E08093BA03D0
:1048D0000E94582408950E945B24089581E08093EB
:1048E000BA030E94582408950E946E2408950895E2
:1048F00008950E9478240895089508950E947724C9
:1049000008950E947C240E94F6110E947D2480E07C
:104910000E945F1121E0892B09F420E0822F089585
:1049200085B7806885BF85B7806885BF08951F9269
:104930001FB61F9211248F939F93AF93BF938091C3
:10494000BB03811113C08091E9039091EA03A09108
:10495000EB03B091EC034196A11DB11D8093E903D7
:104960009093EA03A093EB03B093EC03BF91AF9154
:104970009F918F911F901FBE1F9018958091F103FA
:10498000843031F10E94B4031092BB0388E190E0BF
:1049900020E40FB6F894A895809360000FBE209392
:1049A000600083B7817F846083BF83B7816083BFEA
:1049B0007894889583B78E7F83BF0FB6F894A895B7
:1049C00080916000886180936000109260000FBE4B
:1049D00008950E9432080E94B903089582E084BDC0
:1049E00093E095BD9AEF97BD80936E0008952FB721
:1049F000F8948091E9039091EA03A091EB03B091C0
:104A0000EC032FBF08952FB7F8946091E9037091DC
:104A1000EA038091EB039091EC032FBF08959C0172
:104A20004FB7F8948091E9039091EA03A091EB03CA
:104A3000B091EC034FBF821B930B0895CF92DF928E
:104A4000EF92FF922FB7F894C090E903D090EA0359
:104A5000E090EB03F090EC032FBFA7019601261B1B
:104A6000370B480B590BCA01B901FF90EF90DF904B
:104A7000CF90089578941F921FB61F9211248F93A0
:104A80009F93AF93BF938091E9039091EA03A09124
:104A9000EB03B091EC030196A11DB11D8093E903D6
:104AA0009093EA03A093EB03B093EC03BF91AF9113
:104AB0009F918F911F901FBE1F90189587E797E7D2
:104AC000909301088093000888E19AE00FB6F8946B
:104AD000A895809360000FBE90936000FFCF88E19F
:104AE0009AE00FB6F894A895809360000FBE90935B
:104AF0006000FFCF8091DF03089508959C0184E05A
:104B00008093E9009FEF8091E800915085FD06C0F9
:104B100085ED8A95F1F700009111F5CF8091E800BD
:104B200085FF0CC050E040E066E070E0C9010E94E3
:104B30002B288091E8008E778093E8000895CF932A
:104B4000DF93EC0180911D018823B1F18091E10395
:104B500087FF32C060E284E08093E9008FEF90919C
:104B6000E800815095FD06C095ED9A95F1F700009B
:104B70008111F5CF8091E80085FF1BC080911D0158
:104B800070E050E040E0811104C050E040E068E097
:104B900070E0CE010E942B288091E8008E778093F0
:104BA000E80080E2FE01AFEBB3E001900D928A9540
:104BB000E1F7DF91CF91089568E081E0CDCF809358
:104BC000BC037093BE036093BD038091F1038430F6
:104BD000F9F48093E9008FEF9091E800815095FD02
:104BE00006C095ED9A95F1F700008111F5CF8091FF
:104BF000E80085FF0DC050E040E063E070E08CEB22
:104C000093E00E942B288091E8008E778093E80043
:104C10000895BC0184E00E94DF250895BC0183E073
:104C20000E94DF250895CF93FC01603221F5809129
:104C3000F103843001F5C091E900CF702091EC00C0
:104C4000922F917020FD90E8C92B82E08093E900BB
:104C50008091E80080FF0CC050E040E060E270E02E
:104C6000CF010E942B288091E8008E778093E80086
:104C7000CF70C093E900CF9108958091F003811126
:104C800009C00E940A2A0E94672A8091E20084607B
:104C90008093E20008951092F00308950E946E241C
:104CA00008956091ED0381E0611101C080E00E94F0
:104CB000652408959091F10381E0943009F080E03B
:104CC0006091ED030E946B24089542E061EC81E065
:104CD0000E94862942E261EC84E00E94862942E239
:104CE00061EC82E00E94862942E260EC83E00E944F
:104CF00086299091F10381E0943009F080E0609181
:104D0000ED030E945B2408958091F303833009F43E
:104D100063C030F48130E1F1823009F4A0C008951D
:104D20008A3009F48CC08B3009F471C0893009F0E5
:104D300052C08091F203813209F04DC08091F60398
:104D40009091F703009719F0029709F044C0809101
:104D5000E800877F8093E8008091E80082FF37C0F9
:104D60009091F3008091F200029731F48091F1006C
:104D7000813011F0863021F48091F1008093DF03BF
:104D80008091E8008B778093E8000E94BA2923C0C5
:104D90008091F203813AF9F48091E800877F809353
:104DA000E8008091F6039091F703892B61F460E2AB
:104DB0008FEB93E070E00E94C9288091E8008B7728
:104DC0008093E800089560E090E080E0F3CF809168
:104DD000F1038111C1CF08958091F203813AD9F78F
:104DE0008091F6039091F703892BA9F78091E80051
:104DF000877F8093E8008091E80080FFFCCF80915E
:104E00001D018093F1008091E8008E77BCCF8091E6
:104E1000F203813201F78091F6039091F703892B19
:104E2000D1F68091E800877F8093E8000E94BA293C
:104E30008091F40380931D010E94320808958091AF
:104E4000F203813241F68091E800877F8093E80089
:104E50000E94BA298091F5038093E0030895809120
:104E6000F203813A09F0B7CF8091E800877F809301
:104E7000E8008091E80080FFFCCF8091E003C1CF83
:104E800084B7877F84BF0FB6F894A895809160009F
:104E9000886180936000109260000FBE80E890E00F
:104EA0000FB6F89480936100909361000FBE0E944A
:104EB000742408950E940A2A0E94672AE2EEF0E014
:104EC00080818460808378940E94E62C089581E13B
:104ED00091E00E94252308958091F103853031F4FB
:104EE0008091F103853019F00E94E92408950E9411
:104EF000BE248091EF03882399F30E9481248823A4
:104F000079F30E9415280E943208EACFA0E2B0E0AF
:104F1000ECE8F7E20C94322D8091F103843009F52E
:104F200083E08093E9008091E80082FF1AC08091BD
:104F3000E80090E085FF09C050E040E060E270E0EA
:104F4000CE0101960E947A2891E08091E8008B774B
:104F50008093E800992329F060E2CE0101960E9437
:104F6000B915A096E2E00C944E2D0E94B827089542
:104F7000292F33272330310521F168F42130310501
:104F800009F449C02230310509F44AC090E080E0BC
:104F900030E020E029C02132310581F12232310593
:104FA000A9F76330710590F7FB01EE0FFF1FEC5678
:104FB000FE4F208131816F567E4FFB01808190E052
:104FC00013C099278130910599F0009741F0823004
:104FD000910589F00397D1F6ECE5F2E002C0E2EB2F
:104FE000F2E0849190E09F01FA01318320830895DB
:104FF000E2E9F2E0F6CFEAE7F2E0F3CF63307105E1
:1050000028F6660F771FFB01E656FE4F208131819F
:1050100089E090E0E9CF82E190E021E133E0E4CF64
:105020008BE590E026EB32E0DFCF80E189BD82E1C5
:1050300089BD09B400FEFDCF8091D8008F7D80939B
:10504000D8008091E00082608093E0008091E000D1
:1050500081FDFCCF0895AF92BF92CF92DF92FF9275
:105060000F931F93CF93DF936C01EB018A010E9492
:10507000D929F82E811123C00115110539F0F80145
:1050800080819181C81BD90BC80ED91EB12CA12CCF
:105090002097A9F08091E80085FD22C08091E8006A
:1050A0008E778093E80001151105A1F0F801808149
:1050B0009181A80EB91EB182A08285E0F82E8F2DB5
:1050C000DF91CF911F910F91FF90DF90CF90BF9014
:1050D000AF9008950E94D9298823D1F2F82EEFCFFE
:1050E000F60181916F018093F1002197FFEFAF1AD4
:1050F000BF0ACECFAF92BF92CF92DF92FF920F93B3
:105100001F93CF93DF936C01EB018A010E94D92991
:10511000F82E811123C00115110539F0F8018081A5
:105120009181C81BD90BC80ED91EB12CA12C209778
:10513000A9F08091E80085FD22C08091E8008B777E
:105140008093E80001151105A1F0F801808191819B
:10515000A80EB91EB182A08285E0F82E8F2DDF91B6
:10516000CF911F910F91FF90DF90CF90BF90AF90A4
:1051700008950E94D9298823D1F2F82EEFCF80918B
:10518000F100F60181936F012197FFEFAF1ABF0A7B
:10519000CECFFC018091F8039091F9038617970711
:1051A000A0F06115710529F49091E8009E77909325
:1051B000E80090E06115710551F4911108C08091EB
:1051C000E80082FF34C080E00895BC01F2CF8091F6
:1051D000F1038823C1F18530C1F18091E80083FD9E
:1051E00030C08091E80082FDEACF8091E80080FF26
:1051F000E1CF8091F3002091F200382F6115710505
:1052000019F02830310558F091E02830310509F0C7
:1052100090E02091E8002E772093E800CBCF819199
:105220008093F100615071092F5F3F4FE7CF80916C
:10523000F103882341F0853041F08091E80083FF3D
:10524000BECF81E0089582E0089583E00895FC01D7
:105250008091F8039091F90386179707A0F06115E4
:10526000710529F48091E8008E778093E80090E042
:105270006115710551F4911108C08091E80082FF19
:1052800035C080E00895BC01F2CF8091F1038823FE
:10529000C9F18530C9F18091E80083FD31C080916A
:1052A000E80082FDEACF8091E80080FFE1CF8091A5
:1052B000F3002091F200382F6115710519F02830A4
:1052C000310558F091E02830310509F090E08091E7
:1052D000E8008E778093E800CBCF84918093F10033
:1052E0003196615071092F5F3F4FE6CF8091F103F6
:1052F000882341F0853041F08091E80083FFBDCFE5
:1053000081E0089582E0089583E00895982F973012
:1053100028F08F708093E90081E008959093E90070
:10532000242F762F50E0981731F07091EC002091E7
:10533000ED005091F00021FD02C09F5FE8CF309159
:10534000EB003E7F3093EB003091ED003D7F3093DA
:10535000ED003091EB0031603093EB007093EC0086
:105360002093ED005093F0002091EE0027FDE5CF53
:1053700080E008958091F20387FF13C08091E800D8
:1053800082FF06C08091E8008B778093E80004C01C
:105390008091F1038111F2CF08958091F103882368
:1053A000D9F38091E80080FFF8CF8091E8008E77F4
:1053B000ECCF2091E4003091E50095E6A901209121
:1053C000EC00822F817020FF06C08091E80080FFF2
:1053D00006C080E008952091E80022FD1AC0809167
:1053E000F103882389F0853089F08091EB0085FDF9
:1053F0000FC02091E4003091E50042175307F9F205
:105400009150E1F684E0089582E0089583E00895E4
:1054100081E008950E94792A0E94812AE0EEF0E05E
:10542000808181608083E8EDF0E080818F778083E8
:1054300019BCA7EDB0E08C918E7F8C9380818F7E1C
:1054400080831092F00308950F931F93CF93DF93FF
:105450000E94792A0E94812AC8EDD0E088818F7746
:10546000888388818068888388818F7D888319BC40
:105470001092F1031092ED031092EF031092EE03DD
:1054800000EE10E0F80180818B7F8083888181604D
:10549000888342E060E080E00E948629E1EEF0E04F
:1054A00080818E7F8083E2EEF0E080818160808366
:1054B000808188608083F80180818E7F80838881ED
:1054C00080618883DF91CF911F910F910895E8ED5E
:1054D000F0E080818F7E8083E7EDF0E08081816065
:1054E000808384E082BF81E08093F0030E94242ABD
:1054F0000895E8EDF0E080818E7F80831092E200D5
:1055000008951092DA001092E10008951F920F9210
:105510000FB60F9211242F933F934F935F936F9386
:105520007F938F939F93AF93BF93EF93FF9380915C
:10553000E10082FF0BC08091E20082FF07C08091F2
:10554000E1008B7F8093E1000E94E52C8091DA00DE
:1055500080FF19C08091D80080FF15C08091DA00CB
:105560008E7F8093DA008091D90080FF96C080E121
:1055700089BD82E189BD09B400FEFDCF81E0809341
:10558000F1030E943D268091E10080FF19C08091C7
:10559000E20080FF15C08091E2008E7F8093E200E0
:1055A0008091E20080618093E2008091D800806267
:1055B0008093D80019BC85E08093F1030E945126A6
:1055C0008091E10084FF2BC08091E20084FF27C01E
:1055D00080E189BD82E189BD89B5982F917080FFF6
:1055E000FBCF8091D8008F7D8093D8008091E1001F
:1055F0008F7E8093E1008091E2008F7E8093E200B5
:105600008091E20081608093E2008091ED03882325
:1056100009F449C084E08093F1030E945A268091E6
:10562000E10083FF29C08091E20083FF25C08091C3
:10563000E100877F8093E10082E08093F103109284
:10564000ED038091E1008E7F8093E1008091E20084
:105650008E7F8093E2008091E20080618093E2007F
:1056600042E060E080E00E9486298091F00088603E
:105670008093F0000E944E26FF91EF91BF91AF9171
:105680009F918F917F916F915F914F913F912F915A
:105690000F900FBE0F901F90189519BC1092F10338
:1056A0000E944B2670CF8091E30087FD93E090939A
:1056B000F103B3CF1F920F920FB60F9211242F93C5
:1056C0003F934F935F936F937F938F939F93AF938A
:1056D000BF93CF93DF93EF93FF93D091E900DF70F7
:1056E0008091EC00C82FC17080FDC0E81092E900E5
:1056F0008091F000877F8093F00078940E949E2B29
:105700001092E9008091F00088608093F000CD2B2A
:10571000CF70C093E900FF91EF91DF91CF91BF91DE
:10572000AF919F918F917F916F915F914F913F9139
:105730002F910F900FBE0F901F901895AAE2B0E026
:10574000E4EAFBE20C94312D82EF93E02091F1002A
:10575000FC012193CF01F3E08A3F9F07B9F70E9434
:1057600084268091E80083FF1EC18091F20390910E
:10577000F3039A3008F017C1E92FF0E0E050F24D42
:105780000C94152D803899F0823809F00CC1809165
:10579000F6038F70873008F006C18093E90080918E
:1057A000EB0085FB882780F91092E90006C0809104
:1057B000EE039091EF03911182609091E800977F42
:1057C0009093E8008093F1001092F1008091E8003E
:1057D0008E77E5C0882309F4D3C0823009F0E3C096
:1057E0008091F4038111D6C08091F6038F702FEF62
:1057F000280F263008F0D7C08093E9002091EB00F5
:1058000020FFC8C0933031F48091EB008062809318
:10581000EB00C0C09091EB0090619093EB0021E011
:1058200030E001C0220F8A95EAF72093EA00109237
:10583000EA008091EB008860EACF8111B4C010913A
:10584000F4031F778091E3008078812B8093E3003D
:105850008091E800877F8093E8000E94BA298091B8
:10586000E80080FFFCCF8091E30080688093E30034
:1058700082E0111183E08093F10395C0805882305B
:1058800008F091C08091F4039091F5038C3D23E0E2
:105890009207A1F583E08A838AE289834FB7F8945F
:1058A000DE01139620E03EE051E2E32FF0E050935A
:1058B0005700E49120FF03C0E295EF703F5FEF7067
:1058C0008E2F90E0EA30C0F0C7968D939D932F5FA6
:1058D000243159F74FBF8091E800877F8093E8001B
:1058E0006AE270E0CE0101960E94C9288091E8002A
:1058F0008B778093E80057C0C096E7CF6091F6039E
:105900007091F703AE014F5F5F4F0E94B527BC0156
:10591000892B09F448C09091E800977F9093E800A4
:1059200089819A810E942729E1CF8038E1F5809111
:10593000E800877F8093E8008091ED038093F10079
:1059400045CF811130C09091F403923060F5809181
:10595000E800877F8093E8009093ED030E94BA29C6
:105960008091ED03882311F084E005C08091E3006D
:1059700087FDFACF81E08093F1030E94652613C072
:105980008091F403813079F481E0933009F080E074
:105990008093EF031092E9008091E800877F809365
:1059A000E8000E94BA298091E80083FF0AC0809134
:1059B000E800877F8093E8008091EB00806280930D
:1059C000EB00AA96E3E00C944D2D0895CF938091BF
:1059D000F1038823A1F0C091E900CF709091EC0011
:1059E000892F817090FD80E8C82B1092E90080918A
:1059F000E80083FD0E949E2BCF70C093E900CF91F9
:105A0000089597FB072E16F4009407D077FD09D070
:105A10000E94592D07FC05D03EF4909581959F4F2B
:105A20000895709561957F4F0895EE0FFF1F0590C3
:105A3000F491E02D0994692796276927782787270D
:105A4000782708952F923F924F925F926F927F92A4
:105A50008F929F92AF92BF92CF92DF92EF92FF927E
:105A60000F931F93CF93DF93CDB7DEB7CA1BDB0B2A
:105A70000FB6F894DEBF0FBECDBF09942A883988CF
:105A800048885F846E847D848C849B84AA84B984D6
:105A9000C884DF80EE80FD800C811B81AA81B981E2
:105AA000CE0FD11D0FB6F894DEBF0FBECDBFED01F6
:105AB0000895AA1BBB1B51E107C0AA1FBB1FA61755
:105AC000B70710F0A61BB70B881F991F5A95A9F7A7
:105AD00080959095BC01CD010895FB01DC0102C0C9
