:100000000C9435020C9452020C9452020C9452023D
:100010000C9452020C9452020C9452020C94520210
:100020000C9452020C9452020C94DE280C94B229C7
:100030000C94EF220C9452020C9452020C94520233
:100040000C9452020C9452020C9452020C945202E0
:100050000C9452020C9492230C9452020C9452026F
:100060000C9452020C9452020C9452020C945202C0
:100070000C9452020C9452020C9452020C945202B0
:100080000C9452020C9452020C9452020C945202A0
:100090000C9452020C9452020C9452020C94520290
:1000A0000C9452020C9452020C945202040005006B
:1000B0000600A800080009000A0001511E001F00E8
:1000C0002000A8002200230024000100A900AA00AB
:1000D000A900AA0000000000000000002A2B280050
:1000E00000000000000000000000000000000029E7
:1000F000000000002C1E3420212224342627252E27
:10010000362D3738271E1F2021222324252633335E
:10011000362E37381F0405060708090A0B0C0D0E8A
:100120000F101112131415161718191A1B1C1D2F56
:100130003130232D350405060708090A0B0C0D0E76
:100140000F101112131415161718191A1B1C1D2F36
:100150003130354C000000000000000000000000BD
:10016000000000000000000000000000000000008F
:1001700000000000000000007E0F00D4FFFFFFC75A
:1001800000000078FD377A585A000004E6D6B446DD
:100190000200210116000000742FE5A3E0013000E9
:1001A000B55D003D8889C65436C3174FE4D417ACFB
:1001B000776C7D6B759812CA17CA750222FDE0C173
:1001C0000147F21E8B473248931E612DC6B8C1A26B
:1001D000535D3EBA00A7B8CFCDC20D2FF9BB8E89B3
:1001E000F49BF3239812B087072583BC8E95CF44E8
:1001F000AF9DE1CBECF679E647354C4B9B7438BAB2
:10020000E48CE7931ED2783D486469B8C10E19DFCB
:10021000EE9CAB7A419B36A8FD2D7CDD70EDEE02A5
:10022000B2CB23C06219DD6F8B4D8AC653B25C69B5
:10023000DAF6844BD53FCBFDF74AE3544B43A58513
:10024000DD85582CC69CBAC68966E4B047DA50856D
:10025000C0D5CDE74FADC114000000001CFBB29427
:10026000BEFF1DAE0001D101B102000076CF1D819D
:10027000B1C467FB020000000004595A1C03760059
:10028000690061006C003A006600360034006300CB
:10029000320062003300630000001E03360062007B
:1002A00074006E006B006E006F00620073007700D8
:1002B000690074006300680000001E034B006100C9
:1002C000740069006500730020004700610064004D
:1002D000670065007400730000000403090409024C
:1002E0005B00030100A0FA09040000010301010002
:1002F00009211101000122400007058103080001C6
:10030000090401000203000000092111010001227B
:1003100022000705820320000107050303200001D6
:10032000090402000103000000092111010001225B
:10033000BC00070584032000011201000200000038
:1003400008EEEE22200100010203010660FF0961B0
:10035000A1010962150026FF009520750881020998
:1003600063150026FF00952075089102C00501095C
:1003700002A10185020901A100050919012905153C
:10038000002501950575018102950175038101051F
:1003900001093009311581257F950275088106090B
:1003A000381581257F950175088106050C0A3802EC
:1003B0001581257F950175088106C0C0050109805A
:1003C000A101850319012AB700150126B70095017F
:1003D00075108100C0050C0901A101850419012ACD
:1003E000A002150126A002950175108100C005012B
:1003F0000906A1018506050719E029E71500250171
:100400009508750181020507190029EF15002501DE
:1004100095F07501810205081901290595057501F9
:100420009102950175039101C005010906A101051D
:100430000719E029E7150025019508750181029546
:1004400001750881010507190029FF150026FF0025
:10045000950675088100050819012905950575019E
:100460009102950175039101C00011241FBECFEFC9
:10047000DAE0DEBFCDBF11E0A0E0B1E0E4ECF8E5EA
:1004800002C005900D92AE3AB107D9F723E0AEEA6B
:10049000B1E001C01D92A934B207E1F70E946712D2
:1004A0000C943C2C0C9400009C013A9521153F4182
:1004B00050F5FC01EE27F170BC0166277270AC01AB
:1004C000442754709C012227387094FF0EC080E1AD
:1004D000EF2B09F480E0672B09F08062452B09F0CF
:1004E0008064232B89F08068089581E0EF2B09F464
:1004F00080E0672B09F08260452B09F08460232B94
:1005000019F08860089580E00895CF93DF93EB01A0
:100510000E945402FE010995DF91CF910895CF9377
:10052000DF93EC01805E9109089720F068E178E0A4
:10053000209711F460EA75E0CE010E9485028C2FAD
:100540000E940105DF91CF910895CF93DF93EC01D5
:100550000E944D05CE01805E9109089720F06FE161
:1005600078E0209711F467EA75E0CE010E948502D9
:10057000DF91CF91089581E0089581E008950E9470
:10058000BD02089508950E94C2020895A5E0B0E05A
:10059000ECECF2E00C94892B49835A833091B10141
:1005A00089819A81311119C0662399F0222389F03B
:1005B0000E946D09182F682F89819A810E943F0936
:1005C00069817A81812F0E947A1A2596E3E00C9442
:1005D000A52B0E945609182FF3CF0E946D0969813F
:1005E0007A81F1CFFC01262F408151816281738194
:1005F00084810E94C602089581E00895CF93DF931D
:10060000EC0160E00E94F202BE010E94C302DF9191
:10061000CF910895E1E0F0E0DF0102C0AA0FBB1F17
:100620006A95E2F7BD01DF0102C0AA0FBB1F4A9520
:10063000E2F76A2B01C0EE0F2A95EAF7962F98236E
:10064000961302C08E2B0895E0958E230895242FD3
:10065000462F682F8091B8010E940A030E949F08CC
:1006600008950E94751108950E94791108950895C2
:100670000E943C080E9437032FEF84E39CE0215046
:1006800080409040E1F700C0000008950E943803C8
:100690000E94B62308950E9438030E94C72308953C
:1006A0000F931F93CF93DF93EC018B010E9475157D
:1006B000811106C080E0DF91CF911F910F910895C5
:1006C000B801CE010E94CC188823A1F3B801CE0155
:1006D0000E94BF02882371F3B801CE010E94131F4C
:1006E000882341F3B801CE010E942621882311F30B
:1006F000B801CE010E94B61B8823E1F2B801CE01F9
:100700000E94CE1D8823B1F2F8018281882361F016
:10071000CA35FDE5DF0701F158F4C115ECE5DE0748
:1007200091F0CE3DDC4591F0C8010E94BB02C3CFE1
:10073000CC358DE5D80769F090F0C73ADD45A1F7D3
:100740000E944B03B7CF0E944603B4CF0E949A0E7B
:10075000F7CF0E94D40DE8CF0E94DE0DE5CF0E94B6
:10076000E20DE2CFCF93DF93EC0161E00E94F20251
:10077000BE010E945003DF91CF9108950E94D122C3
:100780000E94A20408950E94A6040E94D622089501
:10079000B0E0A0E0EEECF3E00C94852BE82FF0E065
:1007A000EC52FF4FD490282F26952695269530E0C1
:1007B000F901EC58FE4F0491877010E0082E02C03A
:1007C000159507950A94E2F701701127F901EC5984
:1007D000FE4FE490F12C082E02C0F594E7940A94A1
:1007E000E2F791E0E922FF24F901EC5AFE4FC491AF
:1007F000D0E002C0D595C7958A95E2F7C170DD2794
:100800000115110519F081EE0E940105E114F104B2
:1008100019F086EE0E9401058D2D0E949705E114C6
:10082000F10419F086EE0E944D050115110519F02D
:1008300081EE0E944D05CD2B19F08CE20E949705A8
:10084000CDB7DEB7E7E00C94A12BEF92FF920F93A8
:100850001F93CF93DF93EC01162F0AE08881882342
:1008600009F454C0813009F04EC08981813099F477
:100870007E0122E0E20EF11C8A810E949705E701C9
:100880002196812F815050F3EFE9FFE03197F1F786
:1008900000C00000F7CF823041F47E0182E0E80E14
:1008A000F11C8A810E940105EACF833041F47E0168
:1008B000E2E0EE0EF11C8A810E944D05E0CF84300B
:1008C00011F02196DDCF2A81229690E080E0AE01E2
:1008D0004F5F5F4F2053330B2A30310548F00197AB
:1008E00078F2EFE9FFE03197F1F700C00000F7CFB1
:1008F000089FB001099F700D1124C901860F971F31
:100900002981EA01E4CF0E94C803BACFCDB7DEB790
:10091000E6E00C94A22B60E00E942504089508955F
:100920000E948F04089581E008950E949304089521
:100930000895CF93C82F0E9490048C2F0E94950495
:10094000CF91089580E00E94990408950E94822129
:100950000E94990408950E9482219091B0019817F5
:1009600021F08093B0010E9499040895ABE0B0E0BB
:10097000ECEBF4E00C948A2B4F83588769877A87D5
:100980008B8761110E94D30C1E821D8285E0FE01BF
:100990003796DE01119601900D928A95E1F78091CC
:1009A000330382FF0CC00E94960C882319F082E06A
:1009B0000E94A30D0E947D0C81110E940D0D8C815F
:1009C0009D81892B61F449815A816B817C818D8164
:1009D0009E810E94D40B2B96E2E00C94A62B898179
:1009E0009A8189238F3F79F3CE0101960E94FC0200
:1009F0008111E9CFF0CFFC01808191810E949A0999
:100A00000895CF93C82F8823B9F08CEF8C0F813ACB
:100A1000A8F46C2F80910001909101010E94F721B0
:100A2000882329F08C2F0E946B0C0E941B0D8C2FA9
:100A30000E94630C0E941B0DCF91089580E28C0FE1
:100A4000883048F4C77081E001C0880FCA95EAF782
:100A50000E94B60CEFCFEBE5EC0FE33040F4F0E092
:100A6000EE5AFE4F808190E00E94B721E5CFE8E585
:100A7000EC0FE73150F4F0E0EE0FFF1FEC5DFE4F9E
:100A8000808191810E94CD21D7CFC03FA8F28C2FC9
:100A90000E94EB120E94D613CFCF882379F19CEFEE
:100AA000980F913A28F40E946B0C0E941B0D089538
:100AB00090E2980F983050F4877091E001C0990F40
:100AC0008A95EAF7892F0E94BC0CEFCF9BE5980F1F
:100AD000933028F490E080E00E94B721089598E5D3
:100AE000980F973128F490E080E00E94CD2108957E
:100AF000803F20F00E9453130E94D61308951F9345
:100B0000CF93DF93182FEB010E940105209739F452
:100B1000812F0E944D05DF91CF911F9108958FE99C
:100B20009FE00197F1F700C000002197EFCF70E040
:100B300060E0893311F460E570E00E947F0508955C
:100B4000882321F00E94B60C0E941B0D0895882373
:100B500021F00E94BC0C0E941B0D0895B0E0A0E0A3
:100B6000E4EBF5E00C94832B6C01D62FC72FFC012E
:100B70000281F580F2949FE0F9220E94AC0CE82EED
:100B80008823B9F0E02E0023A1F08C2F807F8034E1
:100B900021F080E28D0F8830D0F08091330382FF06
:100BA00016C082E00E94A30D0E94AC0C91E0E82EDA
:100BB000E926BC2EB2948FE0B822FBE0FB1508F4C6
:100BC00068C0EB2DF0E0E25CF34D0C946D2BE12C52
:100BD000F0CF1C2F1F70C07F11F01295107F0023E3
:100BE00099F0112359F080E28D0F883010F0D11167
:100BF00007C0812F0E94B60C0E941B0D8D2F41C093
:100C0000812F0E94C60CF8CF8D2F0E944D05112315
:100C100009F43FC080E28D0F883010F0D11104C07C
:100C2000812F0E94BC0C03C0812F0E94CC0C0E941B
:100C30001B0D2FC01C2F1F70C07FC03211F01295EA
:100C4000107FDD2381F0D13009F482C0002309F444
:100C50008BC0FF2009F45BC0F601858180FFCECFF9
:100C60008F70858354C08091330382FD33C000238D
:100C700059F0112329F0812F0E94B60C0E941B0D00
:100C800080E00E94010505C080E00E944D05111121
:100C9000C7CFEB2DE850FF0B349720F40E94822140
:100CA0000E949904EE2089F00E94920C80FD0DC0F4
:100CB000F60112820E948C0C0E94B308C6010E94A9
:100CC000EE070E948C0C0E94BF08CDB7DEB7E9E0AA
:100CD0000C949F2B0023E9F0F11006C00E94E20C57
:100CE000812B0E94A005D5CF21E0F21206C00E9400
:100CF000E20C812B0E94F60CCCCF35E0F312EECF44
:100D00000E940D0D0E947A0C812B0E94E90C812F0C
:100D1000E8CFF11003C00E940D0D11C081E0F81260
:100D200012C00E94B30C812309F4B3CF0E940D0DB1
:100D30000E947A0C912F909589230E94E90C812FB3
:100D40000E94A705A6CF95E0F91609F4A2CFE3CF3C
:100D5000002329F0E5E0EF1508F49BCFD8CFF4E0AD
:100D6000FF1508F496CFEBCFFF2049F3D93349F4B0
:100D7000FFEF27EE33E0F15020403040E1F700C0B4
:100D800000008D2F0E944D0584CF8C2F869586956F
:100D9000837069F0813009F07CCF8D2F9C2F937088
:100DA000011102C090E080E00E94CD2172CF8D2F12
:100DB0009C2F9370011102C090E080E00E94B72147
:100DC00068CF8D2F002329F00E94EB120E94D613CA
:100DD00060CF0E945313FACF8C2F837079F50111E5
:100DE00058CF4D2F429546954770440F440F8D2F95
:100DF0008F70042E01C0880F0A94EAF72D2F2071FE
:100E0000D4FF07C02FE030E001C0220F4A95EAF777
:100E10002095C695C695C370822BC23049F058F410
:100E2000C13019F00E948D0834CF0E94870831CF5D
:100E30000E9493082ECF0E9484082BCF8695002312
:100E400011F08C2F8170882309F423CF4D2F429508
:100E500046954770440F440F8D2F8F70042E01C0AC
:100E6000880F0A94EAF72D2F2071D4FF07C02FE0D6
:100E700030E001C0220F4A95EAF72095C695C69545
:100E8000C370822BC23049F058F4C13019F00E946F
:100E9000DE08FFCE0E94D808FCCE0E94E408F9CEFE
:100EA0000E949F08F6CECF70002329F08C2F0E945D
:100EB000B3088D2F16CF8D2F0E94A7058C2F0E946F
:100EC000BF08E7CED23F51F160F4D03FB9F0D13F37
:100ED00081F0002309F45AC0F11090CE8C2F8F714D
:100EE00021C0D33F11F1D43FA1F78091330382FD9C
:100EF00026C08C2F8F71002311F314C0002349F0FA
:100F000084E08F1508F4C5CE8C2F8F710E94CC0819
:100F1000C0CE95E09F1508F4BCCEF6CF8C2F8F7114
:100F20000111CDCF0E94B308B4CE002329F08C2F3D
:100F30008F710E94AA08ADCE0E94A608AACE0023F7
:100F4000C1F00E94920C843041F40E94990D8C2FC4
:100F50008F710E94BF08E12C9CCEE4E0EF15D8F31E
:100F6000CF718C2F0E94B30863E08C2F0E947B0D01
:100F7000F2CFF4E0FF1530F40E94990D64E08C2F5D
:100F80008F71F4CF81E00E94A30DE5CFFF2059F0CF
:100F9000D93309F0F6CE2FEF37EE83E02150304001
:100FA0008040E1F7ECCE8C2F8F7189CF0F931F9388
:100FB000CF93DF93EC01688179818A810E94A50932
:100FC0008C010E94EA080E948308B801CE010E94A9
:100FD000AE05DF91CF911F910F910895CF93DF93CD
:100FE000EC018B819C81892B29F08881998189234F
:100FF0008F3F51F4DF91CF910895CE010E94D60723
:10100000CE010E94FE02F6CFCE010E94B2038111F2
:10101000F4CF0E94AC0C882369F38A81882351F3B2
:101020008091330382FFE6CF82E00E94A30DE2CFDE
:10103000882321F00E94C60C0E941B0D089588236E
:1010400021F00E94CC0C0E941B0D089590E080E0DE
:101050000E94B72190E080E00E94CD210E94D30C35
:101060000E941B0D0E94F2130E94D61308950E9445
:10107000730C0E94260808950E94C30C0E94370832
:10108000089592959F70963091F058F4925F9F70FA
:10109000923058F4803F19F030F4883E30F481E00B
:1010A00008959A5FF4CF843FD1F380E00895883E9D
:1010B000B0F3813FD1F7F3CFFC01808191810E9491
:1010C0009A090E9441080895A5E0B0E0EAE6F8E038
:1010D0000C948A2B2596E2E00C94A62BA6E0B0E0B7
:1010E000E4E7F8E00C948A2B2696E2E00C94A62B19
:1010F00008950E94780808950E9479088093B901A4
:101100000E942608089508950E947C0808959091F1
:10111000B901892B0E947C0808959091B901892317
:101120000E947C0808959091B90189270E947C084B
:1011300008950E94780808950E94990808950E94D1
:101140009C088093B8010E942608089580E00E94C0
:101150009F08089591E001C0990F8A95EAF7892FB9
:101160000E949F08089521E030E001C0220F8A9577
:10117000EAF78091B801822B0E949F08089521E030
:1011800030E001C0220F8A95EAF720958091B801DE
:1011900082230E949F08089521E030E001C0220FC1
:1011A0008A95EAF78091B80182270E949F080895E6
:1011B0009091B801892B0E949F0808959091B801E1
:1011C00089230E949F0808959091B80189270E9461
:1011D0009F0808950895262F277091E001C0990F68
:1011E0002A95EAF723E0769567952A95E1F7FB01C2
:1011F000EE0FFF1FE60FF71FE40FF51F50E040E072
:10120000682F70E08191DF0111979B01042E02C0CD
:10121000369527950A94E2F72170219528272923EE
:1012200028272C934F5F5F4F4330510559F708959E
:10123000A82FA77023E0969587952A95E1F7FC01E2
:10124000EE0FFF1FE80FF91FE60FF71F50E040E019
:1012500080E0219130E00A2E02C0369527950A944D
:10126000E2F721703327042E01C0220F0A94EAF717
:10127000822B4F5F5F4F4330510559F70895282F58
:10128000862F903F41F0911107C0622F70E045EB2F
:1012900051E0283040F008959C5F9230E0F7622FD3
:1012A00070E042EB51E00E94EB08F5CF282F892F28
:1012B000903F89F0911105C065EB71E0283030F066
:1012C00008958C5F823038F462EB71E0822F90E0F9
:1012D0000E941809089580E0F3CFCF92DF92FF9229
:1012E0000F931F93CF93DF936C010091B80180910E
:1012F000B901082BC7E0D0E010E0FC2EC8010C2E8D
:1013000002C0959587950A94E2F780FD0CC021975D
:10131000A0F7F12C8F2DDF91CF911F910F91FF90AE
:10132000DF90CF900895B6018C2F0E945B1001973B
:1013300071F3F0CFCF93DF93EC010E946D09BE01F2
:101340000E945B10DF91CF9108951F93CF93DF939D
:10135000EB019091B101992339F0CB010E949A09D8
:10136000DF91CF911F910895882369F0CB010E94EE
:101370006D09182F682FCE010E943F09BE01812FF1
:101380000E945B10EDCFCB010E945609182FF6CFBB
:101390001F93CF93DF93C091BA0116E08091BB01F8
:1013A0008C1304C0DF91CF911F910895D0E01C9F52
:1013B000F0011D9FF00D1124E454FE4F4081518136
:1013C00062817381848195810E946E082196C77025
:1013D000E5CF4091EC015091ED016091EE017091EB
:1013E000EF018091F0019091F1010E946E08089543
:1013F0001F93CF93DF938091F101807F09F049C063
:101400008091EE01882309F444C08091BA01C09113
:10141000BB016091EC017091ED01A091EF01B091E1
:10142000F001D62FD72316E0C81799F190E0109756
:1014300011F0DF3F19F401968770F6CF189F9001E5
:10144000199F300D1124F901E454FE4F41814713D7
:10145000F2CF40814613EFCF42814111ECCF43815F
:1014600054814A1B5B0B483C510528F78091F101E0
:101470008F7080618093F101F901EF53FE4F8081FD
:101480008F70806180838CEE91E00E94EE070E9455
:10149000C809DF91CF911F910895A1E1B0E0E3E584
:1014A000FAE00C94822B8C0185E0F801DE011D9698
:1014B00001900D928A95E1F7F801E2808CEEC82E3A
:1014C00081E0D82E6091EF017091F00161157105F6
:1014D00009F44EC19091EC012091ED01892F8223F6
:1014E0008F3F09F445C140815181A380B480F090C1
:1014F000EE01F501E61BF70BFF2009F4EAC080912D
:10150000F101382F307FE83CF10508F0A3C031111C
:101510006DC0FE2C251316C0941314C0E11012C028
:101520008F7080618093F1010E94E909C6010E94D9
:10153000EE078091F101F80185838F2D6196EAE035
:101540000C949E2BA114B10429F0842F85238F3F86
:1015500009F027C180E0F82FF170DF2E80FF3CC03A
:101560008091BA012091BB0136E0821315C04D87EE
:101570005E878D859E850E949A09292F22952F705E
:101580002230F0F0243018F59F70F1F0F8019581C9
:10159000907FD1F4D12C1EC090E0389FF001399F8C
:1015A000F00D1124E454FE4F6181651306C0608183
:1015B000641303C06281E6120FC001968770D5CF15
:1015C0009F7011F0882331F3805E883018F3C801D2
:1015D0000E94EE07FD2CB1CFEE2009F4AECF809132
:1015E000F10181608093F101F12CA7CF251306C092
:1015F000941304C0F801EE2009F487C0C8010E94CA
:101600005C08882319F1EE2009F18091F101803204
:1016100070F02091EC013091ED0138872F8319860D
:10162000BB86AA868C87CE0107960E94EE0786E0CD
:10163000F801ACEEB1E001900D928A95E1F70E94BD
:10164000F8090E94E909FF24F39477CFC8010E94AA
:10165000EE07F9CF311113C07A2DB98AA88A6E2D01
:1016600089890E9464088CEE91E00E94EE0786E072
:10167000F60111928A95E9F70E94E909B5CF251381
:101680000FC094130DC0E1100BC0F8018583C80191
:101690000E94EE0786E0F60111928A95E9F74DCF98
:1016A000C8010E945C08882389F2EE2079F28091BB
:1016B000F101803208F4BBCF2091EC013091ED01B3
:1016C0003A8329831B82BD82AC828E83CE01019630
:1016D000ACCFE83CF10508F03EC0FE2CEE2009F44A
:1016E000B5CF25132AC0941328C08091F10180FD45
:1016F0001BC0982F907FC1F0F8018583903F31F097
:10170000982F907F905F8F70892B8583C8010E94EE
:10171000EE0786E0F801ACEEB1E001900D928A95FB
:10172000E1F70E94E90909CF86E0F801ACEEB1E0EB
:1017300001900D928A95E1F700CFC8010E945C08E4
:10174000811175CF8091F10181608093F101C80111
:101750000E94EE07F2CE7A2DB98AA88A6E2D898969
:101760000E94640886E0F60111928A95E9F7D9CFC4
:10177000EE2009F46BCFC8010E945C08F82E882384
:1017800009F464CF86E0F801ACEEB1E001900D926F
:101790008A95E1F78CEE91E00E94FB040E94F80923
:1017A000C0CF81E08E25D7CEACE0B0E0EAEDFBE023
:1017B0000C94892B4F83588769877A878B879C87FE
:1017C000CE0107960E944D0A882369F08A859B8581
:1017D000892B39F04F815885842F85238F3F09F05D
:1017E0006BC016E05FC086E0FE013796DE01119601
:1017F00001900D928A95E1F78A859B85892B89F363
:101800008F81988589238F3F61F32091BB0130E060
:10181000C9010196877099274091BA0148171906A6
:1018200071F40E943C081092BB011092BA0186E04C
:10183000ECEEF1E0DF011D928A95E9F7D2CF96E058
:10184000929FD001939FB00D1124A454BE4FFE016E
:10185000319601900D929A95E1F78093BB010E9419
:10186000C809BFCF819FC001112484549E4F0E949C
:101870004D0A8823E9F0E091BA011E9FF00111247E
:10188000E454FE4F4081518162817381848195814E
:101890000E946E088091BA0190E0019687709927A6
:1018A0008093BA018091BA019091BB018913DACF7C
:1018B0002C96E3E00C94A52B69857A858B859C8515
:1018C0000E946E088ECF682F8091000190910101D7
:1018D0000E9477220895682F809100019091010164
:1018E0000E948522089580910001909101010E943B
:1018F000932208958091170208950E944F2320910A
:10190000150230911602821B930B9C0181E028384E
:10191000334108F480E008958091140285958595FF
:101920008595089580911402877008950E944F2331
:101930002091120230911302821B930B883893413D
:1019400048F08091140282FB882780F991E0892772
:101950008170089580E0FCCF90911402977081E02F
:1019600009F480E0089580913C02089590913C0232
:10197000892B80933C020895809590913C02982396
:1019800090933C02089510923C02089590913B027E
:10199000892B80933B020895809590913B02982378
:1019A00090933B02089510923B02089580933A026F
:1019B000089510923A020895809339020895109282
:1019C0003902089580911802089508950E94E50C47
:1019D000089590911702981721F0809317020E94A2
:1019E000E60C089508950E94F20C0895CF93C82F35
:1019F0008091330382FF0FC0809118028C1759F039
:101A00000E944F239093160280931502C0931802F0
:101A10008C2F0E94F30CCF91089580911802882397
:101A200049F010921802109216021092150280E0EE
:101A30000E94F30C0895CF93DF93E0910001F091A1
:101A4000010180913C028083E0910001F09101014D
:101A5000808190913B02892B80838091180288239A
:101A6000B9F00E947D0C81110E940D0DE0910001E2
:101A7000F0910101808190911802892B80838091DF
:101A80000001909101010E94E32181110E940D0D3E
:101A9000E0910001F091010180913902982F909519
:101AA000808189238083E0910001F0910101808190
:101AB00090913A02892B8083C0910001D09101015D
:101AC00040E250E062EF71E0CE010E94CE2B892B04
:101AD00059F080E2FE01A2EFB1E001900D928A95EB
:101AE000E1F7CE010E948F21DF91CF9108950895F3
:101AF0000E94770D08959091330392FF17C098E0EC
:101B0000899F90011124622B609314020E94B308F4
:101B10000E944F239093130280931202809114022B
:101B20008595859585950E94780D08950E94B30846
:101B3000089510921402109213021092120280E083
:101B40000E94780D089590911402809589238093C6
:101B50001402282F277091F4282F082E000C330B25
:101B60009217130659F09091330392FF07C08595A1
:101B7000859585950E94BF080E94990D08959091C2
:101B8000330392FB222720F9281769F080FB92F992
:101B90009093330380913203909133030E94110E8E
:101BA00082E00E94A30D08958091330382FB882771
:101BB00080F991E089270E94BF0D089581E00E947D
:101BC000BF0D089580E00E94BF0D08956FEF7FEF75
:101BD00090E080E00E941E2C089590E080E00E943A
:101BE000FA2B883E9E4F19F40E941015089580E04C
:101BF000089582E090E00E94F22B089583E090E047
:101C00000E94F22B0895CF9384E090E00E94F22B83
:101C1000C82F82E290E00E94F22B982F8C2FCF9158
:101C20000895CF93C92F682F84E090E00E94002C84
:101C30006C2F82E290E00E94002CCF910895AB01BE
:101C4000BC018FE090E00E94122C0895AB01BC0112
:101C500083E190E00E94122C089560E070E0CB01D7
:101C60000E94260E089560E070E0CB010E941F0ED6
:101C70000E942D0E089568EE7EEF90E080E00E94B5
:101C80001E2C60E082E090E00E94002C60E083E087
:101C900090E00E94002C1092B90160E084E090E096
:101CA0000E94002C64E082E290E00E94002C60E040
:101CB00085E090E00E94002C60E086E090E00E94C9
:101CC000002C6FEF87E090E00E94002C40E050E095
:101CD000BA0188E090E00E94122C60E08DE090E074
:101CE0000E94002C40E050E0BA0188E190E00E94A0
:101CF000122C60E087E190E00E94002C40E050E070
:101D0000BA018CE190E00E94122C70E060E080E269
:101D100090E00E941E2C40E050E0BA0188E190E083
:101D20000E94122C80E00E9429150E9458150E94E2
:101D3000330E08950E943B0E0895682F8EE090E0C8
:101D40000E94002C08950E945B23609346027093CA
:101D50004702809348029093490260934202709335
:101D60004302809344029093450208950E945B23AE
:101D70006093460270934702809348029093490211
:101D800060933E0270933F02809340029093410221
:101D90000895089508950E94CA0E089508950E9416
:101DA000CE0E08958AE391E10E9478210E942E17B9
:101DB0000E94C90E0E94CB0E089581E008950E94F2
:101DC000DD0E0895089508950E94E20E0E94E30E2C
:101DD00008950E9459110E94980408950E94462374
:101DE0000E9468150E94F2110E94E90E0E94FA1CDE
:101DF0000E94CF0E0895AAE0B0E0E1E0FFE00C946D
:101E0000852B0E94FE11E82E81110E94A30E80E016
:101E10000E947C11182F80913D02D82ED126811767
:101E200099F180914A0281FD0E948211F12C01E01A
:101E30008D2D802321F10E94DF0E882399F0FE82F0
:101E40001F82102381E009F480E088870E944F23DD
:101E50008160782F9A8789874E815F8168858A851E
:101E60000E94B60480913D02082700933D0281E064
:101E7000E11001C080E02A96E7E00C94A12BF394D6
:101E8000000F88E0F812D4CF8FEF89838A831B82FA
:101E90000E944F238160782F9D838C8349815A81D2
:101EA0006B818D810E94B604E2CF0E94FB0E0E94DE
:101EB000D71E0E94191D81110E94B60E0E94141493
:101EC0000E94AB040895CF93DF930E946010EC0151
:101ED000811521E5920708F042C0811530E593078E
:101EE00008F09DC0883E910530F5803E910508F0D0
:101EF00092C0883A910588F4853A910508F084C02B
:101F00008130910509F487C0009709F484C00497D3
:101F100008F081C0D0E0C0E07EC08F3B9105D0F7D3
:101F2000C85AD0E0CC0FDD1FCB5ADE4F0990D881C4
:101F3000C02DD46470C08115904250F4C11581E069
:101F4000D80708F068C0C03FD10520F3D06563C052
:101F5000C11590E4D907F0F2DF70D06A5CC081153A
:101F600025E5920700F5811534E5930708F08BC04D
:101F7000811543E5940708F073C0C11582E5D807C1
:101F800008F469C0CE018370992721E030E002C0D7
:101F9000220F331F8A95E2F7C695C69580E2C89F47
:101FA000E001112454C0C11599E5D907A8F4C11561
:101FB00028E5D20708F06CC0C11536E5D30708F054
:101FC000A9CF8C2F0E94F710C82FD0E0DC2FCC2790
:101FD000CC27DF71D0621FC0C1154AE5D40708F4D1
:101FE0005CC0CE0190568115904208F093CF8D2FA2
:101FF0008F710E94F71090E0982F882788279F7193
:102000009C012C2BE901E6CFC55AD0E0CD57DE4F1D
:10201000C881D0E0D064CE01DF91CF910895E4E093
:1020200096958795EA95E1F783702C2F269526954E
:10203000237040E2249F90011124382B8C2F837051
:10204000C1E0D0E002C0CC0FDD1F8A95E2F7C22BC1
:10205000D32BDC68E0CFDC2FCC27C16FD06ADBCF7D
:102060008370992721E030E002C0220F331F8A9548
:10207000E2F7C695C69590E2C99FE0011124C22BF4
:10208000D32BDA68C8CFD82FCC27C46FD06AC3CF80
:10209000DC2FCC27C06FD06ABECF8C2F8F700E94F0
:1020A000F71034E0D695C7953A95E1F7CF709C2F9D
:1020B000EC01D069B0CF0E947A1A0E94630F089594
:1020C00082389105B1F1B0F48133910509F475C0FE
:1020D00048F48932910509F469C08A32910509F4FE
:1020E00073C008958533910509F459C0893391056A
:1020F00001F10895833E9105A9F138F4803E9105E0
:10210000F9F0823E910549F10895863E9105A9F1C5
:10211000873E9105C9F1843E910519F5209133035D
:1021200021FF1FC08091320384FD14C087EE90E030
:102130000895209132032370A1F080EE90E008957D
:102140002091320320FD47C03091330330FF09C096
:1021500024FF44C090E080E004C02091320322FDBF
:10216000F7CF08952091320322FD3BC03091330315
:1021700030FDE3CF24FFF5CFEDCF2091320323FFD5
:10218000F0CF24FDE7CFD2CF2091320323FD2CC026
:102190003091330331FFEECF84EE90E0089520912B
:1021A000320325FFDECF89E290E0089520913203CB
:1021B00025FFD7CF85E390E008952091320326FFD5
:1021C000D0CF8AE290E008952091320326FFC9CF54
:1021D00081E390E0089589E390E0089583EE90E034
:1021E000089582EE90E0089586EE90E00895909133
:1021F000320392FF06C0282F28712830F9F4877F18
:10220000846093FF06C0282F28712831F1F4877E5F
:1022100084612091330320FF06C0382F3871383095
:10222000D9F4877F816021FF06C0282F28712831CB
:10223000D1F4877E816194FD877E0895282F2471D3
:102240002430F9F68B7F8860DCCF282F247124316D
:1022500001F78B7E8861DDCF382F3171313019F76E
:102260008E7F8860E0CF282F2171213121F78E7E6B
:102270008861E1CF80E008950E94E60D08950E94F4
:10228000FE112FEF89EF90E0215080409040E1F760
:1022900000C000000E94FE1180E00E947C1180FFBF
:1022A00004C00E943C110E94B62308950E943F1171
:1022B00008950E94ED0D811102C00E949A0E0E94A5
:1022C000F90D80934A020E94030E9093330380938A
:1022D00032030E9456110E94FE0D0E9484088091D4
:1022E000B8010E949C08089508950E9474110895F1
:1022F00008950E9478110895E82FF0E0EB5CFC4F00
:1023000080810895089580EA8A95F1F7089500C0C4
:1023100008950E9483110895F894E82FE295EF70D4
:10232000F0E031A1282F2F7081E090E001C0880FEC
:102330002A95EAF7982F9095932391A392A1892B40
:1023400082A378940895CF93DF9380E30E948C1149
:10235000C6E8D1E089918F3F11F00E948C1181E095
:10236000CE38D807B9F7DF91CF9108950F931F9317
:10237000CF93DF938C01C62FF894209A28987894F5
:102380000E948711E6E8F1E081E0D0E091919F3F63
:1023900079F0A92FA295AF70B0E090962C9130E023
:1023A0009F7002C0359527959A95E2F7982F20FDEA
:1023B00090E0D92B880F91E0EE38F90739F780E3E8
:1023C0000E948C1161E0D11101C060E08C2F0E944D
:1023D0008911F801EC0FF11DD083DF91CF911F918E
:1023E0000F9108950E94A3111092350310923403A7
:1023F00081E00E9423120E9431030895A1E0B0E021
:10240000E4E0F2E10C94892B198260E0CE010196A0
:102410000E94B61190913403898111E0981301C094
:1024200010E0981380933403212F41E065E373E0BB
:1024300084E393E00E9424120E943403812F2196AA
:10244000E3E00C94A52B0895FF920F931F93CF9375
:10245000DF93F82E092F162FD72FC42F222349F0F0
:1024600081E080934D020E944F2390934C02809311
:102470004B0280914D028823A1F080914B029091F4
:102480004C020E9467230A9760F0EF2DF02FA12FD6
:10249000BD2FCE0FDF2FD11DEC17FD0739F41092A1
:1024A0004D02CDB7DEB7E5E00C94A32B81918D935F
:1024B000F3CF0E94B2250E94EE0E0E94BF25089520
:1024C0000E94C4250E94550F0E94DE2508950E9497
:1024D000E8220E9498250E94D20E0E9459120E9462
:1024E00060120E94E40EFBCF8091540280FF0DC069
:1024F0006091070170E0660F771F6038710570F515
:102500006115710569F1862F089581FF07C06091FB
:10251000070184E0689FB0011124EFCF60910701AB
:1025200082FD0AC0809153028823A9F02091060100
:1025300060910701821710F088E0ECCF869FC00100
:10254000112433E0880F991F3A95E1F7622F70E06C
:102550000E94592BD2CF68E070E0D5CF8FE7089565
:1025600081E008958091540280FF0CC060910301C6
:1025700070E075956795759567956115710549F1D9
:10258000862F089581FF06C06091030170E0759564
:102590006795F3CF6091030182FD0BC090915202C9
:1025A0009923A1F06091020180910301961738F000
:1025B000682F70E06038710500F38FE70895899FF8
:1025C000C001112470E00E94592BF4CF61E070E04B
:1025D000D7CF81E00895803F31F40E947412819535
:1025E000809358020895813F19F40E947412F8CF25
:1025F000823F31F40E9474128195809357020895AE
:10260000833F19F40E947412F8CF893F29F40E9485
:10261000B2128093590208958A3F21F40E94B212A7
:102620008195F7CF8B3F31F40E94B2128195809350
:102630005A0208958C3F19F40E94B212F8CF843FD9
:1026400031F4809156028160809356020895853F4F
:1026500021F4809156028260F7CF863F21F4809169
:1026600056028460F1CF873F21F480915602886042
:10267000EBCF883F21F4809156028061E5CF8D3FFA
:1026800031F48091540281608093540208958E3F0A
:1026900021F4809154028260F7CF8F3FB9F7809187
:1026A00054028460F1CF90915702803F59F4809199
:1026B000580287FF0DC01092580291110BC0109262
:1026C000530208C0813F81F48091580218169CF390
:1026D000992381F08091590290915A02892B09F037
:1026E00064C0109252020895823F49F497FFF0CFE0
:1026F00010925702809158028111ECCFE0CF833FB6
:1027000019F41916ACF3E4CF20915902893F29F44A
:102710001216F4F610925902DBCF8A3F19F427FF04
:10272000D7CFF8CF20915A028B3F29F427FFD0CF83
:1027300010925A02CDCF8C3F19F41216CCF3C8CFA9
:10274000843F31F4809156028E7F80935602C0CF31
:10275000853F21F4809156028D7FF7CF863F21F48B
:10276000809156028B7FF1CF873F21F480915602F2
:10277000877FEBCF883F21F4809156028F7EE5CF93
:102780008D3F31F4809154028E7F80935402A0CF0C
:102790008E3F21F4809154028D7FF7CF8F3F09F057
:1027A00097CF809154028B7FF0CF08950E944F23E2
:1027B0009C019091570280915802982B21F0309300
:1027C0005102209350029091590280915A02982B05
:1027D00021F030934F0220934E0285E592E00E9453
:1027E000A921089586E0E5E5F2E0DF011D928A95D2
:1027F000E9F7109253021092520210925402089577
:10280000FC01828181110EC0838181110BC0848102
:10281000811108C091E08581811101C090E0892F6C
:102820008170089581E0FCCFA6E0B0E0EAE1F4E138
:102830000C94892B86E0E5E5F2E0DE01119601902B
:102840000D928A95E1F71092570210925802109259
:10285000590210925A028B819C81892B89F08091B8
:102860005002909151020E946723AC019091530253
:102870009923C9F1809108018417150608F440C016
:102880008D819E81892B91F080914E0290914F0213
:102890000E946723AC0190915202992309F471C000
:1028A000809104018417150608F479C0BE016F5F9A
:1028B0007F4F85E592E00E94A522811105C085E544
:1028C00092E00E94001481110E94D61386E0FE015E
:1028D0003196A5E5B2E001900D928A95E1F7269632
:1028E000E3E00C94A52B209109018AE0289F900138
:1028F00011242417350720F69F5F9093530202C0DE
:102900009F3FD1F71B81112359F00E9474129FEF52
:1029100011160CF491E0899F802D112480935702A9
:102920001C81112359F00E9474129FEF11160CF4B0
:1029300091E0899F802D1124809358023091570295
:10294000332309F49DCF20915802222309F498CF14
:1029500045EB3403C0011124992359F09093570299
:1029600045EB240390011124332339F030935802AE
:1029700087CF81E080935702F3CF81E080935802A4
:102980007FCF209105018AE0289F90011124241710
:10299000350708F08BCF9F5F9093520202C09F3F94
:1029A000D1F71D81112359F00E94B2129FEF111629
:1029B0000CF491E0899F802D1124809359021E818F
:1029C000112359F00E94B2129FEF11160CF491E0FE
:1029D000899F802D112480935A023091590233230C
:1029E00009F464CF20915A02222309F45FCF45EB0A
:1029F0003403C0011124992359F09093590245EBF7
:102A0000240390011124332339F030935A024ECF1E
:102A100081E080935902F3CF81E080935A0246CF40
:102A200083E290E00E94F22B8A3C89F484E290E0F9
:102A30000E94F22B873259F485E290E00E94F22B3B
:102A400091E08C3209F090E0892F8170089580E048
:102A5000FCCFCF93C82F6FEF81116AEC83E290E037
:102A60000E94002C6FEFC11167E284E290E00E94A7
:102A7000002C6FEFC1116CE285E290E00E94002C07
:102A8000CF910895089586E290E00E94F22B682F7E
:102A900070E090E080E008950895CF93C62F0E94E3
:102AA0004C156C2F86E290E00E94002CCF91089587
:102AB00080E00E94291560E070E0CB010E944D1576
:102AC0000E94A1190E94F31A81E00E94291508951D
:102AD0000E9442150E9443150E944C150E94101539
:102AE000811102C00E9458150895CF93FB01C28145
:102AF000CC2309F19C0122513F452031310520F5BD
:102B000082510E94031BC0E08C2FCF91089581E079
:102B10000E94B30843E062E081E00E942703F3CF04
:102B200081E00E94BF0843E062E081E00E94270349
:102B3000EBCF82E0F6CF8031FFE59F0789F381314B
:102B40009F45B9F3C1E0E0CF8031EFE59E07F9F290
:102B500081319F45C9F682E0DBCF2FEFFC01208356
:102B600008951F93CF93DF93EC01162F8881209156
:102B7000E8023091E902232B79F08E3F09F068C01A
:102B80008981833020F08550833008F061C0612F47
:102B9000CE010E9431175CC08C3009F494C0D0F48F
:102BA000843009F477C060F4823009F441C008F041
:102BB00064C08130C9F1612FCE010E94AD1548C0BB
:102BC000863009F47DC008F470C08A30A0F78FEF1A
:102BD00088833EC0803109F493C0D8F48E3009F464
:102BE0007EC008F474C080910C0190910D01892B76
:102BF00079F16B8170E06D31710550F589819A81B1
:102C0000AE014C5F5F4F9827892798270E94CE1A04
:102C10001FC0823109F47AC008F475C0833109F409
:102C200086C08E3F41F6B3CF198289E08A8310C0F7
:102C300089818230A9F08330B1F0813009F0BBCFB7
:102C40000E945B230E94732B6A837B838C839D830A
:102C5000612FCE010E946B24DF91CF911F910895C7
:102C60000E944315EFCF80910C0190910D01892BAB
:102C700079F380E00E947C11D9CF8981823009F0FC
:102C80009ACF6A817B818C819D810E94732B0E94E7
:102C90004D15DECF4B816A8189810E94D01898271B
:102CA000892798279D838C83D3CF2C813D81322720
:102CB000232732274B816A8189810E94FA18C8CF65
:102CC0000E94A119C5CF0E94A41A8983C1CF0E9476
:102CD000A61A9827892798279A838983B9CF6B8169
:102CE00070E06D31710508F0B3CF89819A81AE0132
:102CF0004C5F5F4F9827892798270E94A91AA8CF71
:102D00000E94F31AA5CF0E94CE18DFCF6B8170E02E
:102D10006D31710508F09CCF89819A81AE014C5FBD
:102D20005F4F9827892798270E942B1A91CF6B8194
:102D300070E06D31710508F08BCF89819A81AE0109
:102D40004C5F5F4F9827892798270E944E1A80CFA3
:102D5000AAE0B0E0EEEAF6E10C94812B0DE612E079
:102D60008BE5C82E82E0D82EF12C97E0E92E99242D
:102D7000939425EEA22E22E0B22ED6010D931D9340
:102D80006D01BE016F5F7F4F8F2D0E947919892BD6
:102D900009F056C0F8013896DF018E2D1D928A95F4
:102DA000E9F789819A81D80111969C938E938F813E
:102DB00012968C9312978D8113968C931397888516
:102DC00014968C931497898515968C9315978B81FF
:102DD0009C8117969C938E93169718961C92189721
:102DE0008A8587FF37C01E961C921E921D9780FF12
:102DF00003C0D80118969C9281FF04C0F801908509
:102E00009260908782FF07C0D80118969C9118970E
:102E1000946018969C9383FF04C0F8019085986095
:102E2000908784FF07C0D80118969C9118979061ED
:102E300018969C9385FF04C0F80180858062808786
:102E4000015F1F4FF394F8E0FF1297CF2A96EBE053
:102E50000C949D2BF801B686A586C9CF0E94A816B2
:102E60000895CF92DF92FF920F931F93CF93DF933A
:102E7000CDB7DEB72A970FB6F894DEBF0FBECDBF31
:102E80008C01603269F5DC011196EC911197EE30FE
:102E900038F5F0E0E65BF34D0C946D2B88E0ECE147
:102EA000F1E0DE01119601900D928A95E1F780E242
:102EB000F80111928A95E9F785E0D8018C93119673
:102EC0001C92119712961C92129713961C921397AC
:102ED00088E0FE013196149601900D928A95E1F7F3
:102EE0002A960FB6F894DEBF0FBECDBFDF91CF910B
:102EF0001F910F91FF90DF90CF90089588EFF80118
:102F00008083118212821382EBCF13968C911397D8
:102F1000682F70E0762F662712968C91860F972F78
:102F2000911D092E000CAA0BBB0B35E0880F991FD1
:102F3000AA1FBB1F3A95D1F7AC01BD01405E5F4FA0
:102F40006F4F7F4F481759076A077B0748F2883F42
:102F50009105A105B10520F6493F510561057105AF
:102F600020F048EF50E060E070E0481B590BBC01D6
:102F70006C577E4FC8010E94C52BB2CFFC01F28076
:102F8000D38040E06D2D8F2D0E941B199827892733
:102F90009827D8018D939C9341E06D2D8F2D0E9431
:102FA0001B19982789279827F8019383828398CF44
:102FB00015962D913C913227232732272115BCE508
:102FC0003B0741F480910C0190910D01892B11F484
:102FD00030E020E041E0F8018481811101C040E04F
:102FE000D80113966C91139712968C910E944E19EA
:102FF00077CF40E250E06FEF70E00E94DB2B8091D2
:103000000C01F80180838091E802818369CF81E01F
:1030100090E09093E9028093E80282E390E090933D
:10302000E7028093E6020E944F235ACF80910C0161
:103030008C938091E80211968C9311978091E6020F
:1030400012968C934DCF40E250E06FEF70E00E94FB
:10305000DB2B46CFFC018281853069F0863011F18F
:1030600081113ECF80E21D928A95E9F7108211828C
:1030700088E0828335CF13968C919AE0F92EFE0179
:1030800031966F01DF01EF2D1D92EA95E9F7B60148
:103090000E947919D8018D93F60101900D92FA944E
:1030A000E1F71ECF13968C919AE03496DE011196CB
:1030B00001900D929A95E1F72B813C812115BCE599
:1030C0003B0741F440910C0150910D01452B11F447
:1030D00030E020E03C832B83BE016F5F7F4F0E9476
:1030E0008D19F80180830E94A816FACEA5E0B0E001
:1030F000ECE7F8E10C948A2B909337038093360326
:10310000811520E2920730F40E948F022596E2E0BA
:103110000C94A62B80EF89838A8381E08B830E94A5
:103120004F238160782F9D838C8349815A816B81E5
:103130008D810E94B604EACFA5E0B0E0E2EAF8E1B2
:103140000C948A2B9093370380933603811520E2E9
:10315000920730F40E94A5022596E2E00C94A62B7B
:1031600080EF89838A831B820E944F238160782F9E
:103170009D838C8349815A816B818D810E94B60425
:10318000EBCFCF93DF93EC010E947618CE010E9423
:103190009C18DF91CF91089581E0089582E0089511
:1031A0000F931F93CF93DF93823008F561111FC0F7
:1031B0004830E8F420E1829F8001112450E0440F60
:1031C000551F040F151FC80187960E94F22BC82FA8
:1031D000D0E0DC2FCC27C80188960E94F22B9E01FC
:1031E000282BC901DF91CF911F910F91089590E095
:1031F00080E0F8CF1F93CF93DF93122F8230B8F483
:10320000611115C0483098F490E1899FE0011124C4
:1032100050E0440F551FC40FD51F632FCE01879672
:103220000E94002C612FCE0188960E94002CDF9115
:10323000CF911F910895FF920F931F93CF93DF9328
:10324000F42E823040F5611126C024E0829F800177
:103250001124095B1F4F82E090E0442311F090E0BD
:1032600080E0800F911F0E94F22BC82FD0E0DC2F4E
:10327000CC2783E090E0FF2011F081E090E0800F08
:10328000911F0E94F22B9E01282BC901CDB7DEB7FA
:10329000E5E00C94A32B90E080E0F8CF0F931F9310
:1032A000CF93DF93142F022F8230F0F461111CC0F2
:1032B00094E0899FE0011124C95BDF4F82E090E038
:1032C000442311F090E080E0632F8C0F9D1F0E943B
:1032D000002C83E090E0112311F081E090E0602F5A
:1032E0008C0F9D1F0E94002CDF91CF911F910F9199
:1032F00008959B01883070F49AE0899FB0011124F1
:10330000615B7F4F4AE050E0C9010E94E22B90E0F0
:1033100080E008958FEF9FEF08959B01883070F44F
:103320009AE0899FB0011124615B7F4F4AE050E031
:10333000C9010E94242C90E080E008958FEF9FEF58
:103340000895CF92DF92EF92FF921F93CF93DF9376
:10335000CDB7DEB72A970FB6F894DEBF0FBECDBF4C
:10336000E0900C01F0900D0181E090E090930D0150
:1033700080930C019CEAC92E90E0D92E10E0F60152
:1033800025913491412F60E080E00E94FA1882E09C
:10339000C80ED11C1F5F183091F7ECECF0E02591BE
:1033A000349141E060E080E00E944E19EEECF0E0E4
:1033B0002591349140E060E080E00E944E198CEB52
:1033C000C82E80E0D82E10E0F60125913491412FCF
:1033D00060E081E00E94FA1892E0C90ED11C1F5FE4
:1033E000183091F7E0EDF0E02591349141E060E094
:1033F00081E00E944E19E2EDF0E02591349140E029
:1034000060E081E00E944E19FE0131966F018AE072
:1034100011928A95E9F78FEF9FEF9E838D8387E066
:103420008A8710E0B601812F0E948D191F5F183026
:10343000C9F7F0920D01E0920C012A960FB6F894AC
:10344000DEBF0FBECDBFDF91CF911F91FF90EF90F8
:10345000DF90CF900895EF92FF920F931F93CF9339
:10346000DF93EC018A017C01E60EF71ECE01879600
:10347000CE15DF0529F4CDB7DEB7E6E00C94A22B1C
:10348000C032D10540F40E94F22BF80180830F5F17
:103490001F4F2196EBCFF8011082F9CFB0E0A0E0EA
:1034A000E4E5FAE10C94842B8C016A01809780F4A6
:1034B00080E290E0801B910B8617970748F0780117
:1034C000E60EF71EE801CE018796CE15DF0529F43A
:1034D000CDB7DEB7E8E00C94A02BC032D10540F4A4
:1034E000FE01E01BF10BEC0DFD1D60810E94002C24
:1034F0002196E9CF462F2091E8023091E902232B53
:1035000001F5703F39F4603FE1F48091360390910A
:10351000370308958230A8F4711106C0683088F42A
:1035200060E00E94D01808957D3F39F4611109C010
:1035300041E060E00E941B1908957C3F11F466236E
:10354000C1F390E080E0089580E1089581E693E082
:103550000895EF92FF920F931F93CF93DF93EC01A7
:103560008A017C01E60EF71ECE0181569F4FCE15D3
:10357000DF0529F4CDB7DEB7E6E00C94A22BC13607
:1035800023E0D20740F40E94F22BF80180830F5F02
:103590001F4F2196E9CFF8011082F9CFB0E0A0E0EB
:1035A000E4EDFAE10C94842B7C016A018C01060F96
:1035B000171FEC01CE0181569F4FC017D10729F488
:1035C000CDB7DEB7E8E00C94A02BC13623E0D207DC
:1035D00040F4FE01EE19FF09EC0DFD1D60810E9413
:1035E000002C2196E7CFCF93DF93CFE9D0E060E0C6
:1035F000CE010E94002C2196C11584E0D807B9F7AE
:10360000DF91CF910895A4E0B0E0E9E0FBE10C94F4
:10361000832BF82E2FE0281708F4A4C08FEF93E037
:103620000E94F22B81119EC00FE910E0F11036C00C
:1036300019821A821B821C82BB24BA9478015FEF24
:10364000E51AF50AC8010E94F22B89831A828823A1
:1036500009F488C0813009F07FC0680182E0C80E9B
:10366000D11CC7010E94F22BE82E8A83882309F41B
:1036700079C0C6010E94F22BF82E8FEF8E0D833099
:10368000D8F46801E3E0CE0ED11CFB82FF2021F0CC
:10369000CE0101960E948B048601D0CF011544E033
:1036A000140709F45FC0C8010E94F22B811101C008
:1036B000FA940F5F1F4FBACF8BEF8E0D833030F52A
:1036C000C8010396FB826C01FF2031F36801F4E02E
:1036D000CF0ED11C0E94F22B8C838823E9F28B81C0
:1036E0009C8181302FEF920710F0982F882746E0B9
:1036F000E41631F057E0E51631F00E94C118CCCF46
:103700000E947618C9CF0E949C18C6CF84E0E812A8
:10371000C3CF6801E4E0CE0ED11CC80103960E941D
:10372000F22BFF20F9F08823E9F08150990BB89E25
:103730009001B99E300D11244F2D4150550BCA01F7
:10374000820F931F019708F4A7CFEFE9FFE03197AD
:10375000F1F700C00000F6CFCE0101960E948B0465
:1037600067019ACF2496E9E00C949F2BCF93DF93C7
:10377000EC01FB018281882309F433C1C330FDE5EC
:10378000DF07C0F5CA3F9CE5D90730F49E012250FF
:103790003C4524313105B0F50E94030E909333036C
:1037A00080933203C1318CE5D80709F4EEC008F0EC
:1037B00069C0C930ECE5DE0709F4D5C0C8F5C530ED
:1037C0008CE5D80709F4C7C000F5C330ECE5DE0787
:1037D00009F4B9C008F0BBC0C230DC4509F4ADC083
:1037E00080913203909133030E94110E0E943C0895
:1037F00080E008C0C136EDE5DE0771F2C53AFDE5AF
:10380000DF0751F2DF91CF910895809132038062FA
:10381000C7309CE5D90709F493C0809132038061D9
:10382000C830DC4508F48CC080913203806488C0C5
:10383000809132038B7FCD30FCE5DF0709F480C037
:1038400098F4809132038E7FCB309CE5D90709F440
:1038500077C0809132038C60CC30DC4508F470C0B6
:10386000809132038D7F6CC0809132038F7ECF3088
:10387000FCE5DF0709F464C008F47BC080913203E3
:103880008F7D5EC0CD3F9CE5D90709F47AC050F525
:10389000C531FCE5DF0709F486C098F48091320356
:1038A000837FC3319CE5D90709F44AC008F471C08D
:1038B0000E943C0890913203892F97FB87F980582A
:1038C0003FC0CB3FFCE5DF0709F449C008F055C015
:1038D000809133038160CA3FDC4509F081CF80933A
:1038E00033037ECFC130EDE5DE0709F468C0A8F4EC
:1038F000CF3F8CE5D80709F452C080913303836031
:10390000C115DD4560F380913303982F9095917038
:103910008E7F892B90FB81F9E2CFC136EDE5DE0782
:1039200009F451C0C53AFDE5DF0709F453C0C230C0
:10393000DD4509F055CF80E043C0809132038160BE
:10394000809332034DCF809132038260F9CF809112
:1039500032038460F5CF809132038860F1CF80918B
:1039600033038260BCCF0E943C08809132038068A0
:10397000E7CF80913203877FE3CF809133038E7F3F
:10398000AECF809133038D7FAACF809132038F7B9E
:10399000D7CF0E943C08809132038F77D1CF80919E
:1039A00033038C7F9CCF8091320382FB992790F95F
:1039B00021E0922790FB82F990FB83F9C1CF81E04F
:1039C0000E949D0E0DCF90913203892F8F7E94FF20
:1039D0008061B6CF90913203892F8E7F90FF8160F6
:1039E000AFCF81E00FCF8FE891E00197F1F700C0F2
:1039F0000000089581E08093EB0223982B9A22988F
:103A00002A9A0E94F31C2091EB024DEE52E0FA013B
:103A10008E2F841B821708F0089583B183FB8827BB
:103A200080F91A9904C090E0892B8193F1CF92E03C
:103A3000FBCFA4E1B0E0EFE1FDE10C947F2B10E0BF
:103A400000E084E0C82ED12C9DEF992E8824839429
:103A50002CEF722E8091EB02181728F0802F6496BD
:103A6000EDE00C949B2BE12EF12CE3B1E3FBEE2770
:103A7000E0F91A9991C080E08E2BD701A351BD4F78
:103A8000EC919E2F9370981709F484C0EE0FEE0FFF
:103A9000E82BEC93EF70F0E0E257FE4FC701845142
:103AA0009D4F5C018081F5019081890F808320E02A
:103AB00084308CF1F701E651FD4F80818F5F808368
:103AC0000E944F231B877C868D868160782F9F877D
:103AD0008E87412F5CEF61E08F850E94B6048FE3F3
:103AE0009FE10197F1F700C000000E944F23188B5F
:103AF000798A1A8A8160782F9C8B8B8B412F5CEF9F
:103B000060E08C890E94B604EFE3FFE13197F1F7A2
:103B100000C0000021E0F50180818D3F8CF5F701A8
:103B2000E651FD4F8081815080830E944F2319838D
:103B30009A828B828160782F9D838C83412F5DEFE9
:103B400061E08D810E94B6048FE39FE10197F1F758
:103B500000C000000E944F231E839F821886816050
:103B6000782F9A878987412F5DEF60E08A850E94D0
:103B7000B604EFE3FFE13197F1F700C0000021E068
:103B8000F5018081082E000C990BB6010E94592B7B
:103B90008083022B1F5F5ECF82E06ECFCF93DF93D7
:103BA000EB0186319C4511F50E94B30C9A81992353
:103BB00099F08A7A91E009F490E09093EE028111F5
:103BC00009C089E20E94630C0E941B0D80E0DF9116
:103BD000CF91089585E3F6CF8091EE02811104C064
:103BE00089E20E946B0CF0CF85E3FBCF81E0EFCF41
:103BF000FC018481862351F492819923B9F06923D1
:103C0000808583FF05C081E061110FC080E00895C9
:103C1000892F8F7092959F70982B862F8F70629549
:103C20006F70682B81E09613F1CF089581E0FDCF8E
:103C3000CF93DF93EC016091F9027091FA028091C9
:103C4000FB029091FC020E947623643F7140810543
:103C5000910518F58091F9029091FA02A091FB026A
:103C6000B091FC028093F5029093F602A093F702C4
:103C7000B093F80284EF91E0A0E0B0E08093F1020D
:103C80009093F202A093F302B093F402D093F00267
:103C9000C093EF02DF91CF9108950E945B23609360
:103CA000F5027093F6028093F7029093F80282E394
:103CB00090E0A0E0B0E0E2CFFF920F931F93CF938C
:103CC000DF93F82E009100031091010301151105F7
:103CD00009F44DC01092F0021092EF020E94DF0C26
:103CE0000E94D90C0091000310910103D80116968F
:103CF000CD91DC919E013A9521153F4108F4D07E8B
:103D0000D1E0C11101C0D0E0D8011996ED91FC912C
:103D10001A97309731F01B966D917C9180E0099550
:103D2000D823DD2339F08CEF8C0F813A30F58C2FBE
:103D30000E946B0CFF2099F0E0910003F0910103C9
:103D4000808584FD0CC08091FF02882341F0808132
:103D500091819C01215031092C3A3D45A0F00E94EF
:103D60001B0D10920103109200031092FF02C80174
:103D7000CDB7DEB7E5E00C94A32B0E941B0D8C2F72
:103D80000E944D05D7CF0E94181EE9CF10920E0158
:103D900080E00E945C1E089580910E01882319F036
:103DA0000E94C61E089581E080930E0108950F932E
:103DB0001F938091EF029091F002892B89F160911D
:103DC000F5027091F6028091F7029091F8020E943C
:103DD00076230091F1021091F2022091F3023091CA
:103DE000F4026017710782079307D0F08091EF0209
:103DF0009091F0020E948F021092F0021092EF0256
:103E00001092F5021092F6021092F7021092F80248
:103E10001092F1021092F2021092F3021092F40248
:103E20001F910F910895A4E0B0E0E9E1FFE10C9447
:103E30007A2B8C017A836983DB0112965C90552082
:103E4000B1F08F35BDE59B0759F08036EDE59E0753
:103E500059F08E359D4559F40E94CC1E312C0DC071
:103E600081E080930E01FACF0E94C61EF7CF3090FA
:103E70000E01311007C033243394832D2496E2E1E0
:103E80000C94962B680120EEC21AD1080E94B30C44
:103E9000F82E0E947A0C482E0E94E20C482A4F28E5
:103EA00038E0C316D10408F094C098012770332776
:103EB00081E090E001C0880F2A95EAF7552009F4C7
:103EC00085C0482AA981BA818D919C910E9456098A
:103ED00080900A0190900B018114910409F4E1C0D3
:103EE00021E030E0390102C0660C771C8A95E2F7C8
:103EF000E0910003F0910103FA83E983A090FD02B1
:103F0000B090FE02212CE22DF0E0EE0FFF1FE80D35
:103F1000F91D208131813C832B832115310509F462
:103F2000C0C0411005C0D90112968C9181118BC07F
:103F3000EB81FC81838190E086219721892B09F414
:103F400082C08085982F977009F487E0F8E0CF163B
:103F5000D10408F058C0552009F451C086958170ED
:103F6000882309F470C0AB81BC81ED90FC900E15E4
:103F70001F0519F4552009F466C0EB81FC812981E5
:103F80003A81E217F30709F45EC00584F685E02D57
:103F9000309721F08081882309F455C0642D8B81EE
:103FA0009C810E94F81D882309F44DC00E151F0541
:103FB00009F08BC00115110509F48CC051108CC09B
:103FC000EA14FB0409F03FC0512C86C080954822BA
:103FD00079CF552009F44EC01093FE020093FD02E4
:103FE0000E945B236093F9027093FA028093FB02B4
:103FF0009093FC021092F0021092EF0263CF82FBCA
:10400000882780F9ADCF5520F1F08170A9CF0E94AB
:104010004D0583C00497813A910548F4802F0E9492
:10402000630C552009F427CF0E941B0D17CF0E9467
:104030001B0D8FE39CE90197F1F700C00000802F72
:104040000E940105EECF23945ECFFC0120813181D7
:104050002017310731F4511007C01092FF0280E0A1
:1040600031C0552009F407CFDC0118968C9185FDED
:1040700002CFF5CF8091FD029091FE02801791074B
:1040800081F41092FE021092FD021092F902109239
:10409000FA021092FB021092FC021092F0021092AF
:1040A000EF028091000390910103009709F4E3CEA1
:1040B000A8E0CA16D10448F6642D0E94F81D8111AB
:1040C000DACE81E00E945C1ED8CEE114F10409F042
:1040D00077CF512CF12CE12C80E00E945C1EEB810B
:1040E000FC81F0930103E093000381E08093FF02E1
:1040F00085810E94DC0C511010C0E114F10469F0BC
:10410000AB81BC818D919C919C0124503109213A55
:10411000310508F07CCF0E946B0CEB81FC8106819D
:104120001781C8019A9581159F4108F4107EFF24DC
:10413000F394C80101978C3A9D4508F0F12CAB81AE
:10414000BC811996ED91FC911A97309731F01B962E
:104150006D917C9181E00995F822FF2081F0EB813F
:10416000FC81868197810E9454020E94D60CC8016E
:10417000F8E0CF16D10408F04DCF0E94181E0E941F
:104180001B0D4FCF0F931F93CF93DF93C42FD22FCD
:10419000FC0182818823C9F0409304030E944F23CD
:1041A000909303038093020380E28C0F883040F4E5
:1041B000C77081E001C0880FCA95EAF70E94A00588
:1041C000DF91CF911F910F91089510910403141363
:1041D00032C080910203909103030E946723883CC0
:1041E000910548F5C0E2CD0F1D17B9F080E2810FAF
:1041F000883040F4177081E001C0880F1A95EAF703
:104200000E94A705C83048F481E09D2F977001C037
:10421000880F9A95EAF70E94A005802F0E949705C3
:10422000C83070F6D77081E001C0880FDA95EAF7E0
:104230000E94A705C5CF80E28C0F883008F6C770B2
:1042400081E001C0880FCA95EAF7F2CF0F939C0175
:10425000CB01233F4CE5340759F1A8F4283DFCE598
:104260003F0701F1293D4CE53407D1F1273D3C459D
:1042700091F406E221EE41EE67ED7CE50E94C2205A
:1042800080E00F910895253FFCE53F07E9F0B0F08D
:10429000263F3C45F9F0FC018281882339F11092D8
:1042A0000403EFCF07E225EE45EE68ED7CE5E6CFAF
:1042B00006E221EE40EE63EF7CE5E0CF07E225EE7B
:1042C00044EE64EF7CE5DACF06E221EE42EE65EFE4
:1042D0007CE5D4CF07E225EE46EE66EF7CE5CECF57
:1042E00008E221E045EE69ED7CE5C8CF81E0C9CF69
:1042F0009093AF018093AE01089590930A03809349
:1043000009030895E0910903F0910A03309729F019
:104310000190F081E02D0995089580E00895E091E5
:104320000903F0910A03309799F020911B01222391
:1043300059F02091320327FF07C0DC012C91119620
:104340002C93119726E02C930280F381E02D0995A0
:104350000895E0910903F0910A03309739F022E0C3
:10436000DC012C930480F581E02D099508952091BE
:104370000703309108032817390771F09093080359
:1043800080930703E0910903F0910A03309721F02D
:104390000680F781E02D099508952091050330915D
:1043A00006032817390771F09093060380930503DD
:1043B000E0910903F0910A03309721F00084F18520
:1043C000E02D09950895FC01329680911B01882308
:1043D00021F0809132039EE187FF96E080E09150CA
:1043E00008F4089521912223D1F38F5FF8CF66233B
:1043F00001F120911B012223F1F02091320327FFCC
:104400001AC0462F4695469546954E3190F46770F2
:1044100021E030E002C0220F331F6A95E2F7840FDB
:10442000911DFC01828190E02823392381E0232B18
:1044300069F480E00895FC013296089621912617D0
:1044400021F0E817F907D1F7F4CF81E008959C0136
:10445000FC0132969FEF80E04191461751F09F3F5B
:1044600019F4411101C0982F8F5F8630A9F79F3F43
:1044700009F40895290F311D97FD3A95F9016283DA
:104480000895FC01329608962191261303C0DF019E
:1044900011971C92E817F907B9F70895E62FE695EA
:1044A000E695E695EE3168F4E80FF92FF11D677097
:1044B00021E030E001C0220F6A95EAF78281822B69
:1044C00082830895E62FE695E695E695EE3170F441
:1044D000E80FF92FF11D677021E030E001C0220FD5
:1044E0006A95EAF7209582812823228308952091F6
:1044F0001B01222339F02091320327FF03C00E94C1
:104500004E2208950E942722089520911B01222304
:1045100039F02091320327FF03C00E9462220895E0
:104520000E9441220895FC01329680911B0188234C
:1045300051F08091320387FF06C08EE1DF011D92AA
:104540008A95E9F7089586E0F9CF46E050E00E94A9
:10455000CE2B21E0892B09F420E0822F08950895C5
:104560000E94AF220895811106C081E080930B0361
:104570000E94B022089582E0F9CF83E080930B037C
:104580000E94B02208950E94B322089581E0809392
:104590000B030E94B02208950E94C6220895089538
:1045A00008950E94D0220895089508950E94CF2270
:1045B00008950E94D4220E94FE110E94D52280E01C
:1045C0000E947C1191E0811101C090E0892F089533
:1045D00085B7806885BF85B7806885BF08951F92BD
:1045E0001FB61F9211248F939F93AF93BF93809117
:1045F0000C03811113C08091380390913903A0916D
:104600003A03B0913B034196A11DB11D809338033D
:1046100090933903A0933A03B0933B03BF91AF91BA
:104620009F918F911F901FBE1F90189580914003FE
:10463000843031F10E94BE0310920C0388E190E0B7
:1046400020E40FB6F894A895809360000FBE2093E5
:10465000600083B7817F846083BF83B7816083BF3D
:104660007894889583B78E7F83BF0FB6F894A8950A
:1046700080916000886180936000109260000FBE9E
:1046800008950E943C080E94C303089582E084BDFF
:1046900093E095BD9AEF97BD80936E0008952FB774
:1046A000F8948091380390913903A0913A03B09126
:1046B0003B032FBF08952FB7F89460913803709192
:1046C000390380913A0390913B032FBF08959C01D9
:1046D0004FB7F8948091380390913903A0913A0331
:1046E000B0913B034FBF821B930B0895CF92DF9293
:1046F000EF92FF922FB7F894C0903803D09039030F
:10470000E0903A03F0903B032FBFA7019601261BD0
:10471000370B480B590BCA01B901FF90EF90DF909E
:10472000CF90089578941F921FB61F9211248F93F3
:104730009F93AF93BF938091380390913903A091D9
:104740003A03B0913B030196A11DB11D809338033C
:1047500090933903A0933A03B0933B03BF91AF9179
:104760009F918F911F901FBE1F90189587E797E725
:10477000909301088093000888E19AE00FB6F894BE
:10478000A895809360000FBE90936000FFCF88E1F2
:104790009AE00FB6F894A895809360000FBE9093AE
:1047A0006000FFCF80913003089508959C0184E05C
:1047B0008093E9009FEF8091E800915085FD06C04D
:1047C00085ED8A95F1F700009111F5CF8091E80011
:1047D00085FF0CC050E040E066E070E0C9010E9437
:1047E00083268091E8008E778093E8000895CF9328
:1047F000DF93EC0180911B018823B1F1809132039A
:1048000087FF32C060E284E08093E9008FEF9091EF
:10481000E800815095FD06C095ED9A95F1F70000EE
:104820008111F5CF8091E80085FF1BC080911B01AD
:1048300070E050E040E0811104C050E040E068E0EA
:1048400070E0CE010E9483268091E8008E778093ED
:10485000E80080E2FE01A0E1B3E001900D928A95AC
:10486000E1F7DF91CF91089568E081E0CDCF8093AB
:104870000D0370930F0360930E0380914003843007
:10488000F9F48093E9008FEF9091E800815095FD55
:1048900006C095ED9A95F1F700008111F5CF809152
:1048A000E80085FF0DC050E040E063E070E08DE07F
:1048B00093E00E9483268091E8008E778093E80041
:1048C0000895BC0184E00E9437240895BC0183E070
:1048D0000E9437240895CF93FC01603221F5809126
:1048E0004003843001F5C091E900CF702091EC00C5
:1048F000922F917020FD90E8C92B82E08093E9000F
:104900008091E80080FF0CC050E040E060E270E081
:10491000CF010E9483268091E8008E778093E80083
:10492000CF70C093E900CF91089580913F0381112A
:1049300009C00E9462280E94BF288091E200846022
:104940008093E200089510923F0308950E94C622CA
:10495000089560913C0381E0611101C080E00E94F4
:10496000BD2208959091400381E0943009F080E0E9
:1049700060913C030E94C322089542E061EC81E013
:104980000E94DE2742E261EC84E00E94DE2742E2E0
:1049900061EC82E00E94DE2742E260EC83E00E944C
:1049A000DE279091400381E0943009F080E060912F
:1049B0003C030E94B322089580914203833009F49E
:1049C00063C030F48130E1F1823009F4A0C0089571
:1049D0008A3009F48CC08B3009F471C0893009F039
:1049E00052C080914103813209F04DC0809145034E
:1049F00090914603009719F0029709F044C0809106
:104A0000E800877F8093E8008091E80082FF37C04C
:104A10009091F3008091F200029731F48091F100BF
:104A2000813011F0863021F48091F10080933003C1
:104A30008091E8008B778093E8000E94122823C0C1
:104A400080914103813AF9F48091E800877F809357
:104A5000E8008091450390914603892B61F460E260
:104A600080E193E070E00E9421278091E8008B773D
:104A70008093E800089560E090E080E0F3CF8091BB
:104A800040038111C1CF089580914103813AD9F744
:104A90008091450390914603892BA9F78091E80006
:104AA000877F8093E8008091E80080FFFCCF8091B1
:104AB0001B018093F1008091E8008E77BCCF80913C
:104AC0004103813201F78091450390914603892B80
:104AD000D1F68091E800877F8093E8000E94122839
:104AE0008091430380931B010E943C0808958091AC
:104AF0004103813241F68091E800877F8093E8008E
:104B00000E9412288091440380933103089580917C
:104B10004103813A09F0B7CF8091E800877F809305
:104B2000E8008091E80080FFFCCF80913103C1CF85
:104B300084B7877F84BF0FB6F894A89580916000F2
:104B4000886180936000109260000FBE80E890E062
:104B50000FB6F89480936100909361000FBE0E949D
:104B6000CC2208950E9462280E94BF28E2EEF0E065
:104B700080818460808378940E943E2B08958FE02A
:104B800091E00E947D21089580914003853031F4A9
:104B900080914003853019F00E94412308950E94BE
:104BA000162380913E03882399F30E94D9228823FB
:104BB00079F30E946D260E943C08EACFA0E2B0E0A3
:104BC000E4EEF5E20C948A2B80914003843009F5E1
:104BD00083E08093E9008091E80082FF1AC0809111
:104BE000E80090E085FF09C050E040E060E270E03E
:104BF000CE0101960E94D22691E08091E8008B7749
:104C00008093E800992329F060E2CE0101960E948A
:104C1000B115A096E2E00C94A62B0E9410260895F0
:104C2000292F33272330310521F168F42130310554
:104C300009F449C02230310509F44AC090E080E00F
:104C400030E020E029C02132310581F122323105E6
:104C5000A9F76330710590F7FB01EE0FFF1FEF55C9
:104C6000FE4F2081318162567E4FFB01808190E0B2
:104C700013C099278130910599F0009741F0823057
:104C8000910589F00397D1F6ECE7F2E002C0EAED76
:104C9000F2E0849190E09F01FA013183208308952E
:104CA000EAEBF2E0F6CFEAE9F2E0F3CF6330710528
:104CB00028F6660F771FFB01E955FE4F20813181F1
:104CC00089E090E0E9CF82E190E029E333E0E4CFAE
:104CD0008BE590E02EED32E0DFCF80E189BD82E10F
:104CE00089BD09B400FEFDCF8091D8008F7D8093EF
:104CF000D8008091E00082608093E0008091E00025
:104D000081FDFCCF0895AF92BF92CF92DF92FF92C8
:104D10000F931F93CF93DF936C01EB018A010E94E5
:104D20003128F82E811123C00115110539F0F80141
:104D300080819181C81BD90BC80ED91EB12CA12C22
:104D40002097A9F08091E80085FD22C08091E800BD
:104D50008E778093E80001151105A1F0F80180819C
:104D60009181A80EB91EB182A08285E0F82E8F2D08
:104D7000DF91CF911F910F91FF90DF90CF90BF9067
:104D8000AF9008950E9431288823D1F2F82EEFCFFA
:104D9000F60181916F018093F1002197FFEFAF1A27
:104DA000BF0ACECFAF92BF92CF92DF92FF920F9306
:104DB0001F93CF93DF936C01EB018A010E9431288E
:104DC000F82E811123C00115110539F0F8018081F9
:104DD0009181C81BD90BC80ED91EB12CA12C2097CC
:104DE000A9F08091E80085FD22C08091E8008B77D2
:104DF0008093E80001151105A1F0F80180819181EF
:104E0000A80EB91EB182A08285E0F82E8F2DDF9109
:104E1000CF911F910F91FF90DF90CF90BF90AF90F7
:104E200008950E9431288823D1F2F82EEFCF809187
:104E3000F100F60181936F012197FFEFAF1ABF0ACE
:104E4000CECFFC01809147039091480386179707C6
:104E5000A0F06115710529F49091E8009E77909378
:104E6000E80090E06115710551F4911108C080913E
:104E7000E80082FF34C080E00895BC01F2CF809149
:104E800040038823C1F18530C1F18091E80083FDA2
:104E900030C08091E80082FDEACF8091E80080FF79
:104EA000E1CF8091F3002091F200382F6115710558
:104EB00019F02830310558F091E02830310509F01B
:104EC00090E02091E8002E772093E800CBCF8191ED
:104ED0008093F100615071092F5F3F4FE7CF8091C0
:104EE0004003882341F0853041F08091E80083FF42
:104EF000BECF81E0089582E0089583E00895FC012B
:104F0000809147039091480386179707A0F0611599
:104F1000710529F48091E8008E778093E80090E095
:104F20006115710551F4911108C08091E80082FF6C
:104F300035C080E00895BC01F2CF80914003882302
:104F4000C9F18530C9F18091E80083FD31C08091BD
:104F5000E80082FDEACF8091E80080FFE1CF8091F8
:104F6000F3002091F200382F6115710519F02830F7
:104F7000310558F091E02830310509F090E080913A
:104F8000E8008E778093E800CBCF84918093F10086
:104F90003196615071092F5F3F4FE6CF80914003FA
:104FA000882341F0853041F08091E80083FFBDCF38
:104FB00081E0089582E0089583E00895982F973066
:104FC00028F08F708093E90081E008959093E900C4
:104FD000242F762F50E0981731F07091EC0020913B
:104FE000ED005091F00021FD02C09F5FE8CF3091AD
:104FF000EB003E7F3093EB003091ED003D7F30932E
:10500000ED003091EB0031603093EB007093EC00D9
:105010002093ED005093F0002091EE0027FDE5CFA6
:1050200080E008958091410387FF13C08091E800DC
:1050300082FF06C08091E8008B778093E80004C06F
:10504000809140038111F2CF08958091400388231D
:10505000D9F38091E80080FFF8CF8091E8008E7747
:10506000ECCF2091E4003091E50095E6A901209174
:10507000EC00822F817020FF06C08091E80080FF45
:1050800006C080E008952091E80022FD1AC08091BA
:105090004003882389F0853089F08091EB0085FDFD
:1050A0000FC02091E4003091E50042175307F9F258
:1050B0009150E1F684E0089582E0089583E0089538
:1050C00081E008950E94D1280E94D928E0EEF0E006
:1050D000808181608083E8EDF0E080818F7780833C
:1050E00019BCA7EDB0E08C918E7F8C9380818F7E70
:1050F000808310923F0308950F931F93CF93DF9304
:105100000E94D1280E94D928C8EDD0E088818F77ED
:10511000888388818068888388818F7D888319BC93
:105120001092400310923C0310923E0310923D03F4
:1051300000EE10E0F80180818B7F808388818160A0
:10514000888342E060E080E00E94DE27E1EEF0E04C
:1051500080818E7F8083E2EEF0E0808181608083B9
:10516000808188608083F80180818E7F8083888140
:1051700080618883DF91CF911F910F910895E8EDB1
:10518000F0E080818F7E8083E7EDF0E080818160B8
:10519000808384E082BF81E080933F030E947C286B
:1051A0000895E8EDF0E080818E7F80831092E20028
:1051B00008951092DA001092E10008951F920F9264
:1051C0000FB60F9211242F933F934F935F936F93DA
:1051D0007F938F939F93AF93BF93EF93FF938091B0
:1051E000E10082FF0BC08091E20082FF07C0809146
:1051F000E1008B7F8093E1000E943D2B8091DA00DB
:1052000080FF19C08091D80080FF15C08091DA001E
:105210008E7F8093DA008091D90080FF96C080E174
:1052200089BD82E189BD09B400FEFDCF81E0809394
:1052300040030E9495248091E10080FF19C0809175
:10524000E20080FF15C08091E2008E7F8093E20033
:105250008091E20080618093E2008091D8008062BA
:105260008093D80019BC85E0809340030E94A92454
:105270008091E10084FF2BC08091E20084FF27C071
:1052800080E189BD82E189BD89B5982F917080FF49
:10529000FBCF8091D8008F7D8093D8008091E10072
:1052A0008F7E8093E1008091E2008F7E8093E20008
:1052B0008091E20081608093E20080913C0388232A
:1052C00009F449C084E0809340030E94B224809195
:1052D000E10083FF29C08091E20083FF25C0809117
:1052E000E100877F8093E10082E080934003109289
:1052F0003C038091E1008E7F8093E1008091E20089
:105300008E7F8093E2008091E20080618093E200D2
:1053100042E060E080E00E94DE278091F00088603B
:105320008093F0000E94A624FF91EF91BF91AF916E
:105330009F918F917F916F915F914F913F912F91AD
:105340000F900FBE0F901F90189519BC109240033C
:105350000E94A32470CF8091E30087FD93E0909397
:105360004003B3CF1F920F920FB60F9211242F93C9
:105370003F934F935F936F937F938F939F93AF93DD
:10538000BF93CF93DF93EF93FF93D091E900DF704A
:105390008091EC00C82FC17080FDC0E81092E90038
:1053A0008091F000877F8093F00078940E94F62926
:1053B0001092E9008091F00088608093F000CD2B7E
:1053C000CF70C093E900FF91EF91DF91CF91BF9132
:1053D000AF919F918F917F916F915F914F913F918D
:1053E0002F910F900FBE0F901F901895AAE2B0E07A
:1053F000ECEFF9E20C94892B81E493E02091F10029
:10540000FC012193CF01F3E089349F07B9F70E9493
:10541000DC248091E80083FF1EC1809141039091BC
:1054200042039A3008F017C1E92FF0E0E85AF34D33
:105430000C946D2B803899F0823809F00CC1809162
:1054400045038F70873008F006C18093E900809192
:10545000EB0085FB882780F91092E90006C0809157
:105460003D0390913E03911182609091E800977FF7
:105470009093E8008093F1001092F1008091E80091
:105480008E77E5C0882309F4D3C0823009F0E3C0E9
:10549000809143038111D6C0809145038F702FEF17
:1054A000280F263008F0D7C08093E9002091EB0048
:1054B00020FFC8C0933031F48091EB00806280936C
:1054C000EB00C0C09091EB0090619093EB0021E065
:1054D00030E001C0220F8A95EAF72093EA0010928B
:1054E000EA008091EB008860EACF8111B4C010918E
:1054F00043031F778091E3008078812B8093E30042
:105500008091E800877F8093E8000E9412288091B4
:10551000E80080FFFCCF8091E30080688093E30087
:1055200082E0111183E08093400395C0805882305F
:1055300008F091C080914303909144038C3D23E097
:105540009207A1F583E08A838AE289834FB7F894B2
:10555000DE01139620E03EE051E2E32FF0E05093AD
:105560005700E49120FF03C0E295EF703F5FEF70BA
:105570008E2F90E0EA30C0F0C7968D939D932F5FF9
:10558000243159F74FBF8091E800877F8093E8006E
:105590006AE270E0CE0101960E9421278091E80026
:1055A0008B778093E80057C0C096E7CF60914503A2
:1055B00070914603AE014F5F5F4F0E940D26BC0104
:1055C000892B09F448C09091E800977F9093E800F8
:1055D00089819A810E947F27E1CF8038E1F580910F
:1055E000E800877F8093E80080913C038093F1007E
:1055F00045CF811130C090914303923060F5809186
:10560000E800877F8093E80090933C030E94122873
:1056100080913C03882311F084E005C08091E30071
:1056200087FDFACF81E0809340030E94BD2413C020
:1056300080914303813079F481E0933009F080E078
:1056400080933E031092E9008091E800877F809369
:10565000E8000E9412288091E80083FF0AC0809130
:10566000E800877F8093E8008091EB008062809360
:10567000EB00AA96E3E00C94A52B0895CF938091BC
:1056800040038823A1F0C091E900CF709091EC0015
:10569000892F817090FD80E8C82B1092E9008091DD
:1056A000E80083FD0E94F629CF70C093E900CF91F6
:1056B000089597FB072E16F4009407D077FD09D0C4
:1056C0000E94B12B07FC05D03EF4909581959F4F29
:1056D0000895709561957F4F0895EE0FFF1F059017
:1056E000F491E02D09946927962769277827872761
:1056F000782708952F923F924F925F926F927F92F8
:105700008F929F92AF92BF92CF92DF92EF92FF92D1
:105710000F931F93CF93DF93CDB7DEB7CA1BDB0B7D
:105720000FB6F894DEBF0FBECDBF09942A88398822
:1057300048885F846E847D848C849B84AA84B98429
:10574000C884DF80EE80FD800C811B81AA81B98135
:10575000CE0FD11D0FB6F894DEBF0FBECDBFED0149
:105760000895AA1BBB1B51E107C0AA1FBB1FA617A8
:10577000B70710F0A61BB70B881F991F5A95A9F7FA
:1057800080959095BC01CD010895FB01DC0102C01C
:1057900005900D9241505040D8F70895FB01DC016F
:1057A00004C08D910190801921F441505040C8F7F8
:1057B000881B990B0895DC0101C06D934150504046
:1057C000E0F70895DC01CB01FC01F999FECF06C09A
:1057D000F2BDE1BDF89A319600B40D9241505040AF
:1057E000B8F70895F999FECF92BD81BDF89A99272F
:1057F00080B50895A8E1B0E042E050E00C94E42BBD
:10580000262FF999FECF92BD81BDF89A019700B479
:10581000021639F01FBA20BD0FB6F894FA9AF99A19
:105820000FBE08950396272F0E94012C0E94002C82
:10583000252F0E94012C242F0C94012C0196272F38
:105840000E94012C0C94002CDC01CB0103C02D9193
:105850000E942F2C41505040D0F70895262FF999DF
:10586000FECF1FBA92BD81BD20BD0FB6F894FA9A43
:10587000F99A0FBE01960895F894FFCFE905E9055E
:105880001A061A06C506E10649064906EC0653073C
:10589000620762074E177E178517BE17D817F917CC
:1058A00007181618701723187017701770172A1812
:1058B0001A2A422A2B2B422A2B2B752A962A2B2B6B
:0458C000ED2AF92AAA
:1058C4001902280850011E0A14015B02010001D2CA
:1058D40023F723D62366246124D523019B347FBD7B
:1058E4000125A225E200E900EA00B500B600B700F0
:1058F400CD008301CC008A0192019401210223028C
:1059040024022502260227022A02B300B4006F00F3
:105914007000818283E200E900EA00B500B600B7B6
:1059240000CD008301CC008A01920194012102235D
:105934000224022502260227022A02B300B4006FC1
:10594400007000818283669490363534C69100FFDE
:105954000100010000FFFF0000010001FF004022E0
:0E596400BC29044B036D03F002090329030064
:00000001FF
