:100000000C9411020C942E020C942E020C942E02CD
:100010000C942E020C942E020C942E020C942E02A0
:100020000C942E020C942E020C946A280C943E29F7
:100030000C947B220C942E020C942E020C942E0213
:100040000C942E020C942E020C942E020C942E0270
:100050000C942E020C941E230C942E020C942E024F
:100060000C942E020C942E020C942E020C942E0250
:100070000C942E020C942E020C942E020C942E0240
:100080000C942E020C942E020C942E020C942E0230
:100090000C942E020C942E020C942E020C942E0220
:1000A0000C942E020C942E020C942E021E001F00A3
:1000B0002000A800A900AA00000000000000000025
:1000C0002A2B2800000000000000000000000000B3
:1000D00000000029000000002C1E342021222434BE
:1000E0002627252E362D3738271E1F202122232490
:1000F00025263333362E37381F0405060708090A2C
:100100000B0C0D0E0F101112131415161718191AC7
:100110001B1C1D2F3130232D350405060708090A45
:100120000B0C0D0E0F101112131415161718191AA7
:100130001B1C1D2F3130354C00000000000000005A
:1001400000000000000000000000000000000000AF
:100150000000000000000000000000007E0F00D43E
:10016000FFFFFFC700000078FD377A585A000004EF
:10017000E6D6B4460200210116000000742FE5A364
:10018000E000E000965D003D8889C65436C3174FF5
:10019000E4D21B80776C7D6B758BAF004F29D9261D
:1001A0001DE2D8D5BA9B722089350146B2D51859BF
:1001B00080F1EEBD5CF2EA48D7C4485AC817102552
:1001C000F65F3536DB80CFA17980ECB5918207E808
:1001D000B9D1ABFB6E5CF299A6BCC1D0123613E765
:1001E000EB79DB51ACF7E4A13D181D3B85870FD3BC
:1001F000176F22B31AA29EE52A975DDE5F8DBB22A0
:10020000DF4772D2E3F38188B80E7574392B4387C8
:1002100077341BDE615228E208A6284574000000EE
:100220005024D60ECD4303A30001B201E10100002A
:10023000790336C6B1C467FB020000000004595AB6
:100240001C037600690061006C003A00660036000D
:1002500034006300320062003300630000001203C8
:100260003300620074006E006B006E006F0062006D
:1002700000001E034B0061007400690065007300FC
:10028000200047006100640067006500740073008F
:1002900000000403090409025B00030100A0FA093D
:1002A00004000001030101000921110100012240A5
:1002B0000007058103080001090401000203000092
:1002C00000092111010001222200070582032000FC
:1002D00001070503032000010904020001030000D7
:1002E0000009211101000122BC0007058403200040
:1002F000011201000200000008EEEE2220010001C0
:100300000203010660FF0961A1010962150026FFD1
:10031000009520750881020963150026FF009520CD
:1003200075089102C005010902A10185020901A118
:10033000000509190129051500250195057501819B
:1003400002950175038101050109300931158125E7
:100350007F95027508810609381581257F950175FD
:10036000088106050C0A38021581257F950175085C
:100370008106C0C005010980A101850319012AB7C2
:1003800000150126B700950175108100C0050C0904
:1003900001A101850419012AA002150126A00295D8
:1003A0000175108100C005010906A1018506050738
:1003B00019E029E715002501950875018102050757
:1003C000190029EF1500250195F075018102050836
:1003D0001901290595057501910295017503910192
:1003E000C005010906A101050719E029E715002547
:1003F00001950875018102950175088101050719AC
:100400000029FF150026FF009506750881000508E4
:100410001901290595057501910295017503910151
:10042000C00011241FBECFEFDAE0DEBFCDBF11E068
:10043000A0E0B1E0ECEDF7E502C005900D92AA3A1C
:10044000B107D9F723E0AAEAB1E001C01D92A534B3
:10045000B207E1F70E9440120C94C82B0C940000E4
:100460009C013A9521153F4150F5FC01EE27F170B2
:10047000BC0166277270AC01442754709C0122278E
:10048000387094FF0EC080E1EF2B09F480E0672BF9
:1004900009F08062452B09F08064232B89F0806885
:1004A000089581E0EF2B09F480E0672B09F082606A
:1004B000452B09F08460232B19F08860089580E0B3
:1004C0000895CF93DF93EB010E943002FE0109955E
:1004D000DF91CF910895CF93DF93EC01805E910976
:1004E000089720F064EF77E0209711F46CE775E04F
:1004F000CE010E9461028C2F0E94DD04DF91CF911A
:100500000895CF93DF93EC010E942905CE01805E10
:100510009109089720F06BEF77E0209711F463E8DA
:1005200075E0CE010E946102DF91CF91089581E0D4
:10053000089581E008950E949902089508950E9407
:100540009E020895A5E0B0E0E8EAF2E00C94152BD5
:1005500049835A833091AD0189819A81311119C043
:10056000662399F0222389F00E944909182F682FE9
:1005700089819A810E941B0969817A81812F0E9459
:10058000051A2596E3E00C94312B0E943209182FAE
:10059000F3CF0E94490969817A81F1CFFC01262FAE
:1005A000408151816281738184810E94A2020895F9
:1005B00081E00895CF93DF93EC0160E00E94CE02CA
:1005C000BE010E949F02DF91CF910895E1E0F0E02B
:1005D000DF0102C0AA0FBB1F6A95E2F7BD01DF0170
:1005E00002C0AA0FBB1F4A95E2F76A2B01C0EE0FAB
:1005F0002A95EAF7962F9823961302C08E2B08951A
:10060000E0958E230895242F462F682F8091B40102
:100610000E94E6020E947B0808950E9451110895ED
:100620000E945511089508950E9418080E9413030E
:100630002FEF84E39CE0215080409040E1F700C020
:10064000000008950E9414030E94422308950E940E
:1006500014030E94532308950F931F93CF93DF93A6
:10066000EC018B010E944E15811106C080E0DF91E4
:10067000CF911F910F910895B801CE010E94A51846
:100680008823A1F3B801CE010E949B02882371F355
:10069000B801CE010E949F1E882341F3B801CE010C
:1006A0000E94B220882311F3B801CE010E94421BA0
:1006B0008823E1F2B801CE010E945A1D8823B1F2CD
:1006C000F8018281882361F0CA35FDE5DF0701F179
:1006D00058F4C115ECE5DE0791F0CE3DDC4591F014
:1006E000C8010E949702C3CFCC358DE5D80769F0C9
:1006F00090F0C73ADD45A1F70E942703B7CF0E94CB
:100700002203B4CF0E94760EF7CF0E94B00DE8CF3F
:100710000E94BA0DE5CF0E94BE0DE2CFCF93DF93CA
:10072000EC0161E00E94CE02BE010E942C03DF9129
:10073000CF9108950E945D220E947E0408950E9438
:1007400082040E9462220895B0E0A0E0EAEAF3E0A9
:100750000C94112BE82FF0E0E854FF4FD490282F91
:1007600026952695269530E0F901E85AFE4F04912A
:10077000877010E0082E02C0159507950A94E2F7DD
:1007800001701127F901E85BFE4FE490F12C082E6F
:1007900002C0F594E7940A94E2F791E0E922FF247D
:1007A000F901E85CFE4FC491D0E002C0D595C79531
:1007B0008A95E2F7C170DD270115110519F081EE68
:1007C0000E94DD04E114F10419F086EE0E94DD04BC
:1007D0008D2D0E947305E114F10419F086EE0E943C
:1007E00029050115110519F081EE0E942905CD2B6F
:1007F00019F08CE20E947305CDB7DEB7E7E00C94E8
:100800002D2BEF92FF920F931F93CF93DF93EC0169
:10081000162F0AE08881882309F454C0813009F03A
:100820004EC08981813099F47E0122E0E20EF11CF4
:100830008A810E947305E7012196812F815050F330
:10084000EFE9FFE03197F1F700C00000F7CF823009
:1008500041F47E0182E0E80EF11C8A810E94DD04F1
:10086000EACF833041F47E01E2E0EE0EF11C8A8192
:100870000E942905E0CF843011F02196DDCF2A8136
:10088000229690E080E0AE014F5F5F4F2053330B24
:100890002A30310548F0019778F2EFE9FFE031970F
:1008A000F1F700C00000F7CF089FB001099F700D5D
:1008B0001124C901860F971F2981EA01E4CF0E9404
:1008C000A403BACFCDB7DEB7E6E00C942E2B60E0E0
:1008D0000E940104089508950E946B04089581E028
:1008E00008950E946F0408950895CF93C82F0E9421
:1008F0006C048C2F0E947104CF91089580E00E94B7
:10090000750408950E940E210E94750408950E94A6
:100910000E219091AC01981721F08093AC010E94B8
:1009200075040895ABE0B0E0E8E9F4E00C94162B10
:100930004F83588769877A878B8761110E94AF0C34
:100940001E821D8285E0FE013796DE011196019020
:100950000D928A95E1F780912F0382FF0CC00E94CF
:10096000720C882319F082E00E947F0D0E94590CBE
:1009700081110E94E90C8C819D81892B61F4498150
:100980005A816B817C818D819E810E94B00B2B9658
:10099000E2E00C94322B89819A8189238F3F79F38D
:1009A000CE0101960E94D8028111E9CFF0CFFC015F
:1009B000808191810E9476090895CF93C82F882362
:1009C000B9F08CEF8C0F813AA8F46C2F8091000164
:1009D000909101010E948321882329F08C2F0E948D
:1009E000470C0E94F70C8C2F0E943F0C0E94F70CC2
:1009F000CF91089580E28C0F883048F4C77081E071
:100A000001C0880FCA95EAF70E94920CEFCFEBE580
:100A1000EC0FE33040F4F0E0EE5AFE4F808190E0BE
:100A20000E944321E5CFE8E5EC0FE73150F4F0E018
:100A3000EE0FFF1FEC5DFE4F808191810E945921D6
:100A4000D7CFC03FA8F28C2F0E94C4120E94AF13D0
:100A5000CFCF882379F19CEF980F913A28F40E9428
:100A6000470C0E94F70C089590E2980F983050F4CC
:100A7000877091E001C0990F8A95EAF7892F0E944B
:100A8000980CEFCF9BE5980F933028F490E080E02E
:100A90000E944321089598E5980F973128F490E03B
:100AA00080E00E9459210895803F20F00E942C137D
:100AB0000E94AF1308951F93CF93DF93182FEB017C
:100AC0000E94DD04209739F4812F0E942905DF91CF
:100AD000CF911F9108958FE99FE00197F1F700C032
:100AE00000002197EFCF70E060E0893311F460E5FA
:100AF00070E00E945B050895882321F00E94920C0B
:100B00000E94F70C0895882321F00E94980C0E94FF
:100B1000F70C0895B0E0A0E0E0E9F5E00C940F2BAD
:100B20006C01D62FC72FFC010281F580F2949FE063
:100B3000F9220E94880CE82E8823B9F0E02E0023C9
:100B4000A1F08C2F807F803421F080E28D0F8830DF
:100B5000D0F080912F0382FF16C082E00E947F0DAB
:100B60000E94880C91E0E82EE926BC2EB2948FE01A
:100B7000B822FBE0FB1508F468C0EB2DF0E0E6536B
:100B8000F44D0C94F92AE12CF0CF1C2F1F70C07F7C
:100B900011F01295107F002399F0112359F080E293
:100BA0008D0F883010F0D11107C0812F0E94920C58
:100BB0000E94F70C8D2F41C0812F0E94A20CF8CF0C
:100BC0008D2F0E942905112309F43FC080E28D0F6B
:100BD000883010F0D11104C0812F0E94980C03C0FE
:100BE000812F0E94A80C0E94F70C2FC01C2F1F7091
:100BF000C07FC03211F01295107FDD2381F0D1301B
:100C000009F482C0002309F48BC0FF2009F45BC003
:100C1000F601858180FFCECF8F70858354C080918F
:100C20002F0382FD33C0002359F0112329F0812FB7
:100C30000E94920C0E94F70C80E00E94DD0405C027
:100C400080E00E9429051111C7CFEB2DE850FF0B62
:100C5000349720F40E940E210E947504EE2089F042
:100C60000E946E0C80FD0DC0F60112820E94680C7D
:100C70000E948F08C6010E94CA070E94680C0E9449
:100C80009B08CDB7DEB7E9E00C942B2B0023E9F0ED
:100C9000F11006C00E94BE0C812B0E947C05D5CFAE
:100CA00021E0F21206C00E94BE0C812B0E94D20CE1
:100CB000CCCF35E0F312EECF0E94E90C0E94560C27
:100CC000812B0E94C50C812FE8CFF11003C00E9438
:100CD000E90C11C081E0F81212C00E948F0C812330
:100CE00009F4B3CF0E94E90C0E94560C912F909505
:100CF00089230E94C50C812F0E948305A6CF95E011
:100D0000F91609F4A2CFE3CF002329F0E5E0EF15AF
:100D100008F49BCFD8CFF4E0FF1508F496CFEBCFC3
:100D2000FF2049F3D93349F4FFEF27EE33E0F150C8
:100D300020403040E1F700C000008D2F0E942905BF
:100D400084CF8C2F86958695837069F0813009F069
:100D50007CCF8D2F9C2F9370011102C090E080E01A
:100D60000E94592172CF8D2F9C2F9370011102C0C8
:100D700090E080E00E94432168CF8D2F002329F06E
:100D80000E94C4120E94AF1360CF0E942C13FACFAE
:100D90008C2F837079F5011158CF4D2F42954695D0
:100DA0004770440F440F8D2F8F70042E01C0880FA1
:100DB0000A94EAF72D2F2071D4FF07C02FE030E00E
:100DC00001C0220F4A95EAF72095C695C695C370D3
:100DD000822BC23049F058F4C13019F00E946908E2
:100DE00034CF0E94630831CF0E946F082ECF0E943B
:100DF00060082BCF8695002311F08C2F81708823FB
:100E000009F423CF4D2F429546954770440F440F68
:100E10008D2F8F70042E01C0880F0A94EAF72D2FB2
:100E20002071D4FF07C02FE030E001C0220F4A95A7
:100E3000EAF72095C695C695C370822BC23049F05B
:100E400058F4C13019F00E94BA08FFCE0E94B408CD
:100E5000FCCE0E94C008F9CE0E947B08F6CECF706F
:100E6000002329F08C2F0E948F088D2F16CF8D2FF5
:100E70000E9483058C2F0E949B08E7CED23F51F140
:100E800060F4D03FB9F0D13F81F0002309F45AC09B
:100E9000F11090CE8C2F8F7121C0D33F11F1D43F30
:100EA000A1F780912F0382FD26C08C2F8F71002324
:100EB00011F314C0002349F084E08F1508F4C5CE67
:100EC0008C2F8F710E94A808C0CE95E09F1508F462
:100ED000BCCEF6CF8C2F8F710111CDCF0E948F0821
:100EE000B4CE002329F08C2F8F710E948608ADCEDE
:100EF0000E948208AACE0023C1F00E946E0C8430AA
:100F000041F40E94750D8C2F8F710E949B08E12C7B
:100F10009CCEE4E0EF15D8F3CF718C2F0E948F08A0
:100F200063E08C2F0E94570DF2CFF4E0FF1530F4F0
:100F30000E94750D64E08C2F8F71F4CF81E00E94C8
:100F40007F0DE5CFFF2059F0D93309F0F6CE2FEF12
:100F500037EE83E0215030408040E1F7ECCE8C2F1B
:100F60008F7189CF0F931F93CF93DF93EC0168812B
:100F700079818A810E9481098C010E94C6080E94A1
:100F80005F08B801CE010E948A05DF91CF911F91C1
:100F90000F910895CF93DF93EC018B819C81892B76
:100FA00029F08881998189238F3F51F4DF91CF9176
:100FB0000895CE010E94B207CE010E94DA02F6CF58
:100FC000CE010E948E038111F4CF0E94880C8823E9
:100FD00069F38A81882351F380912F0382FFE6CF42
:100FE00082E00E947F0DE2CF882321F00E94A20CB4
:100FF0000E94F70C0895882321F00E94A80C0E94FB
:10100000F70C089590E080E00E94432190E080E09A
:101010000E9459210E94AF0C0E94F70C0E94CB1332
:101020000E94AF1308950E944F0C0E940208089579
:101030000E949F0C0E941308089592959F7096300D
:1010400091F058F4925F9F70923058F4803F19F0FD
:1010500030F4883E30F481E008959A5FF4CF843F05
:10106000D1F380E00895883EB0F3813FD1F7F3CF0C
:10107000FC01808191810E9476090E941D080895DB
:10108000A5E0B0E0E6E4F8E00C94162B2596E2E04B
:101090000C94322BA6E0B0E0E0E5F8E00C94162BBF
:1010A0002696E2E00C94322B08950E94540808958D
:1010B0000E9455088093B5010E9402080895089582
:1010C0000E94580808959091B501892B0E945808F4
:1010D00008959091B50189230E9458080895909130
:1010E000B50189270E94580808950E945408089560
:1010F0000E94750808950E9478088093B4010E94A8
:101100000208089580E00E947B08089591E001C0E4
:10111000990F8A95EAF7892F0E947B08089521E0AC
:1011200030E001C0220F8A95EAF78091B401822B4A
:101130000E947B08089521E030E001C0220F8A95CB
:10114000EAF720958091B40182230E947B080895DC
:1011500021E030E001C0220F8A95EAF78091B401C6
:1011600082270E947B0808959091B401892B0E94E8
:101170007B0808959091B40189230E947B0808950B
:101180009091B40189270E947B0808950895262F25
:10119000277091E001C0990F2A95EAF723E0769530
:1011A00067952A95E1F7FB01EE0FFF1FE60FF71F8A
:1011B000E40FF51F50E040E0682F70E08191DF01FF
:1011C00011979B01042E02C0369527950A94E2F7E9
:1011D000217021952827292328272C934F5F5F4FC3
:1011E0004330510559F70895A82FA77023E096952D
:1011F00087952A95E1F7FC01EE0FFF1FE80FF91F15
:10120000E60FF71F50E040E080E0219130E00A2E29
:1012100002C0369527950A94E2F721703327042EF1
:1012200001C0220F0A94EAF7822B4F5F5F4F4330D1
:10123000510559F70895282F862F903F41F09111BD
:1012400007C0622F70E041EB51E0243040F0089578
:101250009C5F9230E0F7622F70E04EEA51E00E940E
:10126000C708F5CF282F892F903F89F0911105C02D
:1012700061EB71E0243030F008958C5F823038F4F7
:101280006EEA71E0822F90E00E94F408089580E0F9
:10129000F3CFCF92DF92FF920F931F93CF93DF9301
:1012A0006C010091B4018091B501082BC7E0D0E03A
:1012B00010E0FC2EC8010C2E02C0959587950A946B
:1012C000E2F780FD0CC02197A0F7F12C8F2DDF9164
:1012D000CF911F910F91FF90DF90CF900895B601AD
:1012E0008C2F0E943710019771F3F0CFCF93DF93CB
:1012F000EC010E944909BE010E943710DF91CF9195
:1013000008951F93CF93DF93EB019091AD01992343
:1013100039F0CB010E947609DF91CF911F9108959A
:10132000882369F0CB010E944909182F682FCE014C
:101330000E941B09BE01812F0E943710EDCFCB0107
:101340000E943209182FF6CF1F93CF93DF93C091DD
:10135000B60116E08091B7018C1304C0DF91CF91E4
:101360001F910895D0E01C9FF0011D9FF00D1124E6
:10137000E854FE4F4081518162817381848195815F
:101380000E944A082196C770E5CF4091E80150912C
:10139000E9016091EA017091EB018091EC0190917B
:1013A000ED010E944A0808951F93CF93DF93809127
:1013B000ED01807F09F049C08091EA01882309F49A
:1013C00044C08091B601C091B7016091E80170916D
:1013D000E901A091EB01B091EC01D62FD72316E0E3
:1013E000C81799F190E0109711F0DF3F19F40196BA
:1013F0008770F6CF189F9001199F300D1124F901C5
:10140000E854FE4F41814713F2CF40814613EFCF9E
:1014100042814111ECCF438154814A1B5B0B483C14
:10142000510528F78091ED018F7080618093ED0167
:10143000F901E354FE4F80818F708061808388EED4
:1014400091E00E94CA070E94A409DF91CF911F91E9
:101450000895A1E1B0E0EFE2FAE00C940E2B8C01CC
:1014600085E0F801DE011D9601900D928A95E1F765
:10147000F801E28088EEC82E81E0D82E6091EB0161
:101480007091EC016115710509F44EC19091E8016C
:101490002091E901892F82238F3F09F445C14081C2
:1014A0005181A380B480F090EA01F501E61BF70BAF
:1014B000FF2009F4EAC08091ED01382F307FE83C2D
:1014C000F10508F0A3C031116DC0FE2C251316C024
:1014D000941314C0E11012C08F7080618093ED01ED
:1014E0000E94C509C6010E94CA078091ED01F8015A
:1014F00085838F2D6196EAE00C942A2BA114B10408
:1015000029F0842F85238F3F09F027C180E0F82F31
:10151000F170DF2E80FF3CC08091B6012091B701B1
:1015200036E0821315C04D875E878D859E850E94AB
:101530007609292F22952F702230F0F0243018F5EB
:101540009F70F1F0F8019581907FD1F4D12C1EC0ED
:1015500090E0389FF001399FF00D1124E854FE4FC0
:101560006181651306C06081641303C06281E61265
:101570000FC001968770D5CF9F7011F0882331F38B
:10158000805E883018F3C8010E94CA07FD2CB1CFD5
:10159000EE2009F4AECF8091ED0181608093ED01E2
:1015A000F12CA7CF251306C0941304C0F801EE2038
:1015B00009F487C0C8010E943808882319F1EE2079
:1015C00009F18091ED01803270F02091E8013091B5
:1015D000E90138872F831986BB86AA868C87CE01BE
:1015E00007960E94CA0786E0F801A8EEB1E00190D4
:1015F0000D928A95E1F70E94D4090E94C509FF2443
:10160000F39477CFC8010E94CA07F9CF311113C0F4
:101610007A2DB98AA88A6E2D89890E94400888EEA1
:1016200091E00E94CA0786E0F60111928A95E9F7D7
:101630000E94C509B5CF25130FC094130DC0E1104A
:101640000BC0F8018583C8010E94CA0786E0F60135
:1016500011928A95E9F74DCFC8010E943808882376
:1016600089F2EE2079F28091ED01803208F4BBCF4F
:101670002091E8013091E9013A8329831B82BD82E0
:10168000AC828E83CE010196ACCFE83CF10508F028
:101690003EC0FE2CEE2009F4B5CF25132AC09413CA
:1016A00028C08091ED0180FD1BC0982F907FC1F074
:1016B000F8018583903F31F0982F907F905F8F7075
:1016C000892B8583C8010E94CA0786E0F801A8EE2D
:1016D000B1E001900D928A95E1F70E94C50909CF0A
:1016E00086E0F801A8EEB1E001900D928A95E1F74D
:1016F00000CFC8010E943808811175CF8091ED019B
:1017000081608093ED01C8010E94CA07F2CE7A2D54
:10171000B98AA88A6E2D89890E94400886E0F60160
:1017200011928A95E9F7D9CFEE2009F46BCFC80161
:101730000E943808F82E882309F464CF86E0F80167
:10174000A8EEB1E001900D928A95E1F788EE91E064
:101750000E94D7040E94D409C0CF81E08E25D7CE45
:10176000ACE0B0E0E6EBFBE00C94152B4F83588720
:1017700069877A878B879C87CE0107960E94290A02
:10178000882369F08A859B85892B39F04F8158859C
:10179000842F85238F3F09F06BC016E05FC086E081
:1017A000FE013796DE01119601900D928A95E1F7C0
:1017B0008A859B85892B89F38F81988589238F3F23
:1017C00061F32091B70130E0C90101968770992734
:1017D0004091B6014817190671F40E94180810923A
:1017E000B7011092B60186E0E8EEF1E0DF011D924C
:1017F0008A95E9F7D2CF96E0929FD001939FB00DE2
:101800001124A854BE4FFE01319601900D929A9575
:10181000E1F78093B7010E94A409BFCF819FC00167
:10182000112488549E4F0E94290A8823E9F0E091F0
:10183000B6011E9FF0011124E854FE4F40815181F2
:1018400062817381848195810E944A088091B601EA
:1018500090E00196877099278093B6018091B60138
:101860009091B7018913DACF2C96E3E00C94312BD9
:1018700069857A858B859C850E944A088ECF682F62
:1018800080910001909101010E9403220895682F28
:1018900080910001909101010E9411220895809190
:1018A0000001909101010E941F220895809113026E
:1018B00008950E94DB222091110230911202821BB6
:1018C000930B9C0181E02838334108F480E00895AF
:1018D00080911002859585958595089580911002D7
:1018E000877008950E94DB2220910E0230910F0232
:1018F000821B930B8838934148F08091100282FB41
:10190000882780F991E089278170089580E0FCCFD5
:1019100090911002977081E009F480E00895809121
:101920003802089590913802892B809338020895E7
:1019300080959091380298239093380208951092E0
:101940003802089590913702892B809337020895C9
:1019500080959091370298239093370208951092C2
:101960003702089580933602089510923602089542
:1019700080933502089510923502089580911402E3
:10198000089508950E94C10C08959091130298172C
:1019900021F0809313020E94C20C089508950E94C2
:1019A000CE0C0895CF93C82F80912F0382FF0FC0D4
:1019B000809114028C1759F00E94DB22909312023E
:1019C00080931102C09314028C2F0E94CF0CCF91F0
:1019D000089580911402882349F010921402109205
:1019E00012021092110280E00E94CF0C0895CF9352
:1019F000DF93E0910001F091010180913802808332
:101A0000E0910001F0910101808190913702892BD2
:101A10008083809114028823B9F00E94590C8111AF
:101A20000E94E90CE0910001F09101018081909108
:101A30001402892B808380910001909101010E9402
:101A40006F2181110E94E90CE0910001F0910101E8
:101A500080913502982F9095808189238083E09131
:101A60000001F0910101808190913602892B8083E1
:101A7000C0910001D091010140E250E06EEE71E0B2
:101A8000CE010E945A2B892B59F080E2FE01AEEE66
:101A9000B1E001900D928A95E1F7CE010E941B21E1
:101AA000DF91CF91089508950E94530D089590916C
:101AB0002F0392FF17C098E0899F90011124622B99
:101AC000609310020E948F080E94DB2290930F0205
:101AD00080930E02809110028595859585950E94D0
:101AE000540D08950E948F080895109210021092CC
:101AF0000F0210920E0280E00E94540D0895909102
:101B000010028095892380931002282F277091F46A
:101B1000282F082E000C330B9217130659F09091C2
:101B20002F0392FF07C08595859585950E949B0898
:101B30000E94750D089590912F0392FB222720F9A2
:101B4000281769F080FB92F990932F0380912E0360
:101B500090912F030E94ED0D82E00E947F0D089569
:101B600080912F0382FB882780F991E089270E94CA
:101B70009B0D089581E00E949B0D089580E00E94D6
:101B80009B0D08956FEF7FEF90E080E00E94AA2BFD
:101B9000089590E080E00E94862B883E9E4F19F4C5
:101BA0000E94E914089580E0089582E090E00E9488
:101BB0007E2B089583E090E00E947E2B0895CF93C2
:101BC00084E090E00E947E2BC82F82E290E00E9489
:101BD0007E2B982F8C2FCF910895CF93C92F682FEC
:101BE00084E090E00E948C2B6C2F82E290E00E94B7
:101BF0008C2BCF910895AB01BC018FE090E00E9447
:101C00009E2B0895AB01BC0183E190E00E949E2BC6
:101C1000089560E070E0CB010E94020E089560E03C
:101C200070E0CB010E94FB0D0E94090E089568EE42
:101C30007EEF90E080E00E94AA2B60E082E090E0DE
:101C40000E948C2B60E083E090E00E948C2B10922D
:101C5000B50160E084E090E00E948C2B64E082E2B9
:101C600090E00E948C2B60E085E090E00E948C2B3D
:101C700060E086E090E00E948C2B6FEF87E090E0C0
:101C80000E948C2B40E050E0BA0188E090E00E9476
:101C90009E2B60E08DE090E00E948C2B40E050E0B5
:101CA000BA0188E190E00E949E2B60E087E190E01D
:101CB0000E948C2B40E050E0BA018CE190E00E9441
:101CC0009E2B70E060E080E290E00E94AA2B40E052
:101CD00050E0BA0188E190E00E949E2B80E00E94D3
:101CE00002150E9431150E940F0E08950E94170ED2
:101CF0000895682F8EE090E00E948C2B08950E943A
:101D0000E7226093420270934302809344029093CF
:101D1000450260933E0270933F028093400290938D
:101D2000410208950E94E7226093420270934302A9
:101D3000809344029093450260933A0270933B0271
:101D400080933C0290933D020895089508950E9467
:101D5000A60E089508950E94AA0E089586E191E1C5
:101D60000E9404210E9407170E94A50E0E94A70E40
:101D7000089581E008950E94B90E08950895089588
:101D80000E94BE0E0E94BF0E08950E9435110E944F
:101D9000740408950E94D2220E9441150E94CB1122
:101DA0000E94C50E0E94861C0E94AB0E0895AAE0F8
:101DB000B0E0EDEDFEE00C94112B0E94D711E82E5F
:101DC00081110E947F0E80E00E945811182F80918F
:101DD0003902D82ED126811799F18091460281FDD2
:101DE0000E945E11F12C01E08D2D802321F10E94D3
:101DF000BB0E882399F0FE821F82102381E009F434
:101E000080E088870E94DB228160782F9A8789870B
:101E10004E815F8168858A850E9492048091390293
:101E200008270093390281E0E11001C080E02A9682
:101E3000E7E00C942D2BF394000F84E0F812D4CF3C
:101E40008FEF89838A831B820E94DB228160782F37
:101E50009D838C8349815A816B818D810E9492047C
:101E6000E2CF0E94D70E0E94631E0E94A51C811122
:101E70000E94920E0E94ED130E9487040895CF9352
:101E8000DF930E943C10EC01811521E5920708F0D8
:101E900042C0811530E5930708F09DC0883E91054A
:101EA00030F5803E910508F092C0883A910588F49B
:101EB000853A910508F084C08130910509F487C006
:101EC000009709F484C0049708F081C0D0E0C0E016
:101ED0007EC08F3B9105D0F7C85AD0E0CC0FDD1FF4
:101EE000CB5ADE4F0990D881C02DD46470C08115C3
:101EF000904250F4C11581E0D80708F068C0C03F97
:101F0000D10520F3D06563C0C11590E4D907F0F284
:101F1000DF70D06A5CC0811525E5920700F5811558
:101F200034E5930708F08BC0811543E5940708F06A
:101F300073C0C11582E5D80708F469C0CE0183706B
:101F4000992721E030E002C0220F331F8A95E2F783
:101F5000C695C69580E2C89FE001112454C0C11502
:101F600099E5D907A8F4C11528E5D20708F06CC097
:101F7000C11536E5D30708F0A9CF8C2F0E94D310E6
:101F8000C82FD0E0DC2FCC27CC27DF71D0621FC058
:101F9000C1154AE5D40708F45CC0CE0190568115FE
:101FA000904208F093CF8D2F8F710E94D31090E054
:101FB000982F882788279F719C012C2BE901E6CF59
:101FC000C55AD0E0CD57DE4FC881D0E0D064CE01F5
:101FD000DF91CF910895E4E096958795EA95E1F732
:101FE00083702C2F26952695237040E2249F900124
:101FF0001124382B8C2F8370C1E0D0E002C0CC0FAD
:10200000DD1F8A95E2F7C22BD32BDC68E0CFDC2FF3
:10201000CC27C16FD06ADBCF8370992721E030E0F5
:1020200002C0220F331F8A95E2F7C695C69590E24B
:10203000C99FE0011124C22BD32BDA68C8CFD82F57
:10204000CC27C46FD06AC3CFDC2FCC27C06FD06A37
:10205000BECF8C2F8F700E94D31034E0D695C795D9
:102060003A95E1F7CF709C2FEC01D069B0CF0E9478
:10207000051A0E943F0F089582389105B1F1B0F41E
:102080008133910509F475C048F48932910509F44A
:1020900069C08A32910509F473C0089585339105AA
:1020A00009F459C08933910501F10895833E9105E2
:1020B000A9F138F4803E9105F9F0823E910549F18D
:1020C0000895863E9105A9F1873E9105C9F1843EA8
:1020D000910519F520912F0321FF1FC080912E0338
:1020E00084FD14C087EE90E0089520912E032370A4
:1020F000A1F080EE90E0089520912E0320FD47C0CE
:1021000030912F0330FF09C024FF44C090E080E0ED
:1021100004C020912E0322FDF7CF089520912E03B5
:1021200022FD3BC030912F0330FDE3CF24FFF5CFDC
:10213000EDCF20912E0323FFF0CF24FDE7CFD2CFA8
:1021400020912E0323FD2CC030912F0331FFEECFC1
:1021500084EE90E0089520912E0325FFDECF89E2E2
:1021600090E0089520912E0325FFD7CF85E390E0DE
:10217000089520912E0326FFD0CF8AE290E00895A3
:1021800020912E0326FFC9CF81E390E0089589E3D3
:1021900090E0089583EE90E0089582EE90E0089537
:1021A00086EE90E0089590912E0392FF06C0282FAE
:1021B00028712830F9F4877F846093FF06C0282FA8
:1021C00028712831F1F4877E846120912F0320FF4C
:1021D00006C0382F38713830D9F4877F816021FFED
:1021E00006C0282F28712831D1F4877E816194FDA3
:1021F000877E0895282F24712430F9F68B7F88601C
:10220000DCCF282F2471243101F78B7E8861DDCF4C
:10221000382F3171313019F78E7F8860E0CF282F49
:102220002171213121F78E7E8861E1CF80E0089510
:102230000E94C20D08950E94D7112FEF89EF90E000
:10224000215080409040E1F700C000000E94D7116B
:1022500080E00E94581180FF04C00E9418110E9463
:10226000422308950E941B1108950E94C90D8111F7
:1022700002C00E94760E0E94D50D809346020E94F5
:10228000DF0D90932F0380932E030E9432110E9442
:10229000DA0D0E9460088091B4010E9478080895C8
:1022A00008950E945011089508950E9454110895B0
:1022B000E82FF0E0EF5CFC4F80810895089580EAFC
:1022C0008A95F1F7089500C008950E945F1108955E
:1022D000F894E82FE295EF70F0E031A1282F2F70ED
:1022E00081E090E001C0880F2A95EAF7982F909539
:1022F000932391A392A1892B82A37894089580E3DC
:102300000E94681185E30E94681187E90E946811A4
:1023100080E90E94681186E30E94681108950F9376
:102320001F93CF93DF938C01C62FF894209A28989F
:1023300078940E946311E6E8F1E081E0D0E09191A9
:102340009F3F79F0A92FA295AF70B0E090962C91A5
:1023500030E09F7002C0359527959A95E2F7982F47
:1023600020FD90E0D92B880F91E0EA38F90739F782
:1023700080E30E94681161E0D11101C060E08C2F00
:102380000E946511F801EC0FF11DD083DF91CF9110
:102390001F910F9108950E947F11109231031092A6
:1023A000300381E00E94FC110E940D030895A1E01A
:1023B000B0E0EDEDF1E10C94152B198260E0CE0157
:1023C00001960E948F1190913003898111E098133A
:1023D00001C010E0981380933003212F41E061E3A6
:1023E00073E080E393E00E94FD110E941003812FAF
:1023F0002196E3E00C94312B0895FF920F931F93E5
:10240000CF93DF93F82E092F162FD72FC42F222317
:1024100049F081E0809349020E94DB2290934802B8
:1024200080934702809149028823A1F0809147025E
:10243000909148020E94F3220A9760F0EF2DF02F4E
:10244000A12FBD2FCE0FDF2FD11DEC17FD0739F4C3
:1024500010924902CDB7DEB7E5E00C942F2B8191A5
:102460008D93F3CF0E943E250E94CA0E0E944B25F9
:1024700008950E9450250E94310F0E946A250895F8
:102480000E9474220E9424250E94AE0E0E943212E5
:102490000E9439120E94C00EFBCF8091500280FF33
:1024A0000DC06091070170E0660F771F60387105FD
:1024B00070F56115710569F1862F089581FF07C0D8
:1024C0006091070184E0689FB0011124EFCF609113
:1024D000070182FD0AC080914F028823A9F0209154
:1024E000060160910701821710F088E0ECCF869F0B
:1024F000C001112433E0880F991F3A95E1F7622F4C
:1025000070E00E94E52AD2CF68E070E0D5CF8FE777
:10251000089581E008958091500280FF0CC0609181
:10252000030170E07595679575956795611571055F
:1025300049F1862F089581FF06C06091030170E084
:1025400075956795F3CF6091030182FD0BC0909163
:102550004E029923A1F06091020180910301961728
:1025600038F0682F70E06038710500F38FE7089548
:10257000899FC001112470E00E94E52AF4CF61E038
:1025800070E0D7CF81E00895803F31F40E944D1272
:102590008195809354020895813F19F40E944D1251
:1025A000F8CF823F31F40E944D12819580935302FF
:1025B0000895833F19F40E944D12F8CF893F29F402
:1025C0000E948B128093550208958A3F21F40E9445
:1025D0008B128195F7CF8B3F31F40E948B1281953E
:1025E0008093560208958C3F19F40E948B12F8CF05
:1025F000843F31F4809152028160809352020895A9
:10260000853F21F4809152028260F7CF863F21F40A
:10261000809152028460F1CF873F21F48091520271
:102620008860EBCF883F21F4809152028061E5CF32
:102630008D3F31F480915002816080935002089563
:102640008E3F21F4809150028260F7CF8F3FB9F71F
:10265000809150028460F1CF90915302803F59F4F1
:102660008091540287FF0DC01092540291110BC04B
:1026700010924F0208C0813F81F4809154021816D5
:102680009CF3992381F08091550290915602892BF9
:1026900009F064C010924E020895823F49F497FFFA
:1026A000F0CF10925302809154028111ECCFE0CF11
:1026B000833F19F41916ACF3E4CF20915502893FFA
:1026C00029F41216F4F610925502DBCF8A3F19F462
:1026D00027FFD7CFF8CF209156028B3F29F427FF51
:1026E000D0CF10925602CDCF8C3F19F41216CCF3F6
:1026F000C8CF843F31F4809152028E7F8093520282
:10270000C0CF853F21F4809152028D7FF7CF863F65
:1027100021F4809152028B7FF1CF873F21F4809189
:102720005202877FEBCF883F21F4809152028F7E47
:10273000E5CF8D3F31F4809150028E7F809350021F
:10274000A0CF8E3F21F4809150028D7FF7CF8F3F35
:1027500009F097CF809150028B7FF0CF08950E94AF
:10276000DB229C019091530280915402982B21F01E
:1027700030934D0220934C02909155028091560265
:10278000982B21F030934B0220934A0281E592E08E
:102790000E943521089586E0E1E5F2E0DF011D9217
:1027A0008A95E9F710924F0210924E021092500251
:1027B0000895FC01828181110EC0838181110BC0BB
:1027C0008481811108C091E08581811101C090E070
:1027D000892F8170089581E0FCCFA6E0B0E0E3EF9F
:1027E000F3E10C94152B86E0E1E5F2E0DE011196B1
:1027F00001900D928A95E1F71092530210925402C3
:1028000010925502109256028B819C81892B89F07F
:1028100080914C0290914D020E94F322AC01909164
:102820004F029923C9F1809108018417150608F415
:1028300040C08D819E81892B91F080914A029091B8
:102840004B020E94F322AC0190914E02992309F4AD
:1028500071C0809104018417150608F479C0BE0187
:102860006F5F7F4F81E592E00E943122811105C0A8
:1028700081E592E00E94D91381110E94AF1386E096
:10288000FE013196A1E5B2E001900D928A95E1F743
:102890002696E3E00C94312B209109018AE0289FD1
:1028A000900111242417350720F69F5F90934F0263
:1028B00002C09F3FD1F71B81112359F00E944D1296
:1028C0009FEF11160CF491E0899F802D11248093C5
:1028D00053021C81112359F00E944D129FEF1116D3
:1028E0000CF491E0899F802D112480935402309143
:1028F0005302332309F49DCF20915402222309F47B
:1029000098CF45EB3403C0011124992359F09093DB
:10291000530245EB240390011124332339F0309303
:10292000540287CF81E080935302F3CF81E08093FC
:1029300054027FCF209105018AE0289F9001112445
:102940002417350708F08BCF9F5F90934E0202C08B
:102950009F3FD1F71D81112359F00E948B129FEFE9
:1029600011160CF491E0899F802D1124809355025B
:102970001E81112359F00E948B129FEF11160CF447
:1029800091E0899F802D1124809356023091550249
:10299000332309F464CF20915602222309F45FCF38
:1029A00045EB3403C0011124992359F0909355024B
:1029B00045EB240390011124332339F03093560260
:1029C0004ECF81E080935502F3CF81E08093560291
:1029D00046CF83E290E00E947E2B833789F484E225
:1029E00090E00E947E2B8F3959F485E290E00E949E
:1029F0007E2B91E0833E09F090E0892F817008954D
:102A000080E0FCCFCF93C82F6FEF811163E783E2A3
:102A100090E00E948C2B6FEFC1116FE984E290E08F
:102A20000E948C2B6FEFC11163EE85E290E00E9453
:102A30008C2BCF910895089586E290E00E947E2B22
:102A4000682F70E090E080E008950895CF93C62F3E
:102A50000E9425156C2F86E290E00E948C2BCF916E
:102A6000089580E00E94021560E070E0CB010E94B2
:102A700026150E9451190E947F1A81E00E940215BA
:102A800008950E941B150E941C150E9425150E9486
:102A9000E914811102C00E9431150895CF93FB0102
:102AA000C281CC2309F19C0122513F4520313105DF
:102AB00020F582510E948F1AC0E08C2FCF9108958B
:102AC00081E00E948F0843E062E081E00E940303FE
:102AD000F3CF81E00E949B0843E062E081E00E9426
:102AE0000303EBCF82E0F6CF8031FFE59F0789F348
:102AF00081319F45B9F3C1E0E0CF8031EFE59E071A
:102B0000F9F281319F45C9F682E0DBCF2FEFFC015E
:102B1000208308951F93CF93DF93EC01162F8881B4
:102B20002091E4023091E502232B79F08E3F09F0E9
:102B300068C08981833020F08550833008F061C0FF
:102B4000612FCE010E940A175CC08C3009F494C03A
:102B5000D0F4843009F477C060F4823009F441C0C5
:102B600008F064C08130C9F1612FCE010E94861542
:102B700048C0863009F47DC008F470C08A30A0F7E0
:102B80008FEF88833EC0803109F493C0D8F48E3033
:102B900009F47EC008F474C080910C0190910D017D
:102BA000892B79F16B8170E06D31710550F5898168
:102BB0009A81AE014C5F5F4F9827892798270E9422
:102BC0005A1A1FC0823109F47AC008F475C08331E3
:102BD00009F486C08E3F41F6B3CF198289E08A831B
:102BE00010C089818230A9F08330B1F0813009F0C2
:102BF000BBCF0E94E7220E94FF2A6A837B838C83DB
:102C00009D83612FCE010E94F723DF91CF911F9109
:102C100008950E941C15EFCF80910C0190910D0139
:102C2000892B79F380E00E945811D9CF89818230B5
:102C300009F09ACF6A817B818C819D810E94FF2A55
:102C40000E942615DECF4B816A8189810E94A918D6
:102C50009827892798279D838C83D3CF2C813D810A
:102C60003227232732274B816A8189810E94CC1821
:102C7000C8CF0E945119C5CF0E94301A8983C1CF95
:102C80000E94321A9827892798279A838983B9CF77
:102C90006B8170E06D31710508F0B3CF89819A8145
:102CA000AE014C5F5F4F9827892798270E94351AFD
:102CB000A8CF0E947F1AA5CF0E94A718DFCF6B81F3
:102CC00070E06D31710508F09CCF89819A81AE0169
:102CD0004C5F5F4F9827892798270E94B61991CF9C
:102CE0006B8170E06D31710508F08BCF89819A811D
:102CF000AE014C5F5F4F9827892798270E94D9190A
:102D000080CFAAE0B0E0E7E8F6E10C940D2B09E6ED
:102D100012E087E5C82E82E0D82EF12C97E0E92E4C
:102D20009924939421EEA22E22E0B22ED6010D9387
:102D30001D936D01BE016F5F7F4F8F2D0E9429197A
:102D4000892B09F056C0F8013896DF018E2D1D92AF
:102D50008A95E9F789819A81D80111969C938E937F
:102D60008F8112968C9312978D8113968C93139763
:102D7000888514968C931497898515968C9315974E
:102D80008B819C8117969C938E93169718961C9214
:102D900018978A8587FF37C01E961C921E921D9732
:102DA00080FF03C0D80118969C9281FF04C0F801EF
:102DB00090859260908782FF07C0D80118969C91F9
:102DC0001897946018969C9383FF04C0F80190852F
:102DD0009860908784FF07C0D80118969C91189737
:102DE000906118969C9385FF04C0F80180858062ED
:102DF0008087015F1F4FF394F8E0FF1297CF2A9668
:102E0000EBE00C94292BF801B686A586C9CF0E9469
:102E100081160895CF92DF92FF920F931F93CF9365
:102E2000DF93CDB7DEB72A970FB6F894DEBF0FBE9B
:102E3000CDBF8C01603269F5DC011196EC911197E0
:102E4000EE3038F5F0E0EA52F44D0C94F92A88E0BF
:102E5000ECE1F1E0DE01119601900D928A95E1F727
:102E600080E2F80111928A95E9F785E0D8018C9308
:102E700011961C92119712961C92129713961C92FF
:102E8000139788E0FE013196149601900D928A9571
:102E9000E1F72A960FB6F894DEBF0FBECDBFDF91E3
:102EA000CF911F910F91FF90DF90CF90089588ED03
:102EB000F8018083118212821382EBCF13968C91DA
:102EC0001397682F70E0762F662712968C91860FE5
:102ED000972F911D092E000CAA0BBB0B35E0880F14
:102EE000991FAA1FBB1F3A95D1F7AC01BD01405EE7
:102EF0005F4F6F4F7F4F481759076A077B0748F2AC
:102F0000883D9105A105B10520F6493D51056105B2
:102F1000710520F048ED50E060E070E0481B590B6F
:102F2000BC0168597E4FC8010E94512BB2CFFC01F1
:102F3000F280D38040E06D2D8F2D0E94E6189827F7
:102F400089279827D8018D939C9341E06D2D8F2D73
:102F50000E94E618982789279827F801938382838F
:102F600098CF15962D913C91322723273227211592
:102F7000BCE53B0741F480910C0190910D01892B38
:102F800011F430E020E041E0F8018481811101C0BA
:102F900040E0D80113966C91139712968C910E9481
:102FA0000C1977CF40E250E06FEF70E00E94672B82
:102FB00080910C01F80180838091E402818369CFC4
:102FC00081E090E09093E5028093E40282E390E058
:102FD0009093E3028093E2020E94DB225ACF809119
:102FE0000C018C938091E40211968C93119780913F
:102FF000E20212968C934DCF40E250E06FEF70E00A
:103000000E94672B46CFFC018281853069F08630B3
:1030100011F181113ECF80E21D928A95E9F710826D
:10302000118288E0828335CF13968C919AE0F92E35
:10303000FE0131966F01DF01EF2D1D92EA95E9F750
:10304000B6010E942919D8018D93F60101900D92C5
:10305000FA94E1F71ECF13968C919AE03496DE0134
:10306000119601900D929A95E1F72B813C812115E3
:10307000BCE53B0741F440910C0150910D01452BFB
:1030800011F430E020E03C832B83BE016F5F7F4F63
:103090000E943D19F80180830E948116FACEA5E0B6
:1030A000B0E0E5E5F8E10C94162B909333038093A0
:1030B0003203811520E2920730F40E946B022596BC
:1030C000E2E00C94322B80EF89838A8381E08B834A
:1030D0000E94DB228160782F9D838C8349815A81F5
:1030E0006B818D810E949204EACFA5E0B0E0EBE70E
:1030F000F8E10C94162B90933303809332038115DF
:1031000020E2920730F40E9481022596E2E00C94BE
:10311000322B80EF89838A831B820E94DB228160AD
:10312000782F9D838C8349815A816B818D810E9488
:103130009204EBCFCF93DF93EC010E944F18CE01A6
:103140000E947518DF91CF91089581E0089581E084
:1031500008950F931F93CF93DF93862BD1F44430C0
:10316000C0F4042F10E0000F111FC80187960E94C1
:103170007E2BC82FD0E0DC2FCC27C80188960E9478
:103180007E2B9E01282BC901DF91CF911F910F91BA
:10319000089590E080E0F8CF1F93CF93DF93122F34
:1031A000862B81F4443070F4C42FD0E0CC0FDD1FA7
:1031B000632FCE0187960E948C2B612FCE018896BB
:1031C0000E948C2BDF91CF911F9108951F93CF9375
:1031D000DF93142F862BE9F482E090E0442311F072
:1031E00090E080E08F960E947E2BC82FD0E0DC2FED
:1031F000CC2783E090E0112311F081E090E08F96DE
:103200000E947E2B9E01282BC901DF91CF911F9137
:10321000089590E080E0F9CFCF93DF93C42FD22FB1
:10322000862BA1F482E090E0442311F090E080E04E
:10323000632F8F960E948C2B83E090E0CC2311F0BB
:1032400081E090E06D2F8F960E948C2BDF91CF91C3
:1032500008959B01883070F49AE0899FB001112491
:103260006D5C7F4F4AE050E0C9010E946E2B90E0F8
:1032700080E008958FEF9FEF08959B01883070F4F0
:103280009AE0899FB00111246D5C7F4F4AE050E0C5
:10329000C9010E94B02B90E080E008958FEF9FEF6E
:1032A0000895CF92DF92EF92FF921F93CF93DF9317
:1032B000CDB7DEB72A970FB6F894DEBF0FBECDBFED
:1032C000C0900C01D0900D0181E090E090930D0131
:1032D00080930C018CEAE82E80E0F82E10E0F701D4
:1032E00025913491412F60E080E00E94CC1882E06B
:1032F000E80EF11C1F5F143091F7E4EBF0E025912C
:10330000349141E060E080E00E940C19E6EBF0E0CF
:103310002591349140E060E080E00E940C19FE01AC
:1033200031967F018AE011928A95E9F78FEF9FEF3E
:103330009E838D8387E08A8710E0B701812F0E94EA
:103340003D191F5F1830C9F7D0920D01C0920C01D2
:103350002A960FB6F894DEBF0FBECDBFDF91CF9196
:103360001F91FF90EF90DF90CF900895EF92FF9222
:103370000F931F93CF93DF93EC018A017C01E60E3C
:10338000F71ECE018796CE15DF0529F4CDB7DEB73F
:10339000E6E00C942E2BC830D10540F40E947E2B21
:1033A000F80180830F5F1F4F2196EBCFF801108249
:1033B000F9CFB0E0A0E0EFEDF9E10C94102B8C0117
:1033C0006A01089780F488E090E0801B910B8617D3
:1033D000970748F07801E60EF71EE801CE018796C0
:1033E000CE15DF0529F4CDB7DEB7E8E00C942C2B21
:1033F000C830D10540F4FE01E01BF10BEC0DFD1DC2
:1034000060810E948C2B2196E9CF462F2091E40207
:103410003091E502232B09F5703F39F4603FE9F460
:1034200080913203909133030895811116C0711178
:1034300006C0643090F460E00E94A91808957D3FB2
:1034400041F461110AC041E060E080E00E94E618AA
:1034500008957C3F11F46623B9F390E080E008956D
:1034600080E108958DE793E00895EF92FF920F9326
:103470001F93CF93DF93EC018A017C01E60EF71EC8
:10348000CE018D579F4FCE15DF0529F4CDB7DEB79E
:10349000E6E00C942E2BCD3723E0D20740F40E94B7
:1034A0007E2BF80180830F5F1F4F2196E9CFF80133
:1034B0001082F9CFB0E0A0E0E0E6FAE10C94102B26
:1034C0007C016A018C01060F171FEC01CE018D579C
:1034D0009F4FC017D10729F4CDB7DEB7E8E00C94B1
:1034E0002C2BCD3723E0D20740F4FE01EE19FF0963
:1034F000EC0DFD1D60810E948C2B2196E7CFCF93B0
:10350000DF93C3E8D0E060E0CE010E948C2B2196CF
:10351000C11584E0D807B9F7DF91CF910895A4E0F1
:10352000B0E0E5E9FAE10C940F2BF82E2FE0281714
:1035300008F4A4C08FEF93E00E947E2B81119EC0FF
:1035400003E810E0F11036C019821A821B821C8237
:10355000BB24BA9478015FEFE51AF50AC8010E940E
:103560007E2B89831A82882309F488C0813009F070
:103570007FC0680182E0C80ED11CC7010E947E2B6B
:10358000E82E8A83882309F479C0C6010E947E2B25
:10359000F82E8FEF8E0D8330D8F46801E3E0CE0E65
:1035A000D11CFB82FF2021F0CE0101960E9467040E
:1035B0008601D0CF011544E0140709F45FC0C801AB
:1035C0000E947E2B811101C0FA940F5F1F4FBACF6A
:1035D0008BEF8E0D833030F5C8010396FB826C01B2
:1035E000FF2031F36801F4E0CF0ED11C0E947E2B46
:1035F0008C838823E9F28B819C8181302FEF9207A5
:1036000010F0982F882746E0E41631F057E0E516D1
:1036100031F00E949A18CCCF0E944F18C9CF0E9457
:103620007518C6CF84E0E812C3CF6801E4E0CE0E7F
:10363000D11CC80103960E947E2BFF20F9F088233D
:10364000E9F08150990BB89E9001B99E300D11247C
:103650004F2D4150550BCA01820F931F019708F45B
:10366000A7CFEFE9FFE03197F1F700C00000F6CFF8
:10367000CE0101960E94670467019ACF2496E9E083
:103680000C942B2BCF93DF93EC01FB0182818823D9
:1036900009F433C1C330FDE5DF07C0F5CA3F9CE53F
:1036A000D90730F49E0122503C4524313105B0F554
:1036B0000E94DF0D90932F0380932E03C1318CE580
:1036C000D80709F4EEC008F069C0C930ECE5DE07A0
:1036D00009F4D5C0C8F5C5308CE5D80709F4C7C0D2
:1036E00000F5C330ECE5DE0709F4B9C008F0BBC053
:1036F000C230DC4509F4ADC080912E0390912F03B8
:103700000E94ED0D0E94180880E008C0C136EDE56A
:10371000DE0771F2C53AFDE5DF0751F2DF91CF9187
:10372000089580912E038062C7309CE5D90709F483
:1037300093C080912E038061C830DC4508F48CC0B2
:1037400080912E03806488C080912E038B7FCD30C2
:10375000FCE5DF0709F480C098F480912E038E7F8A
:10376000CB309CE5D90709F477C080912E038C609B
:10377000CC30DC4508F470C080912E038D7F6CC086
:1037800080912E038F7ECF30FCE5DF0709F464C003
:1037900008F47BC080912E038F7D5EC0CD3F9CE5F9
:1037A000D90709F47AC050F5C531FCE5DF0709F403
:1037B00086C098F480912E03837FC3319CE5D9079E
:1037C00009F44AC008F471C00E94180890912E03B1
:1037D000892F97FB87F980583FC0CB3FFCE5DF0777
:1037E00009F449C008F055C080912F038160CA3F99
:1037F000DC4509F081CF80932F037ECFC130EDE50A
:10380000DE0709F468C0A8F4CF3F8CE5D80709F4B7
:1038100052C080912F038360C115DD4560F3809114
:103820002F03982F909591708E7F892B90FB81F9B3
:10383000E2CFC136EDE5DE0709F451C0C53AFDE53A
:10384000DF0709F453C0C230DD4509F055CF80E0F1
:1038500043C080912E03816080932E034DCF8091D1
:103860002E038260F9CF80912E038460F5CF809182
:103870002E038860F1CF80912F038260BCCF0E941D
:10388000180880912E038068E7CF80912E03877FF0
:10389000E3CF80912F038E7FAECF80912F038D7F5A
:1038A000AACF80912E038F7BD7CF0E9418088091DA
:1038B0002E038F77D1CF80912F038C7F9CCF809167
:1038C0002E0382FB992790F921E0922790FB82F941
:1038D00090FB83F9C1CF81E00E94790E0DCF9091CA
:1038E0002E03892F8F7E94FF8061B6CF90912E0397
:1038F000892F8E7F90FF8160AFCF81E00FCF8FE85F
:1039000091E00197F1F700C00000089581E08093F5
:10391000E70222982A9A23982B9A0E947F1C2091D2
:10392000E70249EE52E0FA018E2F841B821708F05D
:10393000089583B182FB882780F91B9904C090E029
:10394000892B8193F1CF92E0FBCFA4E1B0E0EBEAC9
:10395000FCE10C940B2B10E000E084E0C82ED12C8D
:103960009DEF992E882483942CEF722E8091E7028C
:10397000181728F0802F6496EDE00C94272BE12E89
:10398000F12CE3B1E2FBEE27E0F91B9991C080E056
:103990008E2BD701A751BD4FEC919E2F9370981796
:1039A00009F484C0EE0FEE0FE82BEC93EF70F0E01B
:1039B000E657FE4FC70188519D4F5C018081F5019C
:1039C0009081890F808320E084308CF1F701EA51E7
:1039D000FD4F80818F5F80830E94DB221B877C8666
:1039E0008D868160782F9F878E87412F5CEF61E005
:1039F0008F850E9492048FE39FE10197F1F700C049
:103A000000000E94DB22188B798A1A8A8160782F45
:103A10009C8B8B8B412F5CEF60E08C890E94920421
:103A2000EFE3FFE13197F1F700C0000021E0F5017D
:103A300080818D3F8CF5F701EA51FD4F80818150E7
:103A400080830E94DB2219839A828B828160782F87
:103A50009D838C83412F5DEF61E08D810E949204F4
:103A60008FE39FE10197F1F700C000000E94DB2285
:103A70001E839F8218868160782F9A878987412FBD
:103A80005DEF60E08A850E949204EFE3FFE13197E9
:103A9000F1F700C0000021E0F5018081082E000C44
:103AA000990BB6010E94E52A8083022B1F5F5ECF2F
:103AB00082E06ECFCF93DF93EB0186319C4511F509
:103AC0000E948F0C9A81992399F08A7A91E009F4E7
:103AD00090E09093EA02811109C089E20E943F0CB4
:103AE0000E94F70C80E0DF91CF91089585E3F6CF37
:103AF0008091EA02811104C089E20E94470CF0CF54
:103B000085E3FBCF81E0EFCFFC018481862351F474
:103B100092819923B9F06923808583FF05C081E0F4
:103B200061110FC080E00895892F8F7092959F706A
:103B3000982B862F8F7062956F70682B81E096139B
:103B4000F1CF089581E0FDCFCF93DF93EC01609139
:103B5000F5027091F6028091F7029091F8020E94AE
:103B60000223643F71408105910518F58091F502AB
:103B70009091F602A091F702B091F8028093F102C1
:103B80009093F202A093F302B093F40284EF91E0D9
:103B9000A0E0B0E08093ED029093EE02A093EF02DC
:103BA000B093F002D093EC02C093EB02DF91CF917F
:103BB00008950E94E7226093F1027093F2028093CD
:103BC000F3029093F40282E390E0A0E0B0E0E2CF51
:103BD000FF920F931F93CF93DF93F82E0091FC0277
:103BE0001091FD020115110509F44DC01092EC026F
:103BF0001092EB020E94BB0C0E94B50C0091FC02DB
:103C00001091FD02D8011696CD91DC919E013A9556
:103C100021153F4108F4D07ED1E0C11101C0D0E0B0
:103C2000D8011996ED91FC911A97309731F01B96B7
:103C30006D917C9180E00995D823DD2339F08CEFDC
:103C40008C0F813A30F58C2F0E94470CFF2099F0A1
:103C5000E091FC02F091FD02808584FD0CC0809112
:103C6000FB02882341F0808191819C012150310920
:103C70002C3A3D45A0F00E94F70C1092FD021092E4
:103C8000FC021092FB02C801CDB7DEB7E5E00C9450
:103C90002F2B0E94F70C8C2F0E942905D7CF0E9452
:103CA000A41DE9CF10920E0180E00E94E81D089546
:103CB00080910E01882319F00E94521E089581E020
:103CC00080930E0108950F931F938091EB029091C2
:103CD000EC02892B89F16091F1027091F2028091DE
:103CE000F3029091F4020E9402230091ED021091E0
:103CF000EE022091EF023091F00260177107820707
:103D00009307D0F08091EB029091EC020E946B023D
:103D10001092EC021092EB021092F1021092F20259
:103D20001092F3021092F4021092ED021092EE0241
:103D30001092EF021092F0021F910F910895A4E0EB
:103D4000B0E0E5EAFEE10C94062B8C017A836983EE
:103D5000DB0112965C905520B1F08F35BDE59B07D5
:103D600059F08036EDE59E0759F08E359D4559F4A2
:103D70000E94581E312C0DC081E080930E01FACFB5
:103D80000E94521EF7CF30900E01311007C033242D
:103D90003394832D2496E2E10C94222B680120EECB
:103DA000C21AD1080E948F0CF82E0E94560C482E81
:103DB0000E94BE0C482A4F2838E0C316D10408F0F0
:103DC00094C098012770332781E090E001C0880FEC
:103DD0002A95EAF7552009F485C0482AA981BA81B5
:103DE0008D919C910E94320980900A0190900B0164
:103DF0008114910409F4E1C021E030E0390102C0EE
:103E0000660C771C8A95E2F7E091FC02F091FD02C6
:103E1000FA83E983A090F902B090FA02212CE22DF6
:103E2000F0E0EE0FFF1FE80DF91D208131813C838A
:103E30002B832115310509F4C0C0411005C0D901FB
:103E400012968C9181118BC0EB81FC81838190E073
:103E500086219721892B09F482C08085982F97703D
:103E600009F487E0F8E0CF16D10408F058C05520D7
:103E700009F451C086958170882309F470C0AB8124
:103E8000BC81ED90FC900E151F0519F4552009F426
:103E900066C0EB81FC8129813A81E217F30709F4BE
:103EA0005EC00584F685E02D309721F0808188235F
:103EB00009F455C0642D8B819C810E94841D882348
:103EC00009F44DC00E151F0509F08BC00115110531
:103ED00009F48CC051108CC0EA14FB0409F03FC0F7
:103EE000512C86C08095482279CF552009F44EC0C8
:103EF0001093FA020093F9020E94E7226093F50200
:103F00007093F6028093F7029093F8021092EC02FD
:103F10001092EB0263CF82FB882780F9ADCF55204A
:103F2000F1F08170A9CF0E94290583C00497813ADE
:103F3000910548F4802F0E943F0C552009F427CFAB
:103F40000E94F70C17CF0E94F70C8FE39CE90197B2
:103F5000F1F700C00000802F0E94DD04EECF239413
:103F60005ECFFC01208131812017310731F45110DF
:103F700007C01092FB0280E031C0552009F407CF42
:103F8000DC0118968C9185FD02CFF5CF8091F90266
:103F90009091FA028017910781F41092FA02109220
:103FA000F9021092F5021092F6021092F7021092A6
:103FB000F8021092EC021092EB028091FC029091B8
:103FC000FD02009709F4E3CEA8E0CA16D10448F632
:103FD000642D0E94841D8111DACE81E00E94E81DCB
:103FE000D8CEE114F10409F077CF512CF12CE12C5B
:103FF00080E00E94E81DEB81FC81F093FD02E093DC
:10400000FC0281E08093FB0285810E94B80C511074
:1040100010C0E114F10469F0AB81BC818D919C91D9
:104020009C0124503109213A310508F07CCF0E94CF
:10403000470CEB81FC8106811781C8019A95811597
:104040009F4108F4107EFF24F394C80101978C3A35
:104050009D4508F0F12CAB81BC811996ED91FC9146
:104060001A97309731F01B966D917C9181E00995FC
:10407000F822FF2081F0EB81FC81868197810E94EC
:1040800030020E94B20CC801F8E0CF16D10408F04B
:104090004DCF0E94A41D0E94F70C4FCF0F931F938A
:1040A000CF93DF93C42FD22FFC0182818823C9F0E4
:1040B000409300030E94DB229093FF028093FE0254
:1040C00080E28C0F883040F4C77081E001C0880F17
:1040D000CA95EAF70E947C05DF91CF911F910F915D
:1040E000089510910003141332C08091FE02909144
:1040F000FF020E94F322883C910548F5C0E2CD0FF3
:104100001D17B9F080E2810F883040F4177081E00C
:1041100001C0880F1A95EAF70E948305C83048F459
:1041200081E09D2F977001C0880F9A95EAF70E9451
:104130007C05802F0E947305C83070F6D77081E02F
:1041400001C0880FDA95EAF70E948305C5CF80E2A7
:104150008C0F883008F6C77081E001C0880FCA95BF
:10416000EAF7F2CF0F939C01CB01233F4CE53407D4
:1041700059F1A8F4283DFCE53F0701F1293D4CE544
:104180003407D1F1273D3C4591F406E221EE41EEA2
:1041900067ED7CE50E944E2080E00F910895253F59
:1041A000FCE53F07E9F0B0F0263F3C45F9F0FC01A3
:1041B0008281882339F110920003EFCF07E225EEC8
:1041C00045EE68ED7CE5E6CF06E221EE40EE63EFDA
:1041D0007CE5E0CF07E225EE44EE64EF7CE5DACF44
:1041E00006E221EE42EE65EF7CE5D4CF07E225EE54
:1041F00046EE66EF7CE5CECF08E221E045EE69EDC4
:104200007CE5C8CF81E0C9CF9093AB018093AA0130
:10421000089590930603809305030895E0910503A4
:10422000F0910603309729F00190F081E02D099577
:10423000089580E00895E0910503F091060330971A
:1042400099F020911B01222359F020912E0327FF82
:1042500007C0DC012C9111962C93119726E02C932A
:104260000280F381E02D09950895E0910503F09116
:104270000603309739F022E0DC012C930480F581AD
:10428000E02D099508952091030330910403281728
:10429000390771F09093040380930303E0910503C1
:1042A000F0910603309721F00680F781E02D099503
:1042B000089520910103309102032817390771F006
:1042C0009093020380930103E0910503F0910603AC
:1042D000309721F00084F185E02D09950895FC01C7
:1042E000329680911B01882321F080912E039EE15C
:1042F00087FF96E080E0915008F4089521912223F1
:10430000D1F38F5FF8CF662301F120911B012223A7
:10431000F1F020912E0327FF1AC0462F46954695AF
:1043200046954E3190F4677021E030E002C0220FD4
:10433000331F6A95E2F7840F911DFC01828190E0A2
:104340002823392381E0232B69F480E00895FC01C0
:10435000329608962191261721F0E817F907D1F730
:10436000F4CF81E008959C01FC0132969FEF80E03C
:104370004191461751F09F3F19F4411101C0982F08
:104380008F5F8630A9F79F3F09F40895290F311DEB
:1043900097FD3A95F90162830895FC0132960896DB
:1043A0002191261303C0DF0111971C92E817F9072A
:1043B000B9F70895E62FE695E695E695EE3168F4AF
:1043C000E80FF92FF11D677021E030E001C0220FE6
:1043D0006A95EAF78281822B82830895E62FE6951B
:1043E000E695E695EE3170F4E80FF92FF11D677050
:1043F00021E030E001C0220F6A95EAF72095828122
:1044000028232283089520911B01222339F0209133
:104410002E0327FF03C00E94DA2108950E94B321D2
:10442000089520911B01222339F020912E0327FFAC
:1044300003C00E94EE2108950E94CD210895FC0141
:10444000329680911B01882351F080912E0387FFC3
:1044500006C08EE1DF011D928A95E9F7089586E096
:10446000F9CF46E050E00E945A2B21E0892B09F455
:1044700020E0822F089508950E943B220895811123
:1044800006C081E0809307030E943C22089582E0E9
:10449000F9CF83E0809307030E943C2208950E9495
:1044A0003F22089581E0809307030E943C220895F3
:1044B0000E9452220895089508950E945C22089552
:1044C000089508950E945B2208950E9460220E9430
:1044D000D7110E94612280E00E94581191E0811161
:1044E00001C090E0892F089585B7806885BF85B7A2
:1044F000806885BF08951F921FB61F9211248F9365
:104500009F93AF93BF9380910803811113C0809153
:10451000340390913503A0913603B091370341964F
:10452000A11DB11D8093340390933503A0933603EE
:10453000B0933703BF91AF919F918F911F901FBE92
:104540001F90189580913C03843031F10E949A03AA
:104550001092080388E190E020E40FB6F894A89543
:10456000809360000FBE2093600083B7817F8460DA
:1045700083BF83B7816083BF7894889583B78E7F2C
:1045800083BF0FB6F894A8958091600088618093EE
:104590006000109260000FBE08950E9418080E94EB
:1045A0009F03089582E084BD93E095BD9AEF97BD87
:1045B00080936E0008952FB7F89480913403909102
:1045C0003503A0913603B09137032FBF08952FB75D
:1045D000F894609134037091350380913603909183
:1045E00037032FBF08959C014FB7F894809134038F
:1045F00090913503A0913603B09137034FBF821BD2
:10460000930B0895CF92DF92EF92FF922FB7F89419
:10461000C0903403D0903503E0903603F090370318
:104620002FBFA7019601261B370B480B590BCA0158
:10463000B901FF90EF90DF90CF90089578941F928A
:104640001FB61F9211248F939F93AF93BF938091B6
:10465000340390913503A0913603B091370301964E
:10466000A11DB11D8093340390933503A0933603AD
:10467000B0933703BF91AF919F918F911F901FBE51
:104680001F90189587E797E790930108809300089B
:1046900088E19AE00FB6F894A895809360000FBE69
:1046A00090936000FFCF88E19AE00FB6F894A89548
:1046B000809360000FBE90936000FFCF80912C0329
:1046C000089508959C0184E08093E9009FEF809114
:1046D000E800915085FD06C085ED8A95F1F7000050
:1046E0009111F5CF8091E80085FF0CC050E040E0CB
:1046F00066E070E0C9010E940F268091E8008E7785
:104700008093E8000895CF93DF93EC0180911B0123
:104710008823B1F180912E0387FF32C060E284E0EC
:104720008093E9008FEF9091E800815095FD06C0DD
:1047300095ED9A95F1F700008111F5CF8091E80091
:1047400085FF1BC080911B0170E050E040E08111AB
:1047500004C050E040E068E070E0CE010E940F2607
:104760008091E8008E778093E80080E2FE01ACE063
:10477000B3E001900D928A95E1F7DF91CF91089512
:1047800068E081E0CDCF8093090370930B036093C1
:104790000A0380913C038430F9F48093E9008FEFA1
:1047A0009091E800815095FD06C095ED9A95F1F73E
:1047B00000008111F5CF8091E80085FF0DC050E029
:1047C00040E063E070E089E093E00E940F26809172
:1047D000E8008E778093E8000895BC0184E00E9491
:1047E000C3230895BC0183E00E94C3230895CF939F
:1047F000FC01603221F580913C03843001F5C091C9
:10480000E900CF702091EC00922F917020FD90E88C
:10481000C92B82E08093E9008091E80080FF0CC002
:1048200050E040E060E270E0CF010E940F268091EE
:10483000E8008E778093E800CF70C093E900CF91B5
:10484000089580913B03811109C00E94EE270E94C8
:104850004B288091E20084608093E20008951092DA
:104860003B0308950E94522208956091380381E02D
:10487000611101C080E00E944922089590913C039B
:1048800081E0943009F080E0609138030E944F226B
:10489000089542E061EC81E00E946A2742E261EC07
:1048A00084E00E946A2742E261EC82E00E946A276B
:1048B00042E260EC83E00E946A2790913C0381E031
:1048C000943009F080E0609138030E943F220895FF
:1048D00080913E03833009F463C030F48130E1F10C
:1048E000823009F4A0C008958A3009F48CC08B305E
:1048F00009F471C0893009F052C080913D038132C2
:1049000009F04DC08091410390914203009719F046
:10491000029709F044C08091E800877F8093E80007
:104920008091E80082FF37C09091F3008091F200FF
:10493000029731F48091F100813011F0863021F43A
:104940008091F10080932C038091E8008B77809315
:10495000E8000E949E2723C080913D03813AF9F42C
:104960008091E800877F8093E800809141039091D7
:104970004203892B61F460E28CE093E070E00E94D6
:10498000AD268091E8008B778093E800089560E081
:1049900090E080E0F3CF80913C038111C1CF089576
:1049A00080913D03813AD9F7809141039091420370
:1049B000892BA9F78091E800877F8093E800809198
:1049C000E80080FFFCCF80911B018093F100809173
:1049D000E8008E77BCCF80913D03813201F7809152
:1049E000410390914203892BD1F68091E800877FA3
:1049F0008093E8000E949E2780913F0380931B01D3
:104A00000E941808089580913D03813241F68091FB
:104A1000E800877F8093E8000E949E2780914003F2
:104A200080932D03089580913D03813A09F0B7CF1B
:104A30008091E800877F8093E8008091E80080FF04
:104A4000FCCF80912D03C1CF84B7877F84BF0FB681
:104A5000F894A8958091600088618093600010921E
:104A600060000FBE80E890E00FB6F894809361007C
:104A7000909361000FBE0E94582208950E94EE2775
:104A80000E944B28E2EEF0E080818460808378947D
:104A90000E94CA2A08958FE091E00E94092108959A
:104AA00080913C03853031F480913C03853019F0CE
:104AB0000E94CD2208950E94A22280913A03882369
:104AC00099F30E946522882379F30E94F9250E94B8
:104AD0001808EACFA0E2B0E0E0E7F5E20C94162B6C
:104AE00080913C03843009F583E08093E900809154
:104AF000E80082FF1AC08091E80090E085FF09C0BD
:104B000050E040E060E270E0CE0101960E945E2637
:104B100091E08091E8008B778093E800992329F059
:104B200060E2CE0101960E948A15A096E2E00C9404
:104B3000322B0E949C250895292F332723303105DD
:104B400021F168F42130310509F449C022303105E2
:104B500009F44AC090E080E030E020E029C0213232
:104B6000310581F122323105A9F76330710590F7E3
:104B7000FB01EE0FFF1FE356FE4F20813181665689
:104B80007E4FFB01808190E013C099278130910511
:104B900099F0009741F08230910589F00397D1F6A2
:104BA000E0E4F2E002C0E2E9F2E0849190E09F01EB
:104BB000FA01318320830895E2E7F2E0F6CFEEE5D3
:104BC000F2E0F3CF6330710528F6660F771FFB0123
:104BD000ED55FE4F2081318189E090E0E9CF82E1FF
:104BE00090E021EF32E0E4CF8BE590E026E932E07F
:104BF000DFCF80E189BD82E189BD09B400FEFDCF30
:104C00008091D8008F7D8093D8008091E0008260F1
:104C10008093E0008091E00081FDFCCF0895AF9289
:104C2000BF92CF92DF92FF920F931F93CF93DF93A8
:104C30006C01EB018A010E94BD27F82E811123C06F
:104C40000115110539F0F80180819181C81BD90B3C
:104C5000C80ED91EB12CA12C2097A9F08091E80094
:104C600085FD22C08091E8008E778093E8000115D1
:104C70001105A1F0F80180819181A80EB91EB182C1
:104C8000A08285E0F82E8F2DDF91CF911F910F919B
:104C9000FF90DF90CF90BF90AF9008950E94BD2706
:104CA0008823D1F2F82EEFCFF60181916F01809326
:104CB000F1002197FFEFAF1ABF0ACECFAF92BF929C
:104CC000CF92DF92FF920F931F93CF93DF936C01EC
:104CD000EB018A010E94BD27F82E811123C0011526
:104CE000110539F0F80180819181C81BD90BC80EDC
:104CF000D91EB12CA12C2097A9F08091E80085FD48
:104D000022C08091E8008B778093E800011511059F
:104D1000A1F0F80180819181A80EB91EB182A08214
:104D200085E0F82E8F2DDF91CF911F910F91FF908D
:104D3000DF90CF90BF90AF9008950E94BD27882349
:104D4000D1F2F82EEFCF8091F100F60181936F013F
:104D50002197FFEFAF1ABF0ACECFFC01809143032A
:104D60009091440386179707A0F06115710529F407
:104D70009091E8009E779093E80090E061157105AE
:104D800051F4911108C08091E80082FF34C080E0A6
:104D90000895BC01F2CF80913C038823C1F1853096
:104DA000C1F18091E80083FD30C08091E80082FD70
:104DB000EACF8091E80080FFE1CF8091F30020915D
:104DC000F200382F6115710519F02830310558F0BF
:104DD00091E02830310509F090E02091E8002E772D
:104DE0002093E800CBCF81918093F100615071094D
:104DF0002F5F3F4FE7CF80913C03882341F0853000
:104E000041F08091E80083FFBECF81E0089582E009
:104E1000089583E00895FC01809143039091440339
:104E200086179707A0F06115710529F48091E800B5
:104E30008E778093E80090E06115710551F491112F
:104E400008C08091E80082FF35C080E00895BC0171
:104E5000F2CF80913C038823C9F18530C9F180915C
:104E6000E80083FD31C08091E80082FDEACF8091A7
:104E7000E80080FFE1CF8091F3002091F200382F0D
:104E80006115710519F02830310558F091E028308E
:104E9000310509F090E08091E8008E778093E8007A
:104EA000CBCF84918093F1003196615071092F5FCF
:104EB0003F4FE6CF80913C03882341F0853041F09D
:104EC0008091E80083FFBDCF81E0089582E00895DE
:104ED00083E00895982F973028F08F708093E90031
:104EE00081E008959093E900242F762F50E09817E1
:104EF00031F07091EC002091ED005091F00021FD17
:104F000002C09F5FE8CF3091EB003E7F3093EB0013
:104F10003091ED003D7F3093ED003091EB0031603A
:104F20003093EB007093EC002093ED005093F00071
:104F30002091EE0027FDE5CF80E0089580913D03AC
:104F400087FF13C08091E80082FF06C08091E800CF
:104F50008B778093E80004C080913C038111F2CFED
:104F6000089580913C038823D9F38091E80080FF65
:104F7000F8CF8091E8008E77ECCF2091E40030915B
:104F8000E50095E6A9012091EC00822F817020FFB9
:104F900006C08091E80080FF06C080E0089520915F
:104FA000E80022FD1AC080913C03882389F08530F7
:104FB00089F08091EB0085FD0FC02091E4003091D5
:104FC000E50042175307F9F29150E1F684E00895A5
:104FD00082E0089583E0089581E008950E945D28AD
:104FE0000E946528E0EEF0E0808181608083E8ED3A
:104FF000F0E080818F77808319BCA7EDB0E08C91C1
:105000008E7F8C9380818F7E808310923B030895E6
:105010000F931F93CF93DF930E945D280E94652812
:10502000C8EDD0E088818F77888388818068888305
:1050300088818F7D888319BC10923C0310923803BD
:1050400010923A031092390300EE10E0F8018081CB
:105050008B7F808388818160888342E060E080E08C
:105060000E946A27E1EEF0E080818E7F8083E2EE8D
:10507000F0E0808181608083808188608083F80196
:1050800080818E7F8083888180618883DF91CF914A
:105090001F910F910895E8EDF0E080818F7E80836D
:1050A000E7EDF0E080818160808384E082BF81E071
:1050B00080933B030E9408280895E8EDF0E080818A
:1050C0008E7F80831092E20008951092DA00109291
:1050D000E10008951F920F920FB60F9211242F93A3
:1050E0003F934F935F936F937F938F939F93AF9370
:1050F000BF93EF93FF938091E10082FF0BC08091FB
:10510000E20082FF07C08091E1008B7F8093E10085
:105110000E94C92A8091DA0080FF19C08091D800CE
:1051200080FF15C08091DA008E7F8093DA00809135
:10513000D90080FF96C080E189BD82E189BD09B4B4
:1051400000FEFDCF81E080933C030E9421248091EA
:10515000E10080FF19C08091E20080FF15C08091BE
:10516000E2008E7F8093E2008091E2008061809374
:10517000E2008091D80080628093D80019BC85E05D
:1051800080933C030E9435248091E10084FF2BC072
:105190008091E20084FF27C080E189BD82E189BD62
:1051A00089B5982F917080FFFBCF8091D8008F7DBB
:1051B0008093D8008091E1008F7E8093E100809100
:1051C000E2008F7E8093E2008091E2008160809314
:1051D000E20080913803882309F449C084E0809379
:1051E0003C030E943E248091E10083FF29C080910E
:1051F000E20083FF25C08091E100877F8093E1007A
:1052000082E080933C03109238038091E1008E7F0E
:105210008093E1008091E2008E7F8093E200809194
:10522000E20080618093E20042E060E080E00E9462
:105230006A278091F00088608093F0000E943224F9
:10524000FF91EF91BF91AF919F918F917F916F915E
:105250005F914F913F912F910F900FBE0F901F9034
:10526000189519BC10923C030E942F2470CF809196
:10527000E30087FD93E090933C03B3CF1F920F921E
:105280000FB60F9211242F933F934F935F936F9319
:105290007F938F939F93AF93BF93CF93DF93EF93BE
:1052A000FF93D091E900DF708091EC00C82FC170AE
:1052B00080FDC0E81092E9008091F000877F809324
:1052C000F00078940E9482291092E9008091F00009
:1052D00088608093F000CD2BCF70C093E900FF91E0
:1052E000EF91DF91CF91BF91AF919F918F917F917E
:1052F0006F915F914F913F912F910F900FBE0F9043
:105300001F901895AAE2B0E0E8E8F9E20C94152B9A
:105310008DE393E02091F100FC012193CF01F3E0B4
:1053200085349F07B9F70E9468248091E80083FFC5
:105330001EC180913D0390913E039A3008F017C141
:10534000E92FF0E0EC51F44D0C94F92A803899F0F3
:10535000823809F00CC1809141038F70873008F0CA
:1053600006C18093E9008091EB0085FB882780F9D6
:105370001092E90006C08091390390913A0391118F
:1053800082609091E800977F9093E8008093F1000D
:105390001092F1008091E8008E77E5C0882309F42F
:1053A000D3C0823009F0E3C080913F038111D6C0A1
:1053B000809141038F702FEF280F263008F0D7C05F
:1053C0008093E9002091EB0020FFC8C0933031F4B6
:1053D0008091EB0080628093EB00C0C09091EB0065
:1053E00090619093EB0021E030E001C0220F8A959C
:1053F000EAF72093EA001092EA008091EB008860BF
:10540000EACF8111B4C010913F031F778091E30070
:105410008078812B8093E3008091E800877F8093E0
:10542000E8000E949E278091E80080FFFCCF8091D9
:10543000E30080688093E30082E0111183E08093B1
:105440003C0395C08058823008F091C080913F03A2
:10545000909140038C3D23E09207A1F583E08A837D
:105460008AE289834FB7F894DE01139620E03EE08C
:1054700051E2E32FF0E050935700E49120FF03C086
:10548000E295EF703F5FEF708E2F90E0EA30C0F052
:10549000C7968D939D932F5F243159F74FBF80910D
:1054A000E800877F8093E8006AE270E0CE01019611
:1054B0000E94AD268091E8008B778093E80057C06A
:1054C000C096E7CF6091410370914203AE014F5FF8
:1054D0005F4F0E949925BC01892B09F448C0909127
:1054E000E800977F9093E80089819A810E940B27BA
:1054F000E1CF8038E1F58091E800877F8093E80074
:10550000809138038093F10045CF811130C0909194
:105510003F03923060F58091E800877F8093E80038
:10552000909338030E949E2780913803882311F0BE
:1055300084E005C08091E30087FDFACF81E080938D
:105540003C030E94492413C080913F03813079F4C9
:1055500081E0933009F080E080933A031092E900F3
:105560008091E800877F8093E8000E949E278091C9
:10557000E80083FF0AC08091E800877F8093E800FD
:105580008091EB0080628093EB00AA96E3E00C949C
:10559000312B0895CF9380913C038823A1F0C091D3
:1055A000E900CF709091EC00892F817090FD80E828
:1055B000C82B1092E9008091E80083FD0E948229A7
:1055C000CF70C093E900CF91089597FB072E16F492
:1055D000009407D077FD09D00E943D2B07FC05D031
:1055E0003EF4909581959F4F0895709561957F4FFA
:1055F0000895EE0FFF1F0590F491E02D099469279F
:105600009627692778278727782708952F923F9232
:105610004F925F926F927F928F929F92AF92BF92C2
:10562000CF92DF92EF92FF920F931F93CF93DF936E
:10563000CDB7DEB7CA1BDB0B0FB6F894DEBF0FBECB
:10564000CDBF09942A88398848885F846E847D8418
:105650008C849B84AA84B984C884DF80EE80FD801A
:105660000C811B81AA81B981CE0FD11D0FB6F89490
:10567000DEBF0FBECDBFED010895AA1BBB1B51E1DC
:1056800007C0AA1FBB1FA617B70710F0A61BB70BB2
:10569000881F991F5A95A9F780959095BC01CD0157
:1056A0000895FB01DC0102C005900D92415050406D
:1056B000D8F70895FB01DC0104C08D910190801999
:1056C00021F441505040C8F7881B990B0895DC0124
:1056D00001C06D9341505040E0F70895DC01CB01CB
:1056E000FC01F999FECF06C0F2BDE1BDF89A3196F2
:1056F00000B40D9241505040B8F70895F999FECF8B
:1057000092BD81BDF89A992780B50895A8E1B0E0CF
:1057100042E050E00C94702B262FF999FECF92BDF9
:1057200081BDF89A019700B4021639F01FBA20BD66
:105730000FB6F894FA9AF99A0FBE08950396272F98
:105740000E948D2B0E948C2B252F0E948D2B242FA5
:105750000C948D2B0196272F0E948D2B0C948C2B53
:10576000DC01CB0103C02D910E94BB2B4150504066
:10577000D0F70895262FF999FECF1FBA92BD81BDAB
:1057800020BD0FB6F894FA9AF99A0FBE01960895C3
:10579000F894FFCFC505C505F605F605A106BD06BB
:1057A00025062506C8062F073E073E072717571769
:1057B0005E179717B117D217E017EF174917FC17A5
:1057C0004917491749170318A629CE29B72ACE2900
:0C57D000B72A012A222AB72A792A852A42
:1057DC001502280850011E0A140157020100015E2F
:1057EC002383236223F223ED236123017A01B44343
:1057FC0009C3083EE200E900EA00B500B600B700B4
:10580C00CD008301CC008A01920194012102230274
:10581C0024022502260227022A02B300B4006F00DC
:10582C007000818283E200E900EA00B500B600B79F
:10583C0000CD008301CC008A019201940121022346
:10584C000224022502260227022A02B300B4006FAA
:10585C000070008182833597903600FF01000100B3
:10586C0000FFFF0000010001FF004022BCE1030328
:0A587C00032503A802C102E10200A7
:00000001FF
